{
  "_format": "hh-sol-artifact-1",
  "contractName": "INativeERC20",
  "sourceName": "contracts/nativeERC20/INativeERC20.sol",
  "abi": [
    {
      "anonymous": false,
      "inputs": [
        {
          "indexed": false,
          "internalType": "address",
          "name": "sender",
          "type": "address"
        },
        {
          "indexed": false,
          "internalType": "string",
          "name": "recipient",
          "type": "string"
        },
        {
          "indexed": false,
          "internalType": "uint256",
          "name": "amount",
          "type": "uint256"
        },
        {
          "indexed": false,
          "internalType": "string",
          "name": "portID",
          "type": "string"
        },
        {
          "indexed": false,
          "internalType": "string",
          "name": "channelID",
          "type": "string"
        }
      ],
      "name": "__OKCSendNative20ToIbc",
      "type": "event"
    },
    {
      "anonymous": false,
      "inputs": [
        {
          "indexed": false,
          "internalType": "address",
          "name": "sender",
          "type": "address"
        },
        {
          "indexed": false,
          "internalType": "string",
          "name": "recipient",
          "type": "string"
        },
        {
          "indexed": false,
          "internalType": "uint256",
          "name": "amount",
          "type": "uint256"
        }
      ],
      "name": "__OKCSendToWasm",
      "type": "event"
    },
    {
      "inputs": [
        {
          "internalType": "address",
          "name": "addr",
          "type": "address"
        },
        {
          "internalType": "uint256",
          "name": "amount",
          "type": "uint256"
        }
      ],
      "name": "mint_by_okc_module",
      "outputs": [],
      "stateMutability": "nonpayable",
      "type": "function"
    },
    {
      "inputs": [],
      "name": "moduleAddress",
      "outputs": [
        {
          "internalType": "address",
          "name": "",
          "type": "address"
        }
      ],
      "stateMutability": "view",
      "type": "function"
    },
    {
      "inputs": [
        {
          "internalType": "string",
          "name": "recipient",
          "type": "string"
        },
        {
          "internalType": "uint256",
          "name": "amount",
          "type": "uint256"
        },
        {
          "internalType": "string",
          "name": "portID",
          "type": "string"
        },
        {
          "internalType": "string",
          "name": "channelID",
          "type": "string"
        }
      ],
      "name": "send_native20_to_ibc",
      "outputs": [],
      "stateMutability": "nonpayable",
      "type": "function"
    },
    {
      "inputs": [
        {
          "internalType": "string",
          "name": "recipient",
          "type": "string"
        },
        {
          "internalType": "uint256",
          "name": "amount",
          "type": "uint256"
        }
      ],
      "name": "send_to_wasm",
      "outputs": [],
      "stateMutability": "nonpayable",
      "type": "function"
    }
  ],
  "bytecode": "0x608060405234801561001057600080fd5b50610691806100206000396000f3fe608060405234801561001057600080fd5b506004361061004c5760003560e01c8063202865e01461005157806335b2bd2d1461006d578063e99bccd31461008b578063ec4994bf146100a7575b600080fd5b61006b60048036038101906100669190610289565b6100c3565b005b610075610102565b60405161008291906103f7565b60405180910390f35b6100a560048036038101906100a09190610249565b61011a565b005b6100c160048036038101906100bc91906102e5565b61016a565b005b7fbea1a90969532e8f201af81dabb4ba53f6ba923ce55cb10499def675ebc206333383836040516100f693929190610412565b60405180910390a15050565b73c63cf6c8e1f3df41085e9d8af49584dae1432b4f81565b73c63cf6c8e1f3df41085e9d8af49584dae1432b4f73ffffffffffffffffffffffffffffffffffffffff163373ffffffffffffffffffffffffffffffffffffffff161461016657600080fd5b5050565b7f68c3a09ef5bb7687398dbf45b16c3a14f5b92bd79e07e4503109e149e05c4b7533858585856040516101a1959493929190610450565b60405180910390a150505050565b60006101c26101bd846104dd565b6104b8565b9050828152602081018484840111156101de576101dd61060d565b5b6101e9848285610566565b509392505050565b6000813590506102008161062d565b92915050565b600082601f83011261021b5761021a610608565b5b813561022b8482602086016101af565b91505092915050565b60008135905061024381610644565b92915050565b600080604083850312156102605761025f610617565b5b600061026e858286016101f1565b925050602061027f85828601610234565b9150509250929050565b600080604083850312156102a05761029f610617565b5b600083013567ffffffffffffffff8111156102be576102bd610612565b5b6102ca85828601610206565b92505060206102db85828601610234565b9150509250929050565b600080600080608085870312156102ff576102fe610617565b5b600085013567ffffffffffffffff81111561031d5761031c610612565b5b61032987828801610206565b945050602061033a87828801610234565b935050604085013567ffffffffffffffff81111561035b5761035a610612565b5b61036787828801610206565b925050606085013567ffffffffffffffff81111561038857610387610612565b5b61039487828801610206565b91505092959194509250565b6103a98161052a565b82525050565b60006103ba8261050e565b6103c48185610519565b93506103d4818560208601610575565b6103dd8161061c565b840191505092915050565b6103f18161055c565b82525050565b600060208201905061040c60008301846103a0565b92915050565b600060608201905061042760008301866103a0565b818103602083015261043981856103af565b905061044860408301846103e8565b949350505050565b600060a08201905061046560008301886103a0565b818103602083015261047781876103af565b905061048660408301866103e8565b818103606083015261049881856103af565b905081810360808301526104ac81846103af565b90509695505050505050565b60006104c26104d3565b90506104ce82826105a8565b919050565b6000604051905090565b600067ffffffffffffffff8211156104f8576104f76105d9565b5b6105018261061c565b9050602081019050919050565b600081519050919050565b600082825260208201905092915050565b60006105358261053c565b9050919050565b600073ffffffffffffffffffffffffffffffffffffffff82169050919050565b6000819050919050565b82818337600083830152505050565b60005b83811015610593578082015181840152602081019050610578565b838111156105a2576000848401525b50505050565b6105b18261061c565b810181811067ffffffffffffffff821117156105d0576105cf6105d9565b5b80604052505050565b7f4e487b7100000000000000000000000000000000000000000000000000000000600052604160045260246000fd5b600080fd5b600080fd5b600080fd5b600080fd5b6000601f19601f8301169050919050565b6106368161052a565b811461064157600080fd5b50565b61064d8161055c565b811461065857600080fd5b5056fea2646970667358221220282538b413ec35af3788aed8363b27f0cb3b1275cbf509640d8008539d778fd264736f6c63430008070033",
  "linkReferences": {},
  "deployedLinkReferences": {}
}