{
  "_format": "hh-sol-artifact-1",
  "contractName": "MockNativeERC20",
  "sourceName": "contracts/nativeERC20/MockNativeERC20.sol",
  "abi": [
    {
      "anonymous": false,
      "inputs": [
        {
          "indexed": true,
          "internalType": "address",
          "name": "owner",
          "type": "address"
        },
        {
          "indexed": true,
          "internalType": "address",
          "name": "spender",
          "type": "address"
        },
        {
          "indexed": false,
          "internalType": "uint256",
          "name": "value",
          "type": "uint256"
        }
      ],
      "name": "Approval",
      "type": "event"
    },
    {
      "anonymous": false,
      "inputs": [
        {
          "indexed": true,
          "internalType": "address",
          "name": "from",
          "type": "address"
        },
        {
          "indexed": true,
          "internalType": "address",
          "name": "to",
          "type": "address"
        },
        {
          "indexed": false,
          "internalType": "uint256",
          "name": "value",
          "type": "uint256"
        }
      ],
      "name": "Transfer",
      "type": "event"
    },
    {
      "anonymous": false,
      "inputs": [
        {
          "indexed": false,
          "internalType": "address",
          "name": "sender",
          "type": "address"
        },
        {
          "indexed": false,
          "internalType": "string",
          "name": "recipient",
          "type": "string"
        },
        {
          "indexed": false,
          "internalType": "uint256",
          "name": "amount",
          "type": "uint256"
        },
        {
          "indexed": false,
          "internalType": "string",
          "name": "portID",
          "type": "string"
        },
        {
          "indexed": false,
          "internalType": "string",
          "name": "channelID",
          "type": "string"
        }
      ],
      "name": "__OKCSendNative20ToIbc",
      "type": "event"
    },
    {
      "anonymous": false,
      "inputs": [
        {
          "indexed": false,
          "internalType": "address",
          "name": "sender",
          "type": "address"
        },
        {
          "indexed": false,
          "internalType": "string",
          "name": "recipient",
          "type": "string"
        },
        {
          "indexed": false,
          "internalType": "uint256",
          "name": "amount",
          "type": "uint256"
        }
      ],
      "name": "__OKCSendToWasm",
      "type": "event"
    },
    {
      "inputs": [
        {
          "internalType": "address",
          "name": "owner",
          "type": "address"
        },
        {
          "internalType": "address",
          "name": "spender",
          "type": "address"
        }
      ],
      "name": "allowance",
      "outputs": [
        {
          "internalType": "uint256",
          "name": "",
          "type": "uint256"
        }
      ],
      "stateMutability": "view",
      "type": "function"
    },
    {
      "inputs": [
        {
          "internalType": "address",
          "name": "spender",
          "type": "address"
        },
        {
          "internalType": "uint256",
          "name": "amount",
          "type": "uint256"
        }
      ],
      "name": "approve",
      "outputs": [
        {
          "internalType": "bool",
          "name": "",
          "type": "bool"
        }
      ],
      "stateMutability": "nonpayable",
      "type": "function"
    },
    {
      "inputs": [
        {
          "internalType": "address",
          "name": "account",
          "type": "address"
        }
      ],
      "name": "balanceOf",
      "outputs": [
        {
          "internalType": "uint256",
          "name": "",
          "type": "uint256"
        }
      ],
      "stateMutability": "view",
      "type": "function"
    },
    {
      "inputs": [
        {
          "internalType": "address",
          "name": "addr",
          "type": "address"
        },
        {
          "internalType": "uint256",
          "name": "amount",
          "type": "uint256"
        }
      ],
      "name": "burn_by_okc_module",
      "outputs": [],
      "stateMutability": "nonpayable",
      "type": "function"
    },
    {
      "inputs": [],
      "name": "decimals",
      "outputs": [
        {
          "internalType": "uint8",
          "name": "",
          "type": "uint8"
        }
      ],
      "stateMutability": "view",
      "type": "function"
    },
    {
      "inputs": [
        {
          "internalType": "address",
          "name": "spender",
          "type": "address"
        },
        {
          "internalType": "uint256",
          "name": "subtractedValue",
          "type": "uint256"
        }
      ],
      "name": "decreaseAllowance",
      "outputs": [
        {
          "internalType": "bool",
          "name": "",
          "type": "bool"
        }
      ],
      "stateMutability": "nonpayable",
      "type": "function"
    },
    {
      "inputs": [
        {
          "internalType": "address",
          "name": "spender",
          "type": "address"
        },
        {
          "internalType": "uint256",
          "name": "addedValue",
          "type": "uint256"
        }
      ],
      "name": "increaseAllowance",
      "outputs": [
        {
          "internalType": "bool",
          "name": "",
          "type": "bool"
        }
      ],
      "stateMutability": "nonpayable",
      "type": "function"
    },
    {
      "inputs": [
        {
          "internalType": "string",
          "name": "denom_",
          "type": "string"
        },
        {
          "internalType": "uint8",
          "name": "decimals_",
          "type": "uint8"
        }
      ],
      "name": "initialize",
      "outputs": [],
      "stateMutability": "nonpayable",
      "type": "function"
    },
    {
      "inputs": [
        {
          "internalType": "address",
          "name": "addr",
          "type": "address"
        },
        {
          "internalType": "uint256",
          "name": "amount",
          "type": "uint256"
        }
      ],
      "name": "mint_by_okc_module",
      "outputs": [],
      "stateMutability": "nonpayable",
      "type": "function"
    },
    {
      "inputs": [],
      "name": "moduleAddress",
      "outputs": [
        {
          "internalType": "address",
          "name": "",
          "type": "address"
        }
      ],
      "stateMutability": "view",
      "type": "function"
    },
    {
      "inputs": [],
      "name": "name",
      "outputs": [
        {
          "internalType": "string",
          "name": "",
          "type": "string"
        }
      ],
      "stateMutability": "view",
      "type": "function"
    },
    {
      "inputs": [],
      "name": "native_denom",
      "outputs": [
        {
          "internalType": "string",
          "name": "",
          "type": "string"
        }
      ],
      "stateMutability": "view",
      "type": "function"
    },
    {
      "inputs": [
        {
          "internalType": "string",
          "name": "recipient",
          "type": "string"
        },
        {
          "internalType": "uint256",
          "name": "amount",
          "type": "uint256"
        },
        {
          "internalType": "string",
          "name": "portID",
          "type": "string"
        },
        {
          "internalType": "string",
          "name": "channelID",
          "type": "string"
        }
      ],
      "name": "send_native20_to_ibc",
      "outputs": [],
      "stateMutability": "nonpayable",
      "type": "function"
    },
    {
      "inputs": [
        {
          "internalType": "string",
          "name": "recipient",
          "type": "string"
        },
        {
          "internalType": "uint256",
          "name": "amount",
          "type": "uint256"
        }
      ],
      "name": "send_to_wasm",
      "outputs": [],
      "stateMutability": "nonpayable",
      "type": "function"
    },
    {
      "inputs": [],
      "name": "symbol",
      "outputs": [
        {
          "internalType": "string",
          "name": "",
          "type": "string"
        }
      ],
      "stateMutability": "view",
      "type": "function"
    },
    {
      "inputs": [],
      "name": "totalSupply",
      "outputs": [
        {
          "internalType": "uint256",
          "name": "",
          "type": "uint256"
        }
      ],
      "stateMutability": "view",
      "type": "function"
    },
    {
      "inputs": [
        {
          "internalType": "address",
          "name": "to",
          "type": "address"
        },
        {
          "internalType": "uint256",
          "name": "amount",
          "type": "uint256"
        }
      ],
      "name": "transfer",
      "outputs": [
        {
          "internalType": "bool",
          "name": "",
          "type": "bool"
        }
      ],
      "stateMutability": "nonpayable",
      "type": "function"
    },
    {
      "inputs": [
        {
          "internalType": "address",
          "name": "from",
          "type": "address"
        },
        {
          "internalType": "address",
          "name": "to",
          "type": "address"
        },
        {
          "internalType": "uint256",
          "name": "amount",
          "type": "uint256"
        }
      ],
      "name": "transferFrom",
      "outputs": [
        {
          "internalType": "bool",
          "name": "",
          "type": "bool"
        }
      ],
      "stateMutability": "nonpayable",
      "type": "function"
    }
  ],
  "bytecode": "0x608060405234801561001057600080fd5b50611a8b806100206000396000f3fe608060405234801561001057600080fd5b50600436106101165760003560e01c806395d89b41116100a2578063cc1207c011610071578063cc1207c014610309578063dd62ed3e14610325578063e99bccd314610355578063ec4994bf14610371578063ee3666541461038d57610116565b806395d89b411461026f57806399550aa61461028d578063a457c2d7146102a9578063a9059cbb146102d957610116565b806323b872dd116100e957806323b872dd146101a3578063313ce567146101d357806335b2bd2d146101f1578063395093511461020f57806370a082311461023f57610116565b806306fdde031461011b578063095ea7b31461013957806318160ddd14610169578063202865e014610187575b600080fd5b6101236103ab565b604051610130919061142c565b60405180910390f35b610153600480360381019061014e9190611034565b61043d565b6040516101609190611411565b60405180910390f35b610171610459565b60405161017e919061154e565b60405180910390f35b6101a1600480360381019061019c9190611070565b610463565b005b6101bd60048036038101906101b89190610fe5565b6104ac565b6040516101ca9190611411565b60405180910390f35b6101db6104d4565b6040516101e89190611569565b60405180910390f35b6101f96104eb565b6040516102069190611350565b60405180910390f35b61022960048036038101906102249190611034565b610503565b6040516102369190611411565b60405180910390f35b61025960048036038101906102549190610f80565b6105a6565b604051610266919061154e565b60405180910390f35b6102776105ef565b604051610284919061142c565b60405180910390f35b6102a760048036038101906102a29190611034565b6105fe565b005b6102c360048036038101906102be9190611034565b610658565b6040516102d09190611411565b60405180910390f35b6102f360048036038101906102ee9190611034565b61073b565b6040516103009190611411565b60405180910390f35b610323600480360381019061031e919061116f565b610757565b005b61033f600480360381019061033a9190610fa9565b610766565b60405161034c919061154e565b60405180910390f35b61036f600480360381019061036a9190611034565b6107ed565b005b61038b600480360381019061038691906110c4565b610847565b005b610395610896565b6040516103a2919061142c565b60405180910390f35b6060600080546103ba906116e3565b80601f01602080910402602001604051908101604052809291908181526020018280546103e6906116e3565b80156104335780601f1061040857610100808354040283529160200191610433565b820191906000526020600020905b81548152906001019060200180831161041657829003601f168201915b5050505050905090565b60008033905061044e8185856108a5565b600191505092915050565b6000600354905090565b61046d3382610a70565b7fbea1a90969532e8f201af81dabb4ba53f6ba923ce55cb10499def675ebc206333383836040516104a09392919061136b565b60405180910390a15050565b6000803390506104bd858285610a7e565b6104c8858585610b0a565b60019150509392505050565b6000600260009054906101000a900460ff16905090565b73c63cf6c8e1f3df41085e9d8af49584dae1432b4f81565b60008033905061059b818585600560008673ffffffffffffffffffffffffffffffffffffffff1673ffffffffffffffffffffffffffffffffffffffff16815260200190815260200160002060008973ffffffffffffffffffffffffffffffffffffffff1673ffffffffffffffffffffffffffffffffffffffff1681526020019081526020016000205461059691906115f6565b6108a5565b600191505092915050565b6000600460008373ffffffffffffffffffffffffffffffffffffffff1673ffffffffffffffffffffffffffffffffffffffff168152602001908152602001600020549050919050565b60606105f9610d78565b905090565b73c63cf6c8e1f3df41085e9d8af49584dae1432b4f73ffffffffffffffffffffffffffffffffffffffff163373ffffffffffffffffffffffffffffffffffffffff161461064a57600080fd5b6106548282610a70565b5050565b6000803390506000600560008373ffffffffffffffffffffffffffffffffffffffff1673ffffffffffffffffffffffffffffffffffffffff16815260200190815260200160002060008673ffffffffffffffffffffffffffffffffffffffff1673ffffffffffffffffffffffffffffffffffffffff16815260200190815260200160002054905083811015610722576040517f08c379a00000000000000000000000000000000000000000000000000000000081526004016107199061152e565b60405180910390fd5b61072f82868684036108a5565b60019250505092915050565b60008033905061074c818585610b0a565b600191505092915050565b610762828383610d7d565b5050565b6000600560008473ffffffffffffffffffffffffffffffffffffffff1673ffffffffffffffffffffffffffffffffffffffff16815260200190815260200160002060008373ffffffffffffffffffffffffffffffffffffffff1673ffffffffffffffffffffffffffffffffffffffff16815260200190815260200160002054905092915050565b73c63cf6c8e1f3df41085e9d8af49584dae1432b4f73ffffffffffffffffffffffffffffffffffffffff163373ffffffffffffffffffffffffffffffffffffffff161461083957600080fd5b6108438282610e20565b5050565b6108513384610a70565b7f68c3a09ef5bb7687398dbf45b16c3a14f5b92bd79e07e4503109e149e05c4b7533858585856040516108889594939291906113a9565b60405180910390a150505050565b60606108a06105ef565b905090565b600073ffffffffffffffffffffffffffffffffffffffff168373ffffffffffffffffffffffffffffffffffffffff161415610915576040517f08c379a000000000000000000000000000000000000000000000000000000000815260040161090c9061150e565b60405180910390fd5b600073ffffffffffffffffffffffffffffffffffffffff168273ffffffffffffffffffffffffffffffffffffffff161415610985576040517f08c379a000000000000000000000000000000000000000000000000000000000815260040161097c9061146e565b60405180910390fd5b80600560008573ffffffffffffffffffffffffffffffffffffffff1673ffffffffffffffffffffffffffffffffffffffff16815260200190815260200160002060008473ffffffffffffffffffffffffffffffffffffffff1673ffffffffffffffffffffffffffffffffffffffff168152602001908152602001600020819055508173ffffffffffffffffffffffffffffffffffffffff168373ffffffffffffffffffffffffffffffffffffffff167f8c5be1e5ebec7d5bd14f71427d1e84f3dd0314c0f7b2291e5b200ac8c7c3b92583604051610a63919061154e565b60405180910390a3505050565b610a7a8282610e2e565b5050565b6000610a8a8484610766565b90507fffffffffffffffffffffffffffffffffffffffffffffffffffffffffffffffff8114610b045781811015610af6576040517f08c379a0000000000000000000000000000000000000000000000000000000008152600401610aed906114ae565b60405180910390fd5b610b0384848484036108a5565b5b50505050565b600073ffffffffffffffffffffffffffffffffffffffff168373ffffffffffffffffffffffffffffffffffffffff161415610b7a576040517f08c379a0000000000000000000000000000000000000000000000000000000008152600401610b71906114ee565b60405180910390fd5b600073ffffffffffffffffffffffffffffffffffffffff168273ffffffffffffffffffffffffffffffffffffffff161415610bea576040517f08c379a0000000000000000000000000000000000000000000000000000000008152600401610be19061144e565b60405180910390fd5b6000600460008573ffffffffffffffffffffffffffffffffffffffff1673ffffffffffffffffffffffffffffffffffffffff16815260200190815260200160002054905081811015610c71576040517f08c379a0000000000000000000000000000000000000000000000000000000008152600401610c68906114ce565b60405180910390fd5b818103600460008673ffffffffffffffffffffffffffffffffffffffff1673ffffffffffffffffffffffffffffffffffffffff1681526020019081526020016000208190555081600460008573ffffffffffffffffffffffffffffffffffffffff1673ffffffffffffffffffffffffffffffffffffffff1681526020019081526020016000206000828254610d0691906115f6565b925050819055508273ffffffffffffffffffffffffffffffffffffffff168473ffffffffffffffffffffffffffffffffffffffff167fddf252ad1be2c89b69c2b068fc378daa952ba7f163c4a11628f55a4df523b3ef84604051610d6a919061154e565b60405180910390a350505050565b606090565b6000600260009054906101000a900460ff1660ff1614610dd2576040517f08c379a0000000000000000000000000000000000000000000000000000000008152600401610dc99061148e565b60405180910390fd5b8260009080519060200190610de8929190610e36565b508160019080519060200190610dff929190610e36565b5080600260006101000a81548160ff021916908360ff160217905550505050565b610e2a8282610e32565b5050565b5050565b5050565b828054610e42906116e3565b90600052602060002090601f016020900481019282610e645760008555610eab565b82601f10610e7d57805160ff1916838001178555610eab565b82800160010185558215610eab579182015b82811115610eaa578251825591602001919060010190610e8f565b5b509050610eb89190610ebc565b5090565b5b80821115610ed5576000816000905550600101610ebd565b5090565b6000610eec610ee7846115a9565b611584565b905082815260208101848484011115610f0457600080fd5b610f0f8482856116a1565b509392505050565b600081359050610f2681611a10565b92915050565b600082601f830112610f3d57600080fd5b8135610f4d848260208601610ed9565b91505092915050565b600081359050610f6581611a27565b92915050565b600081359050610f7a81611a3e565b92915050565b600060208284031215610f9257600080fd5b6000610fa084828501610f17565b91505092915050565b60008060408385031215610fbc57600080fd5b6000610fca85828601610f17565b9250506020610fdb85828601610f17565b9150509250929050565b600080600060608486031215610ffa57600080fd5b600061100886828701610f17565b935050602061101986828701610f17565b925050604061102a86828701610f56565b9150509250925092565b6000806040838503121561104757600080fd5b600061105585828601610f17565b925050602061106685828601610f56565b9150509250929050565b6000806040838503121561108357600080fd5b600083013567ffffffffffffffff81111561109d57600080fd5b6110a985828601610f2c565b92505060206110ba85828601610f56565b9150509250929050565b600080600080608085870312156110da57600080fd5b600085013567ffffffffffffffff8111156110f457600080fd5b61110087828801610f2c565b945050602061111187828801610f56565b935050604085013567ffffffffffffffff81111561112e57600080fd5b61113a87828801610f2c565b925050606085013567ffffffffffffffff81111561115757600080fd5b61116387828801610f2c565b91505092959194509250565b6000806040838503121561118257600080fd5b600083013567ffffffffffffffff81111561119c57600080fd5b6111a885828601610f2c565b92505060206111b985828601610f6b565b9150509250929050565b6111cc8161164c565b82525050565b6111db8161165e565b82525050565b60006111ec826115da565b6111f681856115e5565b93506112068185602086016116b0565b61120f816117d3565b840191505092915050565b60006112276023836115e5565b9150611232826117e4565b604082019050919050565b600061124a6022836115e5565b915061125582611833565b604082019050919050565b600061126d601b836115e5565b915061127882611882565b602082019050919050565b6000611290601d836115e5565b915061129b826118ab565b602082019050919050565b60006112b36026836115e5565b91506112be826118d4565b604082019050919050565b60006112d66025836115e5565b91506112e182611923565b604082019050919050565b60006112f96024836115e5565b915061130482611972565b604082019050919050565b600061131c6025836115e5565b9150611327826119c1565b604082019050919050565b61133b8161168a565b82525050565b61134a81611694565b82525050565b600060208201905061136560008301846111c3565b92915050565b600060608201905061138060008301866111c3565b818103602083015261139281856111e1565b90506113a16040830184611332565b949350505050565b600060a0820190506113be60008301886111c3565b81810360208301526113d081876111e1565b90506113df6040830186611332565b81810360608301526113f181856111e1565b9050818103608083015261140581846111e1565b90509695505050505050565b600060208201905061142660008301846111d2565b92915050565b6000602082019050818103600083015261144681846111e1565b905092915050565b600060208201905081810360008301526114678161121a565b9050919050565b600060208201905081810360008301526114878161123d565b9050919050565b600060208201905081810360008301526114a781611260565b9050919050565b600060208201905081810360008301526114c781611283565b9050919050565b600060208201905081810360008301526114e7816112a6565b9050919050565b60006020820190508181036000830152611507816112c9565b9050919050565b60006020820190508181036000830152611527816112ec565b9050919050565b600060208201905081810360008301526115478161130f565b9050919050565b60006020820190506115636000830184611332565b92915050565b600060208201905061157e6000830184611341565b92915050565b600061158e61159f565b905061159a8282611715565b919050565b6000604051905090565b600067ffffffffffffffff8211156115c4576115c36117a4565b5b6115cd826117d3565b9050602081019050919050565b600081519050919050565b600082825260208201905092915050565b60006116018261168a565b915061160c8361168a565b9250827fffffffffffffffffffffffffffffffffffffffffffffffffffffffffffffffff0382111561164157611640611746565b5b828201905092915050565b60006116578261166a565b9050919050565b60008115159050919050565b600073ffffffffffffffffffffffffffffffffffffffff82169050919050565b6000819050919050565b600060ff82169050919050565b82818337600083830152505050565b60005b838110156116ce5780820151818401526020810190506116b3565b838111156116dd576000848401525b50505050565b600060028204905060018216806116fb57607f821691505b6020821081141561170f5761170e611775565b5b50919050565b61171e826117d3565b810181811067ffffffffffffffff8211171561173d5761173c6117a4565b5b80604052505050565b7f4e487b7100000000000000000000000000000000000000000000000000000000600052601160045260246000fd5b7f4e487b7100000000000000000000000000000000000000000000000000000000600052602260045260246000fd5b7f4e487b7100000000000000000000000000000000000000000000000000000000600052604160045260246000fd5b6000601f19601f8301169050919050565b7f45524332303a207472616e7366657220746f20746865207a65726f206164647260008201527f6573730000000000000000000000000000000000000000000000000000000000602082015250565b7f45524332303a20617070726f766520746f20746865207a65726f20616464726560008201527f7373000000000000000000000000000000000000000000000000000000000000602082015250565b7f45524332303a20616c726561647920696e697469616c697a65643b0000000000600082015250565b7f45524332303a20696e73756666696369656e7420616c6c6f77616e6365000000600082015250565b7f45524332303a207472616e7366657220616d6f756e742065786365656473206260008201527f616c616e63650000000000000000000000000000000000000000000000000000602082015250565b7f45524332303a207472616e736665722066726f6d20746865207a65726f20616460008201527f6472657373000000000000000000000000000000000000000000000000000000602082015250565b7f45524332303a20617070726f76652066726f6d20746865207a65726f2061646460008201527f7265737300000000000000000000000000000000000000000000000000000000602082015250565b7f45524332303a2064656372656173656420616c6c6f77616e63652062656c6f7760008201527f207a65726f000000000000000000000000000000000000000000000000000000602082015250565b611a198161164c565b8114611a2457600080fd5b50565b611a308161168a565b8114611a3b57600080fd5b50565b611a4781611694565b8114611a5257600080fd5b5056fea2646970667358221220528990fcb927607b16a059baf2d4505fc5dc4a2d18aa7605d50ddcaf6c53d5ed64736f6c63430008040033",
  "linkReferences": {},
  "deployedLinkReferences": {}
}