{
  "_format": "hh-sol-artifact-1",
  "contractName": "MockNativeERC20",
  "sourceName": "contracts/nativeERC20/MockNativeERC20.sol",
  "abi": [
    {
      "anonymous": false,
      "inputs": [
        {
          "indexed": true,
          "internalType": "address",
          "name": "owner",
          "type": "address"
        },
        {
          "indexed": true,
          "internalType": "address",
          "name": "spender",
          "type": "address"
        },
        {
          "indexed": false,
          "internalType": "uint256",
          "name": "value",
          "type": "uint256"
        }
      ],
      "name": "Approval",
      "type": "event"
    },
    {
      "anonymous": false,
      "inputs": [
        {
          "indexed": true,
          "internalType": "address",
          "name": "from",
          "type": "address"
        },
        {
          "indexed": true,
          "internalType": "address",
          "name": "to",
          "type": "address"
        },
        {
          "indexed": false,
          "internalType": "uint256",
          "name": "value",
          "type": "uint256"
        }
      ],
      "name": "Transfer",
      "type": "event"
    },
    {
      "anonymous": false,
      "inputs": [
        {
          "indexed": false,
          "internalType": "address",
          "name": "sender",
          "type": "address"
        },
        {
          "indexed": false,
          "internalType": "string",
          "name": "recipient",
          "type": "string"
        },
        {
          "indexed": false,
          "internalType": "uint256",
          "name": "amount",
          "type": "uint256"
        },
        {
          "indexed": false,
          "internalType": "string",
          "name": "portID",
          "type": "string"
        },
        {
          "indexed": false,
          "internalType": "string",
          "name": "channelID",
          "type": "string"
        }
      ],
      "name": "__OKCSendNative20ToIbc",
      "type": "event"
    },
    {
      "anonymous": false,
      "inputs": [
        {
          "indexed": false,
          "internalType": "address",
          "name": "sender",
          "type": "address"
        },
        {
          "indexed": false,
          "internalType": "string",
          "name": "recipient",
          "type": "string"
        },
        {
          "indexed": false,
          "internalType": "uint256",
          "name": "amount",
          "type": "uint256"
        }
      ],
      "name": "__OKCSendToWasm",
      "type": "event"
    },
    {
      "inputs": [
        {
          "internalType": "address",
          "name": "owner",
          "type": "address"
        },
        {
          "internalType": "address",
          "name": "spender",
          "type": "address"
        }
      ],
      "name": "allowance",
      "outputs": [
        {
          "internalType": "uint256",
          "name": "",
          "type": "uint256"
        }
      ],
      "stateMutability": "view",
      "type": "function"
    },
    {
      "inputs": [
        {
          "internalType": "address",
          "name": "spender",
          "type": "address"
        },
        {
          "internalType": "uint256",
          "name": "amount",
          "type": "uint256"
        }
      ],
      "name": "approve",
      "outputs": [
        {
          "internalType": "bool",
          "name": "",
          "type": "bool"
        }
      ],
      "stateMutability": "nonpayable",
      "type": "function"
    },
    {
      "inputs": [
        {
          "internalType": "address",
          "name": "account",
          "type": "address"
        }
      ],
      "name": "balanceOf",
      "outputs": [
        {
          "internalType": "uint256",
          "name": "",
          "type": "uint256"
        }
      ],
      "stateMutability": "view",
      "type": "function"
    },
    {
      "inputs": [
        {
          "internalType": "address",
          "name": "account",
          "type": "address"
        },
        {
          "internalType": "uint256",
          "name": "amount",
          "type": "uint256"
        }
      ],
      "name": "burn",
      "outputs": [],
      "stateMutability": "nonpayable",
      "type": "function"
    },
    {
      "inputs": [
        {
          "internalType": "address",
          "name": "addr",
          "type": "address"
        },
        {
          "internalType": "uint256",
          "name": "amount",
          "type": "uint256"
        }
      ],
      "name": "burn_by_okc_module",
      "outputs": [],
      "stateMutability": "nonpayable",
      "type": "function"
    },
    {
      "inputs": [],
      "name": "decimals",
      "outputs": [
        {
          "internalType": "uint8",
          "name": "",
          "type": "uint8"
        }
      ],
      "stateMutability": "view",
      "type": "function"
    },
    {
      "inputs": [
        {
          "internalType": "address",
          "name": "spender",
          "type": "address"
        },
        {
          "internalType": "uint256",
          "name": "subtractedValue",
          "type": "uint256"
        }
      ],
      "name": "decreaseAllowance",
      "outputs": [
        {
          "internalType": "bool",
          "name": "",
          "type": "bool"
        }
      ],
      "stateMutability": "nonpayable",
      "type": "function"
    },
    {
      "inputs": [
        {
          "internalType": "address",
          "name": "spender",
          "type": "address"
        },
        {
          "internalType": "uint256",
          "name": "addedValue",
          "type": "uint256"
        }
      ],
      "name": "increaseAllowance",
      "outputs": [
        {
          "internalType": "bool",
          "name": "",
          "type": "bool"
        }
      ],
      "stateMutability": "nonpayable",
      "type": "function"
    },
    {
      "inputs": [
        {
          "internalType": "string",
          "name": "denom_",
          "type": "string"
        },
        {
          "internalType": "uint8",
          "name": "decimals_",
          "type": "uint8"
        }
      ],
      "name": "initialize",
      "outputs": [],
      "stateMutability": "nonpayable",
      "type": "function"
    },
    {
      "inputs": [
        {
          "internalType": "address",
          "name": "account",
          "type": "address"
        },
        {
          "internalType": "uint256",
          "name": "amount",
          "type": "uint256"
        }
      ],
      "name": "mint",
      "outputs": [],
      "stateMutability": "nonpayable",
      "type": "function"
    },
    {
      "inputs": [
        {
          "internalType": "address",
          "name": "addr",
          "type": "address"
        },
        {
          "internalType": "uint256",
          "name": "amount",
          "type": "uint256"
        }
      ],
      "name": "mint_by_okc_module",
      "outputs": [],
      "stateMutability": "nonpayable",
      "type": "function"
    },
    {
      "inputs": [],
      "name": "moduleAddress",
      "outputs": [
        {
          "internalType": "address",
          "name": "",
          "type": "address"
        }
      ],
      "stateMutability": "view",
      "type": "function"
    },
    {
      "inputs": [],
      "name": "name",
      "outputs": [
        {
          "internalType": "string",
          "name": "",
          "type": "string"
        }
      ],
      "stateMutability": "view",
      "type": "function"
    },
    {
      "inputs": [],
      "name": "native_denom",
      "outputs": [
        {
          "internalType": "string",
          "name": "",
          "type": "string"
        }
      ],
      "stateMutability": "view",
      "type": "function"
    },
    {
      "inputs": [
        {
          "internalType": "string",
          "name": "recipient",
          "type": "string"
        },
        {
          "internalType": "uint256",
          "name": "amount",
          "type": "uint256"
        },
        {
          "internalType": "string",
          "name": "portID",
          "type": "string"
        },
        {
          "internalType": "string",
          "name": "channelID",
          "type": "string"
        }
      ],
      "name": "send_native20_to_ibc",
      "outputs": [],
      "stateMutability": "nonpayable",
      "type": "function"
    },
    {
      "inputs": [
        {
          "internalType": "string",
          "name": "recipient",
          "type": "string"
        },
        {
          "internalType": "uint256",
          "name": "amount",
          "type": "uint256"
        }
      ],
      "name": "send_to_wasm",
      "outputs": [],
      "stateMutability": "nonpayable",
      "type": "function"
    },
    {
      "inputs": [],
      "name": "symbol",
      "outputs": [
        {
          "internalType": "string",
          "name": "",
          "type": "string"
        }
      ],
      "stateMutability": "view",
      "type": "function"
    },
    {
      "inputs": [],
      "name": "totalSupply",
      "outputs": [
        {
          "internalType": "uint256",
          "name": "",
          "type": "uint256"
        }
      ],
      "stateMutability": "view",
      "type": "function"
    },
    {
      "inputs": [
        {
          "internalType": "address",
          "name": "to",
          "type": "address"
        },
        {
          "internalType": "uint256",
          "name": "amount",
          "type": "uint256"
        }
      ],
      "name": "transfer",
      "outputs": [
        {
          "internalType": "bool",
          "name": "",
          "type": "bool"
        }
      ],
      "stateMutability": "nonpayable",
      "type": "function"
    },
    {
      "inputs": [
        {
          "internalType": "address",
          "name": "from",
          "type": "address"
        },
        {
          "internalType": "address",
          "name": "to",
          "type": "address"
        },
        {
          "internalType": "uint256",
          "name": "amount",
          "type": "uint256"
        }
      ],
      "name": "transferFrom",
      "outputs": [
        {
          "internalType": "bool",
          "name": "",
          "type": "bool"
        }
      ],
      "stateMutability": "nonpayable",
      "type": "function"
    }
  ],
  "bytecode": "0x608060405234801561001057600080fd5b50611b54806100206000396000f3fe608060405234801561001057600080fd5b506004361061012c5760003560e01c806395d89b41116100ad578063cc1207c011610071578063cc1207c014610357578063dd62ed3e14610373578063e99bccd3146103a3578063ec4994bf146103bf578063ee366654146103db5761012c565b806395d89b41146102a157806399550aa6146102bf5780639dc29fac146102db578063a457c2d7146102f7578063a9059cbb146103275761012c565b8063313ce567116100f4578063313ce567146101e957806335b2bd2d14610207578063395093511461022557806340c10f191461025557806370a08231146102715761012c565b806306fdde0314610131578063095ea7b31461014f57806318160ddd1461017f578063202865e01461019d57806323b872dd146101b9575b600080fd5b6101396103f9565b60405161014691906114e1565b60405180910390f35b610169600480360381019061016491906110c5565b61048b565b60405161017691906114c6565b60405180910390f35b6101876104a7565b6040516101949190611603565b60405180910390f35b6101b760048036038101906101b29190611105565b6104b1565b005b6101d360048036038101906101ce9190611072565b6104fa565b6040516101e091906114c6565b60405180910390f35b6101f1610522565b6040516101fe919061161e565b60405180910390f35b61020f610539565b60405161021c9190611405565b60405180910390f35b61023f600480360381019061023a91906110c5565b610551565b60405161024c91906114c6565b60405180910390f35b61026f600480360381019061026a91906110c5565b6105f4565b005b61028b60048036038101906102869190611005565b610602565b6040516102989190611603565b60405180910390f35b6102a961064b565b6040516102b691906114e1565b60405180910390f35b6102d960048036038101906102d491906110c5565b61065a565b005b6102f560048036038101906102f091906110c5565b6106b4565b005b610311600480360381019061030c91906110c5565b6106c2565b60405161031e91906114c6565b60405180910390f35b610341600480360381019061033c91906110c5565b6107a5565b60405161034e91906114c6565b60405180910390f35b610371600480360381019061036c919061121c565b6107c1565b005b61038d60048036038101906103889190611032565b6107d0565b60405161039a9190611603565b60405180910390f35b6103bd60048036038101906103b891906110c5565b610857565b005b6103d960048036038101906103d49190611161565b6108b1565b005b6103e3610900565b6040516103f091906114e1565b60405180910390f35b60606001805461040890611798565b80601f016020809104026020016040519081016040528092919081815260200182805461043490611798565b80156104815780601f1061045657610100808354040283529160200191610481565b820191906000526020600020905b81548152906001019060200180831161046457829003601f168201915b5050505050905090565b60008033905061049c81858561090f565b600191505092915050565b6000600454905090565b6104bb3382610ada565b7fbea1a90969532e8f201af81dabb4ba53f6ba923ce55cb10499def675ebc206333383836040516104ee93929190611420565b60405180910390a15050565b60008033905061050b858285610ae8565b610516858585610b74565b60019150509392505050565b6000600360009054906101000a900460ff16905090565b73c63cf6c8e1f3df41085e9d8af49584dae1432b4f81565b6000803390506105e9818585600660008673ffffffffffffffffffffffffffffffffffffffff1673ffffffffffffffffffffffffffffffffffffffff16815260200190815260200160002060008973ffffffffffffffffffffffffffffffffffffffff1673ffffffffffffffffffffffffffffffffffffffff168152602001908152602001600020546105e491906116ab565b61090f565b600191505092915050565b6105fe8282610de2565b5050565b6000600560008373ffffffffffffffffffffffffffffffffffffffff1673ffffffffffffffffffffffffffffffffffffffff168152602001908152602001600020549050919050565b6060610655610df0565b905090565b73c63cf6c8e1f3df41085e9d8af49584dae1432b4f73ffffffffffffffffffffffffffffffffffffffff163373ffffffffffffffffffffffffffffffffffffffff16146106a657600080fd5b6106b08282610ada565b5050565b6106be8282610ada565b5050565b6000803390506000600660008373ffffffffffffffffffffffffffffffffffffffff1673ffffffffffffffffffffffffffffffffffffffff16815260200190815260200160002060008673ffffffffffffffffffffffffffffffffffffffff1673ffffffffffffffffffffffffffffffffffffffff1681526020019081526020016000205490508381101561078c576040517f08c379a0000000000000000000000000000000000000000000000000000000008152600401610783906115e3565b60405180910390fd5b610799828686840361090f565b60019250505092915050565b6000803390506107b6818585610b74565b600191505092915050565b6107cc828383610df5565b5050565b6000600660008473ffffffffffffffffffffffffffffffffffffffff1673ffffffffffffffffffffffffffffffffffffffff16815260200190815260200160002060008373ffffffffffffffffffffffffffffffffffffffff1673ffffffffffffffffffffffffffffffffffffffff16815260200190815260200160002054905092915050565b73c63cf6c8e1f3df41085e9d8af49584dae1432b4f73ffffffffffffffffffffffffffffffffffffffff163373ffffffffffffffffffffffffffffffffffffffff16146108a357600080fd5b6108ad8282610de2565b5050565b6108bb3384610ada565b7f68c3a09ef5bb7687398dbf45b16c3a14f5b92bd79e07e4503109e149e05c4b7533858585856040516108f295949392919061145e565b60405180910390a150505050565b606061090a61064b565b905090565b600073ffffffffffffffffffffffffffffffffffffffff168373ffffffffffffffffffffffffffffffffffffffff16141561097f576040517f08c379a0000000000000000000000000000000000000000000000000000000008152600401610976906115c3565b60405180910390fd5b600073ffffffffffffffffffffffffffffffffffffffff168273ffffffffffffffffffffffffffffffffffffffff1614156109ef576040517f08c379a00000000000000000000000000000000000000000000000000000000081526004016109e690611523565b60405180910390fd5b80600660008573ffffffffffffffffffffffffffffffffffffffff1673ffffffffffffffffffffffffffffffffffffffff16815260200190815260200160002060008473ffffffffffffffffffffffffffffffffffffffff1673ffffffffffffffffffffffffffffffffffffffff168152602001908152602001600020819055508173ffffffffffffffffffffffffffffffffffffffff168373ffffffffffffffffffffffffffffffffffffffff167f8c5be1e5ebec7d5bd14f71427d1e84f3dd0314c0f7b2291e5b200ac8c7c3b92583604051610acd9190611603565b60405180910390a3505050565b610ae48282610eab565b5050565b6000610af484846107d0565b90507fffffffffffffffffffffffffffffffffffffffffffffffffffffffffffffffff8114610b6e5781811015610b60576040517f08c379a0000000000000000000000000000000000000000000000000000000008152600401610b5790611563565b60405180910390fd5b610b6d848484840361090f565b5b50505050565b600073ffffffffffffffffffffffffffffffffffffffff168373ffffffffffffffffffffffffffffffffffffffff161415610be4576040517f08c379a0000000000000000000000000000000000000000000000000000000008152600401610bdb906115a3565b60405180910390fd5b600073ffffffffffffffffffffffffffffffffffffffff168273ffffffffffffffffffffffffffffffffffffffff161415610c54576040517f08c379a0000000000000000000000000000000000000000000000000000000008152600401610c4b90611503565b60405180910390fd5b6000600560008573ffffffffffffffffffffffffffffffffffffffff1673ffffffffffffffffffffffffffffffffffffffff16815260200190815260200160002054905081811015610cdb576040517f08c379a0000000000000000000000000000000000000000000000000000000008152600401610cd290611583565b60405180910390fd5b818103600560008673ffffffffffffffffffffffffffffffffffffffff1673ffffffffffffffffffffffffffffffffffffffff1681526020019081526020016000208190555081600560008573ffffffffffffffffffffffffffffffffffffffff1673ffffffffffffffffffffffffffffffffffffffff1681526020019081526020016000206000828254610d7091906116ab565b925050819055508273ffffffffffffffffffffffffffffffffffffffff168473ffffffffffffffffffffffffffffffffffffffff167fddf252ad1be2c89b69c2b068fc378daa952ba7f163c4a11628f55a4df523b3ef84604051610dd49190611603565b60405180910390a350505050565b610dec8282610eaf565b5050565b606090565b60008054906101000a900460ff1615610e43576040517f08c379a0000000000000000000000000000000000000000000000000000000008152600401610e3a90611543565b60405180910390fd5b60016000806101000a81548160ff0219169083151502179055508260019080519060200190610e73929190610eb3565b508160029080519060200190610e8a929190610eb3565b5080600360006101000a81548160ff021916908360ff160217905550505050565b5050565b5050565b828054610ebf90611798565b90600052602060002090601f016020900481019282610ee15760008555610f28565b82601f10610efa57805160ff1916838001178555610f28565b82800160010185558215610f28579182015b82811115610f27578251825591602001919060010190610f0c565b5b509050610f359190610f39565b5090565b5b80821115610f52576000816000905550600101610f3a565b5090565b6000610f69610f648461165e565b611639565b905082815260208101848484011115610f8557610f8461188d565b5b610f90848285611756565b509392505050565b600081359050610fa781611ad9565b92915050565b600082601f830112610fc257610fc1611888565b5b8135610fd2848260208601610f56565b91505092915050565b600081359050610fea81611af0565b92915050565b600081359050610fff81611b07565b92915050565b60006020828403121561101b5761101a611897565b5b600061102984828501610f98565b91505092915050565b6000806040838503121561104957611048611897565b5b600061105785828601610f98565b925050602061106885828601610f98565b9150509250929050565b60008060006060848603121561108b5761108a611897565b5b600061109986828701610f98565b93505060206110aa86828701610f98565b92505060406110bb86828701610fdb565b9150509250925092565b600080604083850312156110dc576110db611897565b5b60006110ea85828601610f98565b92505060206110fb85828601610fdb565b9150509250929050565b6000806040838503121561111c5761111b611897565b5b600083013567ffffffffffffffff81111561113a57611139611892565b5b61114685828601610fad565b925050602061115785828601610fdb565b9150509250929050565b6000806000806080858703121561117b5761117a611897565b5b600085013567ffffffffffffffff81111561119957611198611892565b5b6111a587828801610fad565b94505060206111b687828801610fdb565b935050604085013567ffffffffffffffff8111156111d7576111d6611892565b5b6111e387828801610fad565b925050606085013567ffffffffffffffff81111561120457611203611892565b5b61121087828801610fad565b91505092959194509250565b6000806040838503121561123357611232611897565b5b600083013567ffffffffffffffff81111561125157611250611892565b5b61125d85828601610fad565b925050602061126e85828601610ff0565b9150509250929050565b61128181611701565b82525050565b61129081611713565b82525050565b60006112a18261168f565b6112ab818561169a565b93506112bb818560208601611765565b6112c48161189c565b840191505092915050565b60006112dc60238361169a565b91506112e7826118ad565b604082019050919050565b60006112ff60228361169a565b915061130a826118fc565b604082019050919050565b6000611322601b8361169a565b915061132d8261194b565b602082019050919050565b6000611345601d8361169a565b915061135082611974565b602082019050919050565b600061136860268361169a565b91506113738261199d565b604082019050919050565b600061138b60258361169a565b9150611396826119ec565b604082019050919050565b60006113ae60248361169a565b91506113b982611a3b565b604082019050919050565b60006113d160258361169a565b91506113dc82611a8a565b604082019050919050565b6113f08161173f565b82525050565b6113ff81611749565b82525050565b600060208201905061141a6000830184611278565b92915050565b60006060820190506114356000830186611278565b81810360208301526114478185611296565b905061145660408301846113e7565b949350505050565b600060a0820190506114736000830188611278565b81810360208301526114858187611296565b905061149460408301866113e7565b81810360608301526114a68185611296565b905081810360808301526114ba8184611296565b90509695505050505050565b60006020820190506114db6000830184611287565b92915050565b600060208201905081810360008301526114fb8184611296565b905092915050565b6000602082019050818103600083015261151c816112cf565b9050919050565b6000602082019050818103600083015261153c816112f2565b9050919050565b6000602082019050818103600083015261155c81611315565b9050919050565b6000602082019050818103600083015261157c81611338565b9050919050565b6000602082019050818103600083015261159c8161135b565b9050919050565b600060208201905081810360008301526115bc8161137e565b9050919050565b600060208201905081810360008301526115dc816113a1565b9050919050565b600060208201905081810360008301526115fc816113c4565b9050919050565b600060208201905061161860008301846113e7565b92915050565b600060208201905061163360008301846113f6565b92915050565b6000611643611654565b905061164f82826117ca565b919050565b6000604051905090565b600067ffffffffffffffff82111561167957611678611859565b5b6116828261189c565b9050602081019050919050565b600081519050919050565b600082825260208201905092915050565b60006116b68261173f565b91506116c18361173f565b9250827fffffffffffffffffffffffffffffffffffffffffffffffffffffffffffffffff038211156116f6576116f56117fb565b5b828201905092915050565b600061170c8261171f565b9050919050565b60008115159050919050565b600073ffffffffffffffffffffffffffffffffffffffff82169050919050565b6000819050919050565b600060ff82169050919050565b82818337600083830152505050565b60005b83811015611783578082015181840152602081019050611768565b83811115611792576000848401525b50505050565b600060028204905060018216806117b057607f821691505b602082108114156117c4576117c361182a565b5b50919050565b6117d38261189c565b810181811067ffffffffffffffff821117156117f2576117f1611859565b5b80604052505050565b7f4e487b7100000000000000000000000000000000000000000000000000000000600052601160045260246000fd5b7f4e487b7100000000000000000000000000000000000000000000000000000000600052602260045260246000fd5b7f4e487b7100000000000000000000000000000000000000000000000000000000600052604160045260246000fd5b600080fd5b600080fd5b600080fd5b600080fd5b6000601f19601f8301169050919050565b7f45524332303a207472616e7366657220746f20746865207a65726f206164647260008201527f6573730000000000000000000000000000000000000000000000000000000000602082015250565b7f45524332303a20617070726f766520746f20746865207a65726f20616464726560008201527f7373000000000000000000000000000000000000000000000000000000000000602082015250565b7f45524332303a20616c726561647920696e697469616c697a65643b0000000000600082015250565b7f45524332303a20696e73756666696369656e7420616c6c6f77616e6365000000600082015250565b7f45524332303a207472616e7366657220616d6f756e742065786365656473206260008201527f616c616e63650000000000000000000000000000000000000000000000000000602082015250565b7f45524332303a207472616e736665722066726f6d20746865207a65726f20616460008201527f6472657373000000000000000000000000000000000000000000000000000000602082015250565b7f45524332303a20617070726f76652066726f6d20746865207a65726f2061646460008201527f7265737300000000000000000000000000000000000000000000000000000000602082015250565b7f45524332303a2064656372656173656420616c6c6f77616e63652062656c6f7760008201527f207a65726f000000000000000000000000000000000000000000000000000000602082015250565b611ae281611701565b8114611aed57600080fd5b50565b611af98161173f565b8114611b0457600080fd5b50565b611b1081611749565b8114611b1b57600080fd5b5056fea2646970667358221220fa02bdef1264b5c891ceac7ee3652fba65232f3a59ab5fd5238e899ca3c440b764736f6c63430008070033",
  "linkReferences": {},
  "deployedLinkReferences": {}
}