{
  "_format": "hh-sol-artifact-1",
  "contractName": "MockNativeERC20",
  "sourceName": "contracts/nativeERC20/MockNativeERC20.sol",
  "abi": [
    {
      "anonymous": false,
      "inputs": [
        {
          "indexed": true,
          "internalType": "address",
          "name": "owner",
          "type": "address"
        },
        {
          "indexed": true,
          "internalType": "address",
          "name": "spender",
          "type": "address"
        },
        {
          "indexed": false,
          "internalType": "uint256",
          "name": "value",
          "type": "uint256"
        }
      ],
      "name": "Approval",
      "type": "event"
    },
    {
      "anonymous": false,
      "inputs": [
        {
          "indexed": true,
          "internalType": "address",
          "name": "from",
          "type": "address"
        },
        {
          "indexed": true,
          "internalType": "address",
          "name": "to",
          "type": "address"
        },
        {
          "indexed": false,
          "internalType": "uint256",
          "name": "value",
          "type": "uint256"
        }
      ],
      "name": "Transfer",
      "type": "event"
    },
    {
      "anonymous": false,
      "inputs": [
        {
          "indexed": false,
          "internalType": "address",
          "name": "sender",
          "type": "address"
        },
        {
          "indexed": false,
          "internalType": "string",
          "name": "recipient",
          "type": "string"
        },
        {
          "indexed": false,
          "internalType": "uint256",
          "name": "amount",
          "type": "uint256"
        },
        {
          "indexed": false,
          "internalType": "string",
          "name": "portID",
          "type": "string"
        },
        {
          "indexed": false,
          "internalType": "string",
          "name": "channelID",
          "type": "string"
        }
      ],
      "name": "__OKCSendNative20ToIbc",
      "type": "event"
    },
    {
      "anonymous": false,
      "inputs": [
        {
          "indexed": false,
          "internalType": "address",
          "name": "sender",
          "type": "address"
        },
        {
          "indexed": false,
          "internalType": "string",
          "name": "recipient",
          "type": "string"
        },
        {
          "indexed": false,
          "internalType": "uint256",
          "name": "amount",
          "type": "uint256"
        }
      ],
      "name": "__OKCSendToWasm",
      "type": "event"
    },
    {
      "inputs": [
        {
          "internalType": "address",
          "name": "owner",
          "type": "address"
        },
        {
          "internalType": "address",
          "name": "spender",
          "type": "address"
        }
      ],
      "name": "allowance",
      "outputs": [
        {
          "internalType": "uint256",
          "name": "",
          "type": "uint256"
        }
      ],
      "stateMutability": "view",
      "type": "function"
    },
    {
      "inputs": [
        {
          "internalType": "address",
          "name": "spender",
          "type": "address"
        },
        {
          "internalType": "uint256",
          "name": "amount",
          "type": "uint256"
        }
      ],
      "name": "approve",
      "outputs": [
        {
          "internalType": "bool",
          "name": "",
          "type": "bool"
        }
      ],
      "stateMutability": "nonpayable",
      "type": "function"
    },
    {
      "inputs": [
        {
          "internalType": "address",
          "name": "account",
          "type": "address"
        }
      ],
      "name": "balanceOf",
      "outputs": [
        {
          "internalType": "uint256",
          "name": "",
          "type": "uint256"
        }
      ],
      "stateMutability": "view",
      "type": "function"
    },
    {
      "inputs": [
        {
          "internalType": "address",
          "name": "account",
          "type": "address"
        },
        {
          "internalType": "uint256",
          "name": "amount",
          "type": "uint256"
        }
      ],
      "name": "burn",
      "outputs": [],
      "stateMutability": "nonpayable",
      "type": "function"
    },
    {
      "inputs": [
        {
          "internalType": "address",
          "name": "addr",
          "type": "address"
        },
        {
          "internalType": "uint256",
          "name": "amount",
          "type": "uint256"
        }
      ],
      "name": "burn_by_okc_module",
      "outputs": [],
      "stateMutability": "nonpayable",
      "type": "function"
    },
    {
      "inputs": [],
      "name": "decimals",
      "outputs": [
        {
          "internalType": "uint8",
          "name": "",
          "type": "uint8"
        }
      ],
      "stateMutability": "view",
      "type": "function"
    },
    {
      "inputs": [
        {
          "internalType": "address",
          "name": "spender",
          "type": "address"
        },
        {
          "internalType": "uint256",
          "name": "subtractedValue",
          "type": "uint256"
        }
      ],
      "name": "decreaseAllowance",
      "outputs": [
        {
          "internalType": "bool",
          "name": "",
          "type": "bool"
        }
      ],
      "stateMutability": "nonpayable",
      "type": "function"
    },
    {
      "inputs": [
        {
          "internalType": "address",
          "name": "spender",
          "type": "address"
        },
        {
          "internalType": "uint256",
          "name": "addedValue",
          "type": "uint256"
        }
      ],
      "name": "increaseAllowance",
      "outputs": [
        {
          "internalType": "bool",
          "name": "",
          "type": "bool"
        }
      ],
      "stateMutability": "nonpayable",
      "type": "function"
    },
    {
      "inputs": [
        {
          "internalType": "string",
          "name": "denom_",
          "type": "string"
        },
        {
          "internalType": "uint8",
          "name": "decimals_",
          "type": "uint8"
        }
      ],
      "name": "initialize",
      "outputs": [],
      "stateMutability": "nonpayable",
      "type": "function"
    },
    {
      "inputs": [
        {
          "internalType": "address",
          "name": "account",
          "type": "address"
        },
        {
          "internalType": "uint256",
          "name": "amount",
          "type": "uint256"
        }
      ],
      "name": "mint",
      "outputs": [],
      "stateMutability": "nonpayable",
      "type": "function"
    },
    {
      "inputs": [
        {
          "internalType": "address",
          "name": "addr",
          "type": "address"
        },
        {
          "internalType": "uint256",
          "name": "amount",
          "type": "uint256"
        }
      ],
      "name": "mint_by_okc_module",
      "outputs": [],
      "stateMutability": "nonpayable",
      "type": "function"
    },
    {
      "inputs": [],
      "name": "moduleAddress",
      "outputs": [
        {
          "internalType": "address",
          "name": "",
          "type": "address"
        }
      ],
      "stateMutability": "view",
      "type": "function"
    },
    {
      "inputs": [],
      "name": "name",
      "outputs": [
        {
          "internalType": "string",
          "name": "",
          "type": "string"
        }
      ],
      "stateMutability": "view",
      "type": "function"
    },
    {
      "inputs": [],
      "name": "native_denom",
      "outputs": [
        {
          "internalType": "string",
          "name": "",
          "type": "string"
        }
      ],
      "stateMutability": "view",
      "type": "function"
    },
    {
      "inputs": [
        {
          "internalType": "string",
          "name": "recipient",
          "type": "string"
        },
        {
          "internalType": "uint256",
          "name": "amount",
          "type": "uint256"
        },
        {
          "internalType": "string",
          "name": "portID",
          "type": "string"
        },
        {
          "internalType": "string",
          "name": "channelID",
          "type": "string"
        }
      ],
      "name": "send_native20_to_ibc",
      "outputs": [],
      "stateMutability": "nonpayable",
      "type": "function"
    },
    {
      "inputs": [
        {
          "internalType": "string",
          "name": "recipient",
          "type": "string"
        },
        {
          "internalType": "uint256",
          "name": "amount",
          "type": "uint256"
        }
      ],
      "name": "send_to_wasm",
      "outputs": [],
      "stateMutability": "nonpayable",
      "type": "function"
    },
    {
      "inputs": [],
      "name": "symbol",
      "outputs": [
        {
          "internalType": "string",
          "name": "",
          "type": "string"
        }
      ],
      "stateMutability": "view",
      "type": "function"
    },
    {
      "inputs": [],
      "name": "totalSupply",
      "outputs": [
        {
          "internalType": "uint256",
          "name": "",
          "type": "uint256"
        }
      ],
      "stateMutability": "view",
      "type": "function"
    },
    {
      "inputs": [
        {
          "internalType": "address",
          "name": "to",
          "type": "address"
        },
        {
          "internalType": "uint256",
          "name": "amount",
          "type": "uint256"
        }
      ],
      "name": "transfer",
      "outputs": [
        {
          "internalType": "bool",
          "name": "",
          "type": "bool"
        }
      ],
      "stateMutability": "nonpayable",
      "type": "function"
    },
    {
      "inputs": [
        {
          "internalType": "address",
          "name": "from",
          "type": "address"
        },
        {
          "internalType": "address",
          "name": "to",
          "type": "address"
        },
        {
          "internalType": "uint256",
          "name": "amount",
          "type": "uint256"
        }
      ],
      "name": "transferFrom",
      "outputs": [
        {
          "internalType": "bool",
          "name": "",
          "type": "bool"
        }
      ],
      "stateMutability": "nonpayable",
      "type": "function"
    }
  ],
  "bytecode": "0x608060405234801561001057600080fd5b506120a7806100206000396000f3fe608060405234801561001057600080fd5b506004361061012c5760003560e01c806395d89b41116100ad578063cc1207c011610071578063cc1207c014610357578063dd62ed3e14610373578063e99bccd3146103a3578063ec4994bf146103bf578063ee366654146103db5761012c565b806395d89b41146102a157806399550aa6146102bf5780639dc29fac146102db578063a457c2d7146102f7578063a9059cbb146103275761012c565b8063313ce567116100f4578063313ce567146101e957806335b2bd2d14610207578063395093511461022557806340c10f191461025557806370a08231146102715761012c565b806306fdde0314610131578063095ea7b31461014f57806318160ddd1461017f578063202865e01461019d57806323b872dd146101b9575b600080fd5b6101396103f9565b60405161014691906118d9565b60405180910390f35b61016960048036038101906101649190611454565b61048b565b60405161017691906118be565b60405180910390f35b6101876104a7565b6040516101949190611a5b565b60405180910390f35b6101b760048036038101906101b29190611494565b6104b1565b005b6101d360048036038101906101ce9190611401565b6104fa565b6040516101e091906118be565b60405180910390f35b6101f1610522565b6040516101fe9190611a76565b60405180910390f35b61020f610539565b60405161021c91906117fd565b60405180910390f35b61023f600480360381019061023a9190611454565b610551565b60405161024c91906118be565b60405180910390f35b61026f600480360381019061026a9190611454565b6105f4565b005b61028b60048036038101906102869190611394565b610602565b6040516102989190611a5b565b60405180910390f35b6102a961064b565b6040516102b691906118d9565b60405180910390f35b6102d960048036038101906102d49190611454565b61065a565b005b6102f560048036038101906102f09190611454565b6106b4565b005b610311600480360381019061030c9190611454565b6106c2565b60405161031e91906118be565b60405180910390f35b610341600480360381019061033c9190611454565b6107a5565b60405161034e91906118be565b60405180910390f35b610371600480360381019061036c91906115ab565b6107c1565b005b61038d600480360381019061038891906113c1565b6107d0565b60405161039a9190611a5b565b60405180910390f35b6103bd60048036038101906103b89190611454565b610857565b005b6103d960048036038101906103d491906114f0565b6108b1565b005b6103e3610900565b6040516103f091906118d9565b60405180910390f35b60606001805461040890611c24565b80601f016020809104026020016040519081016040528092919081815260200182805461043490611c24565b80156104815780601f1061045657610100808354040283529160200191610481565b820191906000526020600020905b81548152906001019060200180831161046457829003601f168201915b5050505050905090565b60008033905061049c81858561090f565b600191505092915050565b6000600454905090565b6104bb3382610ada565b7fbea1a90969532e8f201af81dabb4ba53f6ba923ce55cb10499def675ebc206333383836040516104ee93929190611818565b60405180910390a15050565b60008033905061050b858285610ae8565b610516858585610b74565b60019150509392505050565b6000600360009054906101000a900460ff16905090565b73c63cf6c8e1f3df41085e9d8af49584dae1432b4f81565b6000803390506105e9818585600660008673ffffffffffffffffffffffffffffffffffffffff1673ffffffffffffffffffffffffffffffffffffffff16815260200190815260200160002060008973ffffffffffffffffffffffffffffffffffffffff1673ffffffffffffffffffffffffffffffffffffffff168152602001908152602001600020546105e49190611b03565b61090f565b600191505092915050565b6105fe8282610de2565b5050565b6000600560008373ffffffffffffffffffffffffffffffffffffffff1673ffffffffffffffffffffffffffffffffffffffff168152602001908152602001600020549050919050565b6060610655610df0565b905090565b73c63cf6c8e1f3df41085e9d8af49584dae1432b4f73ffffffffffffffffffffffffffffffffffffffff163373ffffffffffffffffffffffffffffffffffffffff16146106a657600080fd5b6106b08282610ada565b5050565b6106be8282610ada565b5050565b6000803390506000600660008373ffffffffffffffffffffffffffffffffffffffff1673ffffffffffffffffffffffffffffffffffffffff16815260200190815260200160002060008673ffffffffffffffffffffffffffffffffffffffff1673ffffffffffffffffffffffffffffffffffffffff1681526020019081526020016000205490508381101561078c576040517f08c379a000000000000000000000000000000000000000000000000000000000815260040161078390611a1b565b60405180910390fd5b610799828686840361090f565b60019250505092915050565b6000803390506107b6818585610b74565b600191505092915050565b6107cc828383610e82565b5050565b6000600660008473ffffffffffffffffffffffffffffffffffffffff1673ffffffffffffffffffffffffffffffffffffffff16815260200190815260200160002060008373ffffffffffffffffffffffffffffffffffffffff1673ffffffffffffffffffffffffffffffffffffffff16815260200190815260200160002054905092915050565b73c63cf6c8e1f3df41085e9d8af49584dae1432b4f73ffffffffffffffffffffffffffffffffffffffff163373ffffffffffffffffffffffffffffffffffffffff16146108a357600080fd5b6108ad8282610de2565b5050565b6108bb3384610ada565b7f68c3a09ef5bb7687398dbf45b16c3a14f5b92bd79e07e4503109e149e05c4b7533858585856040516108f2959493929190611856565b60405180910390a150505050565b606061090a61064b565b905090565b600073ffffffffffffffffffffffffffffffffffffffff168373ffffffffffffffffffffffffffffffffffffffff16141561097f576040517f08c379a0000000000000000000000000000000000000000000000000000000008152600401610976906119fb565b60405180910390fd5b600073ffffffffffffffffffffffffffffffffffffffff168273ffffffffffffffffffffffffffffffffffffffff1614156109ef576040517f08c379a00000000000000000000000000000000000000000000000000000000081526004016109e69061193b565b60405180910390fd5b80600660008573ffffffffffffffffffffffffffffffffffffffff1673ffffffffffffffffffffffffffffffffffffffff16815260200190815260200160002060008473ffffffffffffffffffffffffffffffffffffffff1673ffffffffffffffffffffffffffffffffffffffff168152602001908152602001600020819055508173ffffffffffffffffffffffffffffffffffffffff168373ffffffffffffffffffffffffffffffffffffffff167f8c5be1e5ebec7d5bd14f71427d1e84f3dd0314c0f7b2291e5b200ac8c7c3b92583604051610acd9190611a5b565b60405180910390a3505050565b610ae48282610f38565b5050565b6000610af484846107d0565b90507fffffffffffffffffffffffffffffffffffffffffffffffffffffffffffffffff8114610b6e5781811015610b60576040517f08c379a0000000000000000000000000000000000000000000000000000000008152600401610b579061197b565b60405180910390fd5b610b6d848484840361090f565b5b50505050565b600073ffffffffffffffffffffffffffffffffffffffff168373ffffffffffffffffffffffffffffffffffffffff161415610be4576040517f08c379a0000000000000000000000000000000000000000000000000000000008152600401610bdb906119db565b60405180910390fd5b600073ffffffffffffffffffffffffffffffffffffffff168273ffffffffffffffffffffffffffffffffffffffff161415610c54576040517f08c379a0000000000000000000000000000000000000000000000000000000008152600401610c4b906118fb565b60405180910390fd5b6000600560008573ffffffffffffffffffffffffffffffffffffffff1673ffffffffffffffffffffffffffffffffffffffff16815260200190815260200160002054905081811015610cdb576040517f08c379a0000000000000000000000000000000000000000000000000000000008152600401610cd29061199b565b60405180910390fd5b818103600560008673ffffffffffffffffffffffffffffffffffffffff1673ffffffffffffffffffffffffffffffffffffffff1681526020019081526020016000208190555081600560008573ffffffffffffffffffffffffffffffffffffffff1673ffffffffffffffffffffffffffffffffffffffff1681526020019081526020016000206000828254610d709190611b03565b925050819055508273ffffffffffffffffffffffffffffffffffffffff168473ffffffffffffffffffffffffffffffffffffffff167fddf252ad1be2c89b69c2b068fc378daa952ba7f163c4a11628f55a4df523b3ef84604051610dd49190611a5b565b60405180910390a350505050565b610dec82826110f9565b5050565b606060028054610dff90611c24565b80601f0160208091040260200160405190810160405280929190818152602001828054610e2b90611c24565b8015610e785780601f10610e4d57610100808354040283529160200191610e78565b820191906000526020600020905b815481529060010190602001808311610e5b57829003601f168201915b5050505050905090565b60008054906101000a900460ff1615610ed0576040517f08c379a0000000000000000000000000000000000000000000000000000000008152600401610ec79061195b565b60405180910390fd5b60016000806101000a81548160ff0219169083151502179055508260019080519060200190610f00929190611242565b508160029080519060200190610f17929190611242565b5080600360006101000a81548160ff021916908360ff160217905550505050565b600073ffffffffffffffffffffffffffffffffffffffff168273ffffffffffffffffffffffffffffffffffffffff161415610fa8576040517f08c379a0000000000000000000000000000000000000000000000000000000008152600401610f9f906119bb565b60405180910390fd5b6000600560008473ffffffffffffffffffffffffffffffffffffffff1673ffffffffffffffffffffffffffffffffffffffff1681526020019081526020016000205490508181101561102f576040517f08c379a00000000000000000000000000000000000000000000000000000000081526004016110269061191b565b60405180910390fd5b818103600560008573ffffffffffffffffffffffffffffffffffffffff1673ffffffffffffffffffffffffffffffffffffffff1681526020019081526020016000208190555081600460008282546110879190611b59565b92505081905550600073ffffffffffffffffffffffffffffffffffffffff168373ffffffffffffffffffffffffffffffffffffffff167fddf252ad1be2c89b69c2b068fc378daa952ba7f163c4a11628f55a4df523b3ef846040516110ec9190611a5b565b60405180910390a3505050565b600073ffffffffffffffffffffffffffffffffffffffff168273ffffffffffffffffffffffffffffffffffffffff161415611169576040517f08c379a000000000000000000000000000000000000000000000000000000000815260040161116090611a3b565b60405180910390fd5b806004600082825461117b9190611b03565b9250508190555080600560008473ffffffffffffffffffffffffffffffffffffffff1673ffffffffffffffffffffffffffffffffffffffff16815260200190815260200160002060008282546111d19190611b03565b925050819055508173ffffffffffffffffffffffffffffffffffffffff16600073ffffffffffffffffffffffffffffffffffffffff167fddf252ad1be2c89b69c2b068fc378daa952ba7f163c4a11628f55a4df523b3ef836040516112369190611a5b565b60405180910390a35050565b82805461124e90611c24565b90600052602060002090601f01602090048101928261127057600085556112b7565b82601f1061128957805160ff19168380011785556112b7565b828001600101855582156112b7579182015b828111156112b657825182559160200191906001019061129b565b5b5090506112c491906112c8565b5090565b5b808211156112e15760008160009055506001016112c9565b5090565b60006112f86112f384611ab6565b611a91565b90508281526020810184848401111561131457611313611d19565b5b61131f848285611be2565b509392505050565b6000813590506113368161202c565b92915050565b600082601f83011261135157611350611d14565b5b81356113618482602086016112e5565b91505092915050565b60008135905061137981612043565b92915050565b60008135905061138e8161205a565b92915050565b6000602082840312156113aa576113a9611d23565b5b60006113b884828501611327565b91505092915050565b600080604083850312156113d8576113d7611d23565b5b60006113e685828601611327565b92505060206113f785828601611327565b9150509250929050565b60008060006060848603121561141a57611419611d23565b5b600061142886828701611327565b935050602061143986828701611327565b925050604061144a8682870161136a565b9150509250925092565b6000806040838503121561146b5761146a611d23565b5b600061147985828601611327565b925050602061148a8582860161136a565b9150509250929050565b600080604083850312156114ab576114aa611d23565b5b600083013567ffffffffffffffff8111156114c9576114c8611d1e565b5b6114d58582860161133c565b92505060206114e68582860161136a565b9150509250929050565b6000806000806080858703121561150a57611509611d23565b5b600085013567ffffffffffffffff81111561152857611527611d1e565b5b6115348782880161133c565b94505060206115458782880161136a565b935050604085013567ffffffffffffffff81111561156657611565611d1e565b5b6115728782880161133c565b925050606085013567ffffffffffffffff81111561159357611592611d1e565b5b61159f8782880161133c565b91505092959194509250565b600080604083850312156115c2576115c1611d23565b5b600083013567ffffffffffffffff8111156115e0576115df611d1e565b5b6115ec8582860161133c565b92505060206115fd8582860161137f565b9150509250929050565b61161081611b8d565b82525050565b61161f81611b9f565b82525050565b600061163082611ae7565b61163a8185611af2565b935061164a818560208601611bf1565b61165381611d28565b840191505092915050565b600061166b602383611af2565b915061167682611d39565b604082019050919050565b600061168e602283611af2565b915061169982611d88565b604082019050919050565b60006116b1602283611af2565b91506116bc82611dd7565b604082019050919050565b60006116d4601b83611af2565b91506116df82611e26565b602082019050919050565b60006116f7601d83611af2565b915061170282611e4f565b602082019050919050565b600061171a602683611af2565b915061172582611e78565b604082019050919050565b600061173d602183611af2565b915061174882611ec7565b604082019050919050565b6000611760602583611af2565b915061176b82611f16565b604082019050919050565b6000611783602483611af2565b915061178e82611f65565b604082019050919050565b60006117a6602583611af2565b91506117b182611fb4565b604082019050919050565b60006117c9601f83611af2565b91506117d482612003565b602082019050919050565b6117e881611bcb565b82525050565b6117f781611bd5565b82525050565b60006020820190506118126000830184611607565b92915050565b600060608201905061182d6000830186611607565b818103602083015261183f8185611625565b905061184e60408301846117df565b949350505050565b600060a08201905061186b6000830188611607565b818103602083015261187d8187611625565b905061188c60408301866117df565b818103606083015261189e8185611625565b905081810360808301526118b28184611625565b90509695505050505050565b60006020820190506118d36000830184611616565b92915050565b600060208201905081810360008301526118f38184611625565b905092915050565b600060208201905081810360008301526119148161165e565b9050919050565b6000602082019050818103600083015261193481611681565b9050919050565b60006020820190508181036000830152611954816116a4565b9050919050565b60006020820190508181036000830152611974816116c7565b9050919050565b60006020820190508181036000830152611994816116ea565b9050919050565b600060208201905081810360008301526119b48161170d565b9050919050565b600060208201905081810360008301526119d481611730565b9050919050565b600060208201905081810360008301526119f481611753565b9050919050565b60006020820190508181036000830152611a1481611776565b9050919050565b60006020820190508181036000830152611a3481611799565b9050919050565b60006020820190508181036000830152611a54816117bc565b9050919050565b6000602082019050611a7060008301846117df565b92915050565b6000602082019050611a8b60008301846117ee565b92915050565b6000611a9b611aac565b9050611aa78282611c56565b919050565b6000604051905090565b600067ffffffffffffffff821115611ad157611ad0611ce5565b5b611ada82611d28565b9050602081019050919050565b600081519050919050565b600082825260208201905092915050565b6000611b0e82611bcb565b9150611b1983611bcb565b9250827fffffffffffffffffffffffffffffffffffffffffffffffffffffffffffffffff03821115611b4e57611b4d611c87565b5b828201905092915050565b6000611b6482611bcb565b9150611b6f83611bcb565b925082821015611b8257611b81611c87565b5b828203905092915050565b6000611b9882611bab565b9050919050565b60008115159050919050565b600073ffffffffffffffffffffffffffffffffffffffff82169050919050565b6000819050919050565b600060ff82169050919050565b82818337600083830152505050565b60005b83811015611c0f578082015181840152602081019050611bf4565b83811115611c1e576000848401525b50505050565b60006002820490506001821680611c3c57607f821691505b60208210811415611c5057611c4f611cb6565b5b50919050565b611c5f82611d28565b810181811067ffffffffffffffff82111715611c7e57611c7d611ce5565b5b80604052505050565b7f4e487b7100000000000000000000000000000000000000000000000000000000600052601160045260246000fd5b7f4e487b7100000000000000000000000000000000000000000000000000000000600052602260045260246000fd5b7f4e487b7100000000000000000000000000000000000000000000000000000000600052604160045260246000fd5b600080fd5b600080fd5b600080fd5b600080fd5b6000601f19601f8301169050919050565b7f45524332303a207472616e7366657220746f20746865207a65726f206164647260008201527f6573730000000000000000000000000000000000000000000000000000000000602082015250565b7f45524332303a206275726e20616d6f756e7420657863656564732062616c616e60008201527f6365000000000000000000000000000000000000000000000000000000000000602082015250565b7f45524332303a20617070726f766520746f20746865207a65726f20616464726560008201527f7373000000000000000000000000000000000000000000000000000000000000602082015250565b7f45524332303a20616c726561647920696e697469616c697a65643b0000000000600082015250565b7f45524332303a20696e73756666696369656e7420616c6c6f77616e6365000000600082015250565b7f45524332303a207472616e7366657220616d6f756e742065786365656473206260008201527f616c616e63650000000000000000000000000000000000000000000000000000602082015250565b7f45524332303a206275726e2066726f6d20746865207a65726f2061646472657360008201527f7300000000000000000000000000000000000000000000000000000000000000602082015250565b7f45524332303a207472616e736665722066726f6d20746865207a65726f20616460008201527f6472657373000000000000000000000000000000000000000000000000000000602082015250565b7f45524332303a20617070726f76652066726f6d20746865207a65726f2061646460008201527f7265737300000000000000000000000000000000000000000000000000000000602082015250565b7f45524332303a2064656372656173656420616c6c6f77616e63652062656c6f7760008201527f207a65726f000000000000000000000000000000000000000000000000000000602082015250565b7f45524332303a206d696e7420746f20746865207a65726f206164647265737300600082015250565b61203581611b8d565b811461204057600080fd5b50565b61204c81611bcb565b811461205757600080fd5b50565b61206381611bd5565b811461206e57600080fd5b5056fea2646970667358221220f9ba07be4b19c39f5cefb2dd2619e5373ae6d87b8791f881f32a4bf604ad475564736f6c63430008070033",
  "linkReferences": {},
  "deployedLinkReferences": {}
}