{
  "_format": "hh-sol-artifact-1",
  "contractName": "MockNativeERC20",
  "sourceName": "contracts/nativaERC20/MockNativeERC20.sol",
  "abi": [
    {
      "anonymous": false,
      "inputs": [
        {
          "indexed": true,
          "internalType": "address",
          "name": "owner",
          "type": "address"
        },
        {
          "indexed": true,
          "internalType": "address",
          "name": "spender",
          "type": "address"
        },
        {
          "indexed": false,
          "internalType": "uint256",
          "name": "value",
          "type": "uint256"
        }
      ],
      "name": "Approval",
      "type": "event"
    },
    {
      "anonymous": false,
      "inputs": [
        {
          "indexed": true,
          "internalType": "address",
          "name": "from",
          "type": "address"
        },
        {
          "indexed": true,
          "internalType": "address",
          "name": "to",
          "type": "address"
        },
        {
          "indexed": false,
          "internalType": "uint256",
          "name": "value",
          "type": "uint256"
        }
      ],
      "name": "Transfer",
      "type": "event"
    },
    {
      "anonymous": false,
      "inputs": [
        {
          "indexed": false,
          "internalType": "address",
          "name": "sender",
          "type": "address"
        },
        {
          "indexed": false,
          "internalType": "string",
          "name": "recipient",
          "type": "string"
        },
        {
          "indexed": false,
          "internalType": "uint256",
          "name": "amount",
          "type": "uint256"
        }
      ],
      "name": "__OecSendToWasm",
      "type": "event"
    },
    {
      "anonymous": false,
      "inputs": [
        {
          "indexed": false,
          "internalType": "address",
          "name": "sender",
          "type": "address"
        },
        {
          "indexed": false,
          "internalType": "string",
          "name": "recipient",
          "type": "string"
        },
        {
          "indexed": false,
          "internalType": "uint256",
          "name": "amount",
          "type": "uint256"
        },
        {
          "indexed": false,
          "internalType": "string",
          "name": "portID",
          "type": "string"
        },
        {
          "indexed": false,
          "internalType": "string",
          "name": "channelID",
          "type": "string"
        }
      ],
      "name": "__OkcSendNative20ToIbc",
      "type": "event"
    },
    {
      "inputs": [
        {
          "internalType": "address",
          "name": "owner",
          "type": "address"
        },
        {
          "internalType": "address",
          "name": "spender",
          "type": "address"
        }
      ],
      "name": "allowance",
      "outputs": [
        {
          "internalType": "uint256",
          "name": "",
          "type": "uint256"
        }
      ],
      "stateMutability": "view",
      "type": "function"
    },
    {
      "inputs": [
        {
          "internalType": "address",
          "name": "spender",
          "type": "address"
        },
        {
          "internalType": "uint256",
          "name": "amount",
          "type": "uint256"
        }
      ],
      "name": "approve",
      "outputs": [
        {
          "internalType": "bool",
          "name": "",
          "type": "bool"
        }
      ],
      "stateMutability": "nonpayable",
      "type": "function"
    },
    {
      "inputs": [
        {
          "internalType": "address",
          "name": "account",
          "type": "address"
        }
      ],
      "name": "balanceOf",
      "outputs": [
        {
          "internalType": "uint256",
          "name": "",
          "type": "uint256"
        }
      ],
      "stateMutability": "view",
      "type": "function"
    },
    {
      "inputs": [
        {
          "internalType": "address",
          "name": "addr",
          "type": "address"
        },
        {
          "internalType": "uint256",
          "name": "amount",
          "type": "uint256"
        }
      ],
      "name": "burn_by_oec_module",
      "outputs": [],
      "stateMutability": "nonpayable",
      "type": "function"
    },
    {
      "inputs": [],
      "name": "decimals",
      "outputs": [
        {
          "internalType": "uint8",
          "name": "",
          "type": "uint8"
        }
      ],
      "stateMutability": "view",
      "type": "function"
    },
    {
      "inputs": [
        {
          "internalType": "address",
          "name": "spender",
          "type": "address"
        },
        {
          "internalType": "uint256",
          "name": "subtractedValue",
          "type": "uint256"
        }
      ],
      "name": "decreaseAllowance",
      "outputs": [
        {
          "internalType": "bool",
          "name": "",
          "type": "bool"
        }
      ],
      "stateMutability": "nonpayable",
      "type": "function"
    },
    {
      "inputs": [
        {
          "internalType": "address",
          "name": "spender",
          "type": "address"
        },
        {
          "internalType": "uint256",
          "name": "addedValue",
          "type": "uint256"
        }
      ],
      "name": "increaseAllowance",
      "outputs": [
        {
          "internalType": "bool",
          "name": "",
          "type": "bool"
        }
      ],
      "stateMutability": "nonpayable",
      "type": "function"
    },
    {
      "inputs": [
        {
          "internalType": "string",
          "name": "denom_",
          "type": "string"
        },
        {
          "internalType": "uint8",
          "name": "decimals_",
          "type": "uint8"
        }
      ],
      "name": "initialize",
      "outputs": [],
      "stateMutability": "nonpayable",
      "type": "function"
    },
    {
      "inputs": [
        {
          "internalType": "address",
          "name": "addr",
          "type": "address"
        },
        {
          "internalType": "uint256",
          "name": "amount",
          "type": "uint256"
        }
      ],
      "name": "mint_by_oec_module",
      "outputs": [],
      "stateMutability": "nonpayable",
      "type": "function"
    },
    {
      "inputs": [],
      "name": "moduleAddress",
      "outputs": [
        {
          "internalType": "address",
          "name": "",
          "type": "address"
        }
      ],
      "stateMutability": "view",
      "type": "function"
    },
    {
      "inputs": [],
      "name": "name",
      "outputs": [
        {
          "internalType": "string",
          "name": "",
          "type": "string"
        }
      ],
      "stateMutability": "view",
      "type": "function"
    },
    {
      "inputs": [],
      "name": "native_denom",
      "outputs": [
        {
          "internalType": "string",
          "name": "",
          "type": "string"
        }
      ],
      "stateMutability": "view",
      "type": "function"
    },
    {
      "inputs": [
        {
          "internalType": "string",
          "name": "recipient",
          "type": "string"
        },
        {
          "internalType": "uint256",
          "name": "amount",
          "type": "uint256"
        },
        {
          "internalType": "string",
          "name": "portID",
          "type": "string"
        },
        {
          "internalType": "string",
          "name": "channelID",
          "type": "string"
        }
      ],
      "name": "send_native20_to_ibc",
      "outputs": [],
      "stateMutability": "nonpayable",
      "type": "function"
    },
    {
      "inputs": [
        {
          "internalType": "string",
          "name": "recipient",
          "type": "string"
        },
        {
          "internalType": "uint256",
          "name": "amount",
          "type": "uint256"
        }
      ],
      "name": "send_to_wasm",
      "outputs": [],
      "stateMutability": "nonpayable",
      "type": "function"
    },
    {
      "inputs": [],
      "name": "symbol",
      "outputs": [
        {
          "internalType": "string",
          "name": "",
          "type": "string"
        }
      ],
      "stateMutability": "view",
      "type": "function"
    },
    {
      "inputs": [],
      "name": "totalSupply",
      "outputs": [
        {
          "internalType": "uint256",
          "name": "",
          "type": "uint256"
        }
      ],
      "stateMutability": "view",
      "type": "function"
    },
    {
      "inputs": [
        {
          "internalType": "address",
          "name": "to",
          "type": "address"
        },
        {
          "internalType": "uint256",
          "name": "amount",
          "type": "uint256"
        }
      ],
      "name": "transfer",
      "outputs": [
        {
          "internalType": "bool",
          "name": "",
          "type": "bool"
        }
      ],
      "stateMutability": "nonpayable",
      "type": "function"
    },
    {
      "inputs": [
        {
          "internalType": "address",
          "name": "from",
          "type": "address"
        },
        {
          "internalType": "address",
          "name": "to",
          "type": "address"
        },
        {
          "internalType": "uint256",
          "name": "amount",
          "type": "uint256"
        }
      ],
      "name": "transferFrom",
      "outputs": [
        {
          "internalType": "bool",
          "name": "",
          "type": "bool"
        }
      ],
      "stateMutability": "nonpayable",
      "type": "function"
    }
  ],
  "bytecode": "0x608060405234801561001057600080fd5b50611a7c806100206000396000f3fe608060405234801561001057600080fd5b50600436106101165760003560e01c806339509351116100a2578063a9059cbb11610071578063a9059cbb146102f5578063cc1207c014610325578063dd62ed3e14610341578063ec4994bf14610371578063ee3666541461038d57610116565b8063395093511461024757806370a082311461027757806395d89b41146102a7578063a457c2d7146102c557610116565b8063202865e0116100e9578063202865e0146101a357806320ac86af146101bf57806323b872dd146101db578063313ce5671461020b57806335b2bd2d1461022957610116565b806306fdde031461011b578063095ea7b314610139578063141fba4c1461016957806318160ddd14610185575b600080fd5b6101236103ab565b604051610130919061141d565b60405180910390f35b610153600480360381019061014e9190611025565b61043d565b6040516101609190611402565b60405180910390f35b610183600480360381019061017e9190611025565b610459565b005b61018d6104b3565b60405161019a919061153f565b60405180910390f35b6101bd60048036038101906101b89190611061565b6104bd565b005b6101d960048036038101906101d49190611025565b610506565b005b6101f560048036038101906101f09190610fd6565b610560565b6040516102029190611402565b60405180910390f35b610213610588565b604051610220919061155a565b60405180910390f35b61023161059f565b60405161023e9190611341565b60405180910390f35b610261600480360381019061025c9190611025565b6105b7565b60405161026e9190611402565b60405180910390f35b610291600480360381019061028c9190610f71565b61065a565b60405161029e919061153f565b60405180910390f35b6102af6106a3565b6040516102bc919061141d565b60405180910390f35b6102df60048036038101906102da9190611025565b6106b2565b6040516102ec9190611402565b60405180910390f35b61030f600480360381019061030a9190611025565b610795565b60405161031c9190611402565b60405180910390f35b61033f600480360381019061033a9190611160565b6107b1565b005b61035b60048036038101906103569190610f9a565b6107c0565b604051610368919061153f565b60405180910390f35b61038b600480360381019061038691906110b5565b610847565b005b610395610896565b6040516103a2919061141d565b60405180910390f35b6060600080546103ba906116d4565b80601f01602080910402602001604051908101604052809291908181526020018280546103e6906116d4565b80156104335780601f1061040857610100808354040283529160200191610433565b820191906000526020600020905b81548152906001019060200180831161041657829003601f168201915b5050505050905090565b60008033905061044e8185856108a5565b600191505092915050565b73c63cf6c8e1f3df41085e9d8af49584dae1432b4f73ffffffffffffffffffffffffffffffffffffffff163373ffffffffffffffffffffffffffffffffffffffff16146104a557600080fd5b6104af8282610a70565b5050565b6000600354905090565b6104c73382610a7e565b7f165b3d8d9d365e35202a862156f9616fece19885cff97968fa2ebd4490d51a2b3383836040516104fa9392919061135c565b60405180910390a15050565b73c63cf6c8e1f3df41085e9d8af49584dae1432b4f73ffffffffffffffffffffffffffffffffffffffff163373ffffffffffffffffffffffffffffffffffffffff161461055257600080fd5b61055c8282610a7e565b5050565b600080339050610571858285610a8c565b61057c858585610b18565b60019150509392505050565b6000600260009054906101000a900460ff16905090565b73c63cf6c8e1f3df41085e9d8af49584dae1432b4f81565b60008033905061064f818585600560008673ffffffffffffffffffffffffffffffffffffffff1673ffffffffffffffffffffffffffffffffffffffff16815260200190815260200160002060008973ffffffffffffffffffffffffffffffffffffffff1673ffffffffffffffffffffffffffffffffffffffff1681526020019081526020016000205461064a91906115e7565b6108a5565b600191505092915050565b6000600460008373ffffffffffffffffffffffffffffffffffffffff1673ffffffffffffffffffffffffffffffffffffffff168152602001908152602001600020549050919050565b60606106ad610d86565b905090565b6000803390506000600560008373ffffffffffffffffffffffffffffffffffffffff1673ffffffffffffffffffffffffffffffffffffffff16815260200190815260200160002060008673ffffffffffffffffffffffffffffffffffffffff1673ffffffffffffffffffffffffffffffffffffffff1681526020019081526020016000205490508381101561077c576040517f08c379a00000000000000000000000000000000000000000000000000000000081526004016107739061151f565b60405180910390fd5b61078982868684036108a5565b60019250505092915050565b6000803390506107a6818585610b18565b600191505092915050565b6107bc828383610d8b565b5050565b6000600560008473ffffffffffffffffffffffffffffffffffffffff1673ffffffffffffffffffffffffffffffffffffffff16815260200190815260200160002060008373ffffffffffffffffffffffffffffffffffffffff1673ffffffffffffffffffffffffffffffffffffffff16815260200190815260200160002054905092915050565b6108513384610a7e565b7f20e75b817319a36fc4d8e913e5a7e7066ba979710f0b7597f352faf174e7d6dc338585858560405161088895949392919061139a565b60405180910390a150505050565b60606108a06106a3565b905090565b600073ffffffffffffffffffffffffffffffffffffffff168373ffffffffffffffffffffffffffffffffffffffff161415610915576040517f08c379a000000000000000000000000000000000000000000000000000000000815260040161090c906114ff565b60405180910390fd5b600073ffffffffffffffffffffffffffffffffffffffff168273ffffffffffffffffffffffffffffffffffffffff161415610985576040517f08c379a000000000000000000000000000000000000000000000000000000000815260040161097c9061145f565b60405180910390fd5b80600560008573ffffffffffffffffffffffffffffffffffffffff1673ffffffffffffffffffffffffffffffffffffffff16815260200190815260200160002060008473ffffffffffffffffffffffffffffffffffffffff1673ffffffffffffffffffffffffffffffffffffffff168152602001908152602001600020819055508173ffffffffffffffffffffffffffffffffffffffff168373ffffffffffffffffffffffffffffffffffffffff167f8c5be1e5ebec7d5bd14f71427d1e84f3dd0314c0f7b2291e5b200ac8c7c3b92583604051610a63919061153f565b60405180910390a3505050565b610a7a8282610e1f565b5050565b610a888282610e23565b5050565b6000610a9884846107c0565b90507fffffffffffffffffffffffffffffffffffffffffffffffffffffffffffffffff8114610b125781811015610b04576040517f08c379a0000000000000000000000000000000000000000000000000000000008152600401610afb9061149f565b60405180910390fd5b610b1184848484036108a5565b5b50505050565b600073ffffffffffffffffffffffffffffffffffffffff168373ffffffffffffffffffffffffffffffffffffffff161415610b88576040517f08c379a0000000000000000000000000000000000000000000000000000000008152600401610b7f906114df565b60405180910390fd5b600073ffffffffffffffffffffffffffffffffffffffff168273ffffffffffffffffffffffffffffffffffffffff161415610bf8576040517f08c379a0000000000000000000000000000000000000000000000000000000008152600401610bef9061143f565b60405180910390fd5b6000600460008573ffffffffffffffffffffffffffffffffffffffff1673ffffffffffffffffffffffffffffffffffffffff16815260200190815260200160002054905081811015610c7f576040517f08c379a0000000000000000000000000000000000000000000000000000000008152600401610c76906114bf565b60405180910390fd5b818103600460008673ffffffffffffffffffffffffffffffffffffffff1673ffffffffffffffffffffffffffffffffffffffff1681526020019081526020016000208190555081600460008573ffffffffffffffffffffffffffffffffffffffff1673ffffffffffffffffffffffffffffffffffffffff1681526020019081526020016000206000828254610d1491906115e7565b925050819055508273ffffffffffffffffffffffffffffffffffffffff168473ffffffffffffffffffffffffffffffffffffffff167fddf252ad1be2c89b69c2b068fc378daa952ba7f163c4a11628f55a4df523b3ef84604051610d78919061153f565b60405180910390a350505050565b606090565b60008160ff1614610dd1576040517f08c379a0000000000000000000000000000000000000000000000000000000008152600401610dc89061147f565b60405180910390fd5b8260009080519060200190610de7929190610e27565b508160019080519060200190610dfe929190610e27565b5080600260006101000a81548160ff021916908360ff160217905550505050565b5050565b5050565b828054610e33906116d4565b90600052602060002090601f016020900481019282610e555760008555610e9c565b82601f10610e6e57805160ff1916838001178555610e9c565b82800160010185558215610e9c579182015b82811115610e9b578251825591602001919060010190610e80565b5b509050610ea99190610ead565b5090565b5b80821115610ec6576000816000905550600101610eae565b5090565b6000610edd610ed88461159a565b611575565b905082815260208101848484011115610ef557600080fd5b610f00848285611692565b509392505050565b600081359050610f1781611a01565b92915050565b600082601f830112610f2e57600080fd5b8135610f3e848260208601610eca565b91505092915050565b600081359050610f5681611a18565b92915050565b600081359050610f6b81611a2f565b92915050565b600060208284031215610f8357600080fd5b6000610f9184828501610f08565b91505092915050565b60008060408385031215610fad57600080fd5b6000610fbb85828601610f08565b9250506020610fcc85828601610f08565b9150509250929050565b600080600060608486031215610feb57600080fd5b6000610ff986828701610f08565b935050602061100a86828701610f08565b925050604061101b86828701610f47565b9150509250925092565b6000806040838503121561103857600080fd5b600061104685828601610f08565b925050602061105785828601610f47565b9150509250929050565b6000806040838503121561107457600080fd5b600083013567ffffffffffffffff81111561108e57600080fd5b61109a85828601610f1d565b92505060206110ab85828601610f47565b9150509250929050565b600080600080608085870312156110cb57600080fd5b600085013567ffffffffffffffff8111156110e557600080fd5b6110f187828801610f1d565b945050602061110287828801610f47565b935050604085013567ffffffffffffffff81111561111f57600080fd5b61112b87828801610f1d565b925050606085013567ffffffffffffffff81111561114857600080fd5b61115487828801610f1d565b91505092959194509250565b6000806040838503121561117357600080fd5b600083013567ffffffffffffffff81111561118d57600080fd5b61119985828601610f1d565b92505060206111aa85828601610f5c565b9150509250929050565b6111bd8161163d565b82525050565b6111cc8161164f565b82525050565b60006111dd826115cb565b6111e781856115d6565b93506111f78185602086016116a1565b611200816117c4565b840191505092915050565b60006112186023836115d6565b9150611223826117d5565b604082019050919050565b600061123b6022836115d6565b915061124682611824565b604082019050919050565b600061125e601b836115d6565b915061126982611873565b602082019050919050565b6000611281601d836115d6565b915061128c8261189c565b602082019050919050565b60006112a46026836115d6565b91506112af826118c5565b604082019050919050565b60006112c76025836115d6565b91506112d282611914565b604082019050919050565b60006112ea6024836115d6565b91506112f582611963565b604082019050919050565b600061130d6025836115d6565b9150611318826119b2565b604082019050919050565b61132c8161167b565b82525050565b61133b81611685565b82525050565b600060208201905061135660008301846111b4565b92915050565b600060608201905061137160008301866111b4565b818103602083015261138381856111d2565b90506113926040830184611323565b949350505050565b600060a0820190506113af60008301886111b4565b81810360208301526113c181876111d2565b90506113d06040830186611323565b81810360608301526113e281856111d2565b905081810360808301526113f681846111d2565b90509695505050505050565b600060208201905061141760008301846111c3565b92915050565b6000602082019050818103600083015261143781846111d2565b905092915050565b600060208201905081810360008301526114588161120b565b9050919050565b600060208201905081810360008301526114788161122e565b9050919050565b6000602082019050818103600083015261149881611251565b9050919050565b600060208201905081810360008301526114b881611274565b9050919050565b600060208201905081810360008301526114d881611297565b9050919050565b600060208201905081810360008301526114f8816112ba565b9050919050565b60006020820190508181036000830152611518816112dd565b9050919050565b6000602082019050818103600083015261153881611300565b9050919050565b60006020820190506115546000830184611323565b92915050565b600060208201905061156f6000830184611332565b92915050565b600061157f611590565b905061158b8282611706565b919050565b6000604051905090565b600067ffffffffffffffff8211156115b5576115b4611795565b5b6115be826117c4565b9050602081019050919050565b600081519050919050565b600082825260208201905092915050565b60006115f28261167b565b91506115fd8361167b565b9250827fffffffffffffffffffffffffffffffffffffffffffffffffffffffffffffffff0382111561163257611631611737565b5b828201905092915050565b60006116488261165b565b9050919050565b60008115159050919050565b600073ffffffffffffffffffffffffffffffffffffffff82169050919050565b6000819050919050565b600060ff82169050919050565b82818337600083830152505050565b60005b838110156116bf5780820151818401526020810190506116a4565b838111156116ce576000848401525b50505050565b600060028204905060018216806116ec57607f821691505b60208210811415611700576116ff611766565b5b50919050565b61170f826117c4565b810181811067ffffffffffffffff8211171561172e5761172d611795565b5b80604052505050565b7f4e487b7100000000000000000000000000000000000000000000000000000000600052601160045260246000fd5b7f4e487b7100000000000000000000000000000000000000000000000000000000600052602260045260246000fd5b7f4e487b7100000000000000000000000000000000000000000000000000000000600052604160045260246000fd5b6000601f19601f8301169050919050565b7f45524332303a207472616e7366657220746f20746865207a65726f206164647260008201527f6573730000000000000000000000000000000000000000000000000000000000602082015250565b7f45524332303a20617070726f766520746f20746865207a65726f20616464726560008201527f7373000000000000000000000000000000000000000000000000000000000000602082015250565b7f45524332303a20616c726561647920696e697469616c697a65643b0000000000600082015250565b7f45524332303a20696e73756666696369656e7420616c6c6f77616e6365000000600082015250565b7f45524332303a207472616e7366657220616d6f756e742065786365656473206260008201527f616c616e63650000000000000000000000000000000000000000000000000000602082015250565b7f45524332303a207472616e736665722066726f6d20746865207a65726f20616460008201527f6472657373000000000000000000000000000000000000000000000000000000602082015250565b7f45524332303a20617070726f76652066726f6d20746865207a65726f2061646460008201527f7265737300000000000000000000000000000000000000000000000000000000602082015250565b7f45524332303a2064656372656173656420616c6c6f77616e63652062656c6f7760008201527f207a65726f000000000000000000000000000000000000000000000000000000602082015250565b611a0a8161163d565b8114611a1557600080fd5b50565b611a218161167b565b8114611a2c57600080fd5b50565b611a3881611685565b8114611a4357600080fd5b5056fea26469706673582212207a2a8a2a6087cf1cbd4cb355fed29cfae446149897d8902c2eabe0a625f74d1e64736f6c63430008040033",
  "linkReferences": {},
  "deployedLinkReferences": {}
}