{
  "_format": "hh-sol-artifact-1",
  "contractName": "MockNativeERC20",
  "sourceName": "contracts/nativeERC20/MockNativeERC20.sol",
  "abi": [
    {
      "anonymous": false,
      "inputs": [
        {
          "indexed": true,
          "internalType": "address",
          "name": "owner",
          "type": "address"
        },
        {
          "indexed": true,
          "internalType": "address",
          "name": "spender",
          "type": "address"
        },
        {
          "indexed": false,
          "internalType": "uint256",
          "name": "value",
          "type": "uint256"
        }
      ],
      "name": "Approval",
      "type": "event"
    },
    {
      "anonymous": false,
      "inputs": [
        {
          "indexed": true,
          "internalType": "address",
          "name": "from",
          "type": "address"
        },
        {
          "indexed": true,
          "internalType": "address",
          "name": "to",
          "type": "address"
        },
        {
          "indexed": false,
          "internalType": "uint256",
          "name": "value",
          "type": "uint256"
        }
      ],
      "name": "Transfer",
      "type": "event"
    },
    {
      "anonymous": false,
      "inputs": [
        {
          "indexed": false,
          "internalType": "address",
          "name": "sender",
          "type": "address"
        },
        {
          "indexed": false,
          "internalType": "string",
          "name": "recipient",
          "type": "string"
        },
        {
          "indexed": false,
          "internalType": "uint256",
          "name": "amount",
          "type": "uint256"
        },
        {
          "indexed": false,
          "internalType": "string",
          "name": "portID",
          "type": "string"
        },
        {
          "indexed": false,
          "internalType": "string",
          "name": "channelID",
          "type": "string"
        }
      ],
      "name": "__OKCSendNative20ToIbc",
      "type": "event"
    },
    {
      "anonymous": false,
      "inputs": [
        {
          "indexed": false,
          "internalType": "address",
          "name": "sender",
          "type": "address"
        },
        {
          "indexed": false,
          "internalType": "string",
          "name": "recipient",
          "type": "string"
        },
        {
          "indexed": false,
          "internalType": "uint256",
          "name": "amount",
          "type": "uint256"
        }
      ],
      "name": "__OKCSendToWasm",
      "type": "event"
    },
    {
      "inputs": [
        {
          "internalType": "address",
          "name": "owner",
          "type": "address"
        },
        {
          "internalType": "address",
          "name": "spender",
          "type": "address"
        }
      ],
      "name": "allowance",
      "outputs": [
        {
          "internalType": "uint256",
          "name": "",
          "type": "uint256"
        }
      ],
      "stateMutability": "view",
      "type": "function"
    },
    {
      "inputs": [
        {
          "internalType": "address",
          "name": "spender",
          "type": "address"
        },
        {
          "internalType": "uint256",
          "name": "amount",
          "type": "uint256"
        }
      ],
      "name": "approve",
      "outputs": [
        {
          "internalType": "bool",
          "name": "",
          "type": "bool"
        }
      ],
      "stateMutability": "nonpayable",
      "type": "function"
    },
    {
      "inputs": [
        {
          "internalType": "address",
          "name": "account",
          "type": "address"
        }
      ],
      "name": "balanceOf",
      "outputs": [
        {
          "internalType": "uint256",
          "name": "",
          "type": "uint256"
        }
      ],
      "stateMutability": "view",
      "type": "function"
    },
    {
      "inputs": [
        {
          "internalType": "address",
          "name": "addr",
          "type": "address"
        },
        {
          "internalType": "uint256",
          "name": "amount",
          "type": "uint256"
        }
      ],
      "name": "burn_by_okc_module",
      "outputs": [],
      "stateMutability": "nonpayable",
      "type": "function"
    },
    {
      "inputs": [],
      "name": "decimals",
      "outputs": [
        {
          "internalType": "uint8",
          "name": "",
          "type": "uint8"
        }
      ],
      "stateMutability": "view",
      "type": "function"
    },
    {
      "inputs": [
        {
          "internalType": "address",
          "name": "spender",
          "type": "address"
        },
        {
          "internalType": "uint256",
          "name": "subtractedValue",
          "type": "uint256"
        }
      ],
      "name": "decreaseAllowance",
      "outputs": [
        {
          "internalType": "bool",
          "name": "",
          "type": "bool"
        }
      ],
      "stateMutability": "nonpayable",
      "type": "function"
    },
    {
      "inputs": [
        {
          "internalType": "address",
          "name": "spender",
          "type": "address"
        },
        {
          "internalType": "uint256",
          "name": "addedValue",
          "type": "uint256"
        }
      ],
      "name": "increaseAllowance",
      "outputs": [
        {
          "internalType": "bool",
          "name": "",
          "type": "bool"
        }
      ],
      "stateMutability": "nonpayable",
      "type": "function"
    },
    {
      "inputs": [
        {
          "internalType": "string",
          "name": "denom_",
          "type": "string"
        },
        {
          "internalType": "uint8",
          "name": "decimals_",
          "type": "uint8"
        }
      ],
      "name": "initialize",
      "outputs": [],
      "stateMutability": "nonpayable",
      "type": "function"
    },
    {
      "inputs": [
        {
          "internalType": "address",
          "name": "addr",
          "type": "address"
        },
        {
          "internalType": "uint256",
          "name": "amount",
          "type": "uint256"
        }
      ],
      "name": "mint_by_okc_module",
      "outputs": [],
      "stateMutability": "nonpayable",
      "type": "function"
    },
    {
      "inputs": [],
      "name": "moduleAddress",
      "outputs": [
        {
          "internalType": "address",
          "name": "",
          "type": "address"
        }
      ],
      "stateMutability": "view",
      "type": "function"
    },
    {
      "inputs": [],
      "name": "name",
      "outputs": [
        {
          "internalType": "string",
          "name": "",
          "type": "string"
        }
      ],
      "stateMutability": "view",
      "type": "function"
    },
    {
      "inputs": [],
      "name": "native_denom",
      "outputs": [
        {
          "internalType": "string",
          "name": "",
          "type": "string"
        }
      ],
      "stateMutability": "view",
      "type": "function"
    },
    {
      "inputs": [
        {
          "internalType": "string",
          "name": "recipient",
          "type": "string"
        },
        {
          "internalType": "uint256",
          "name": "amount",
          "type": "uint256"
        },
        {
          "internalType": "string",
          "name": "portID",
          "type": "string"
        },
        {
          "internalType": "string",
          "name": "channelID",
          "type": "string"
        }
      ],
      "name": "send_native20_to_ibc",
      "outputs": [],
      "stateMutability": "nonpayable",
      "type": "function"
    },
    {
      "inputs": [
        {
          "internalType": "string",
          "name": "recipient",
          "type": "string"
        },
        {
          "internalType": "uint256",
          "name": "amount",
          "type": "uint256"
        }
      ],
      "name": "send_to_wasm",
      "outputs": [],
      "stateMutability": "nonpayable",
      "type": "function"
    },
    {
      "inputs": [],
      "name": "symbol",
      "outputs": [
        {
          "internalType": "string",
          "name": "",
          "type": "string"
        }
      ],
      "stateMutability": "view",
      "type": "function"
    },
    {
      "inputs": [],
      "name": "totalSupply",
      "outputs": [
        {
          "internalType": "uint256",
          "name": "",
          "type": "uint256"
        }
      ],
      "stateMutability": "view",
      "type": "function"
    },
    {
      "inputs": [
        {
          "internalType": "address",
          "name": "to",
          "type": "address"
        },
        {
          "internalType": "uint256",
          "name": "amount",
          "type": "uint256"
        }
      ],
      "name": "transfer",
      "outputs": [
        {
          "internalType": "bool",
          "name": "",
          "type": "bool"
        }
      ],
      "stateMutability": "nonpayable",
      "type": "function"
    },
    {
      "inputs": [
        {
          "internalType": "address",
          "name": "from",
          "type": "address"
        },
        {
          "internalType": "address",
          "name": "to",
          "type": "address"
        },
        {
          "internalType": "uint256",
          "name": "amount",
          "type": "uint256"
        }
      ],
      "name": "transferFrom",
      "outputs": [
        {
          "internalType": "bool",
          "name": "",
          "type": "bool"
        }
      ],
      "stateMutability": "nonpayable",
      "type": "function"
    }
  ],
  "bytecode": "0x608060405234801561001057600080fd5b50611aea806100206000396000f3fe608060405234801561001057600080fd5b50600436106101165760003560e01c806395d89b41116100a2578063cc1207c011610071578063cc1207c014610309578063dd62ed3e14610325578063e99bccd314610355578063ec4994bf14610371578063ee3666541461038d57610116565b806395d89b411461026f57806399550aa61461028d578063a457c2d7146102a9578063a9059cbb146102d957610116565b806323b872dd116100e957806323b872dd146101a3578063313ce567146101d357806335b2bd2d146101f1578063395093511461020f57806370a082311461023f57610116565b806306fdde031461011b578063095ea7b31461013957806318160ddd14610169578063202865e014610187575b600080fd5b6101236103ab565b6040516101309190611477565b60405180910390f35b610153600480360381019061014e919061105b565b61043d565b604051610160919061145c565b60405180910390f35b610171610459565b60405161017e9190611599565b60405180910390f35b6101a1600480360381019061019c919061109b565b610463565b005b6101bd60048036038101906101b89190611008565b6104ac565b6040516101ca919061145c565b60405180910390f35b6101db6104d4565b6040516101e891906115b4565b60405180910390f35b6101f96104eb565b604051610206919061139b565b60405180910390f35b6102296004803603810190610224919061105b565b610503565b604051610236919061145c565b60405180910390f35b61025960048036038101906102549190610f9b565b6105a6565b6040516102669190611599565b60405180910390f35b6102776105ef565b6040516102849190611477565b60405180910390f35b6102a760048036038101906102a2919061105b565b6105fe565b005b6102c360048036038101906102be919061105b565b610658565b6040516102d0919061145c565b60405180910390f35b6102f360048036038101906102ee919061105b565b61073b565b604051610300919061145c565b60405180910390f35b610323600480360381019061031e91906111b2565b610757565b005b61033f600480360381019061033a9190610fc8565b610766565b60405161034c9190611599565b60405180910390f35b61036f600480360381019061036a919061105b565b6107ed565b005b61038b600480360381019061038691906110f7565b610847565b005b610395610896565b6040516103a29190611477565b60405180910390f35b6060600180546103ba9061172e565b80601f01602080910402602001604051908101604052809291908181526020018280546103e69061172e565b80156104335780601f1061040857610100808354040283529160200191610433565b820191906000526020600020905b81548152906001019060200180831161041657829003601f168201915b5050505050905090565b60008033905061044e8185856108a5565b600191505092915050565b6000600454905090565b61046d3382610a70565b7fbea1a90969532e8f201af81dabb4ba53f6ba923ce55cb10499def675ebc206333383836040516104a0939291906113b6565b60405180910390a15050565b6000803390506104bd858285610a7e565b6104c8858585610b0a565b60019150509392505050565b6000600360009054906101000a900460ff16905090565b73c63cf6c8e1f3df41085e9d8af49584dae1432b4f81565b60008033905061059b818585600660008673ffffffffffffffffffffffffffffffffffffffff1673ffffffffffffffffffffffffffffffffffffffff16815260200190815260200160002060008973ffffffffffffffffffffffffffffffffffffffff1673ffffffffffffffffffffffffffffffffffffffff168152602001908152602001600020546105969190611641565b6108a5565b600191505092915050565b6000600560008373ffffffffffffffffffffffffffffffffffffffff1673ffffffffffffffffffffffffffffffffffffffff168152602001908152602001600020549050919050565b60606105f9610d78565b905090565b73c63cf6c8e1f3df41085e9d8af49584dae1432b4f73ffffffffffffffffffffffffffffffffffffffff163373ffffffffffffffffffffffffffffffffffffffff161461064a57600080fd5b6106548282610a70565b5050565b6000803390506000600660008373ffffffffffffffffffffffffffffffffffffffff1673ffffffffffffffffffffffffffffffffffffffff16815260200190815260200160002060008673ffffffffffffffffffffffffffffffffffffffff1673ffffffffffffffffffffffffffffffffffffffff16815260200190815260200160002054905083811015610722576040517f08c379a000000000000000000000000000000000000000000000000000000000815260040161071990611579565b60405180910390fd5b61072f82868684036108a5565b60019250505092915050565b60008033905061074c818585610b0a565b600191505092915050565b610762828383610d7d565b5050565b6000600660008473ffffffffffffffffffffffffffffffffffffffff1673ffffffffffffffffffffffffffffffffffffffff16815260200190815260200160002060008373ffffffffffffffffffffffffffffffffffffffff1673ffffffffffffffffffffffffffffffffffffffff16815260200190815260200160002054905092915050565b73c63cf6c8e1f3df41085e9d8af49584dae1432b4f73ffffffffffffffffffffffffffffffffffffffff163373ffffffffffffffffffffffffffffffffffffffff161461083957600080fd5b6108438282610e33565b5050565b6108513384610a70565b7f68c3a09ef5bb7687398dbf45b16c3a14f5b92bd79e07e4503109e149e05c4b7533858585856040516108889594939291906113f4565b60405180910390a150505050565b60606108a06105ef565b905090565b600073ffffffffffffffffffffffffffffffffffffffff168373ffffffffffffffffffffffffffffffffffffffff161415610915576040517f08c379a000000000000000000000000000000000000000000000000000000000815260040161090c90611559565b60405180910390fd5b600073ffffffffffffffffffffffffffffffffffffffff168273ffffffffffffffffffffffffffffffffffffffff161415610985576040517f08c379a000000000000000000000000000000000000000000000000000000000815260040161097c906114b9565b60405180910390fd5b80600660008573ffffffffffffffffffffffffffffffffffffffff1673ffffffffffffffffffffffffffffffffffffffff16815260200190815260200160002060008473ffffffffffffffffffffffffffffffffffffffff1673ffffffffffffffffffffffffffffffffffffffff168152602001908152602001600020819055508173ffffffffffffffffffffffffffffffffffffffff168373ffffffffffffffffffffffffffffffffffffffff167f8c5be1e5ebec7d5bd14f71427d1e84f3dd0314c0f7b2291e5b200ac8c7c3b92583604051610a639190611599565b60405180910390a3505050565b610a7a8282610e41565b5050565b6000610a8a8484610766565b90507fffffffffffffffffffffffffffffffffffffffffffffffffffffffffffffffff8114610b045781811015610af6576040517f08c379a0000000000000000000000000000000000000000000000000000000008152600401610aed906114f9565b60405180910390fd5b610b0384848484036108a5565b5b50505050565b600073ffffffffffffffffffffffffffffffffffffffff168373ffffffffffffffffffffffffffffffffffffffff161415610b7a576040517f08c379a0000000000000000000000000000000000000000000000000000000008152600401610b7190611539565b60405180910390fd5b600073ffffffffffffffffffffffffffffffffffffffff168273ffffffffffffffffffffffffffffffffffffffff161415610bea576040517f08c379a0000000000000000000000000000000000000000000000000000000008152600401610be190611499565b60405180910390fd5b6000600560008573ffffffffffffffffffffffffffffffffffffffff1673ffffffffffffffffffffffffffffffffffffffff16815260200190815260200160002054905081811015610c71576040517f08c379a0000000000000000000000000000000000000000000000000000000008152600401610c6890611519565b60405180910390fd5b818103600560008673ffffffffffffffffffffffffffffffffffffffff1673ffffffffffffffffffffffffffffffffffffffff1681526020019081526020016000208190555081600560008573ffffffffffffffffffffffffffffffffffffffff1673ffffffffffffffffffffffffffffffffffffffff1681526020019081526020016000206000828254610d069190611641565b925050819055508273ffffffffffffffffffffffffffffffffffffffff168473ffffffffffffffffffffffffffffffffffffffff167fddf252ad1be2c89b69c2b068fc378daa952ba7f163c4a11628f55a4df523b3ef84604051610d6a9190611599565b60405180910390a350505050565b606090565b60008054906101000a900460ff1615610dcb576040517f08c379a0000000000000000000000000000000000000000000000000000000008152600401610dc2906114d9565b60405180910390fd5b60016000806101000a81548160ff0219169083151502179055508260019080519060200190610dfb929190610e49565b508160029080519060200190610e12929190610e49565b5080600360006101000a81548160ff021916908360ff160217905550505050565b610e3d8282610e45565b5050565b5050565b5050565b828054610e559061172e565b90600052602060002090601f016020900481019282610e775760008555610ebe565b82601f10610e9057805160ff1916838001178555610ebe565b82800160010185558215610ebe579182015b82811115610ebd578251825591602001919060010190610ea2565b5b509050610ecb9190610ecf565b5090565b5b80821115610ee8576000816000905550600101610ed0565b5090565b6000610eff610efa846115f4565b6115cf565b905082815260208101848484011115610f1b57610f1a611823565b5b610f268482856116ec565b509392505050565b600081359050610f3d81611a6f565b92915050565b600082601f830112610f5857610f5761181e565b5b8135610f68848260208601610eec565b91505092915050565b600081359050610f8081611a86565b92915050565b600081359050610f9581611a9d565b92915050565b600060208284031215610fb157610fb061182d565b5b6000610fbf84828501610f2e565b91505092915050565b60008060408385031215610fdf57610fde61182d565b5b6000610fed85828601610f2e565b9250506020610ffe85828601610f2e565b9150509250929050565b6000806000606084860312156110215761102061182d565b5b600061102f86828701610f2e565b935050602061104086828701610f2e565b925050604061105186828701610f71565b9150509250925092565b600080604083850312156110725761107161182d565b5b600061108085828601610f2e565b925050602061109185828601610f71565b9150509250929050565b600080604083850312156110b2576110b161182d565b5b600083013567ffffffffffffffff8111156110d0576110cf611828565b5b6110dc85828601610f43565b92505060206110ed85828601610f71565b9150509250929050565b600080600080608085870312156111115761111061182d565b5b600085013567ffffffffffffffff81111561112f5761112e611828565b5b61113b87828801610f43565b945050602061114c87828801610f71565b935050604085013567ffffffffffffffff81111561116d5761116c611828565b5b61117987828801610f43565b925050606085013567ffffffffffffffff81111561119a57611199611828565b5b6111a687828801610f43565b91505092959194509250565b600080604083850312156111c9576111c861182d565b5b600083013567ffffffffffffffff8111156111e7576111e6611828565b5b6111f385828601610f43565b925050602061120485828601610f86565b9150509250929050565b61121781611697565b82525050565b611226816116a9565b82525050565b600061123782611625565b6112418185611630565b93506112518185602086016116fb565b61125a81611832565b840191505092915050565b6000611272602383611630565b915061127d82611843565b604082019050919050565b6000611295602283611630565b91506112a082611892565b604082019050919050565b60006112b8601b83611630565b91506112c3826118e1565b602082019050919050565b60006112db601d83611630565b91506112e68261190a565b602082019050919050565b60006112fe602683611630565b915061130982611933565b604082019050919050565b6000611321602583611630565b915061132c82611982565b604082019050919050565b6000611344602483611630565b915061134f826119d1565b604082019050919050565b6000611367602583611630565b915061137282611a20565b604082019050919050565b611386816116d5565b82525050565b611395816116df565b82525050565b60006020820190506113b0600083018461120e565b92915050565b60006060820190506113cb600083018661120e565b81810360208301526113dd818561122c565b90506113ec604083018461137d565b949350505050565b600060a082019050611409600083018861120e565b818103602083015261141b818761122c565b905061142a604083018661137d565b818103606083015261143c818561122c565b90508181036080830152611450818461122c565b90509695505050505050565b6000602082019050611471600083018461121d565b92915050565b60006020820190508181036000830152611491818461122c565b905092915050565b600060208201905081810360008301526114b281611265565b9050919050565b600060208201905081810360008301526114d281611288565b9050919050565b600060208201905081810360008301526114f2816112ab565b9050919050565b60006020820190508181036000830152611512816112ce565b9050919050565b60006020820190508181036000830152611532816112f1565b9050919050565b6000602082019050818103600083015261155281611314565b9050919050565b6000602082019050818103600083015261157281611337565b9050919050565b600060208201905081810360008301526115928161135a565b9050919050565b60006020820190506115ae600083018461137d565b92915050565b60006020820190506115c9600083018461138c565b92915050565b60006115d96115ea565b90506115e58282611760565b919050565b6000604051905090565b600067ffffffffffffffff82111561160f5761160e6117ef565b5b61161882611832565b9050602081019050919050565b600081519050919050565b600082825260208201905092915050565b600061164c826116d5565b9150611657836116d5565b9250827fffffffffffffffffffffffffffffffffffffffffffffffffffffffffffffffff0382111561168c5761168b611791565b5b828201905092915050565b60006116a2826116b5565b9050919050565b60008115159050919050565b600073ffffffffffffffffffffffffffffffffffffffff82169050919050565b6000819050919050565b600060ff82169050919050565b82818337600083830152505050565b60005b838110156117195780820151818401526020810190506116fe565b83811115611728576000848401525b50505050565b6000600282049050600182168061174657607f821691505b6020821081141561175a576117596117c0565b5b50919050565b61176982611832565b810181811067ffffffffffffffff82111715611788576117876117ef565b5b80604052505050565b7f4e487b7100000000000000000000000000000000000000000000000000000000600052601160045260246000fd5b7f4e487b7100000000000000000000000000000000000000000000000000000000600052602260045260246000fd5b7f4e487b7100000000000000000000000000000000000000000000000000000000600052604160045260246000fd5b600080fd5b600080fd5b600080fd5b600080fd5b6000601f19601f8301169050919050565b7f45524332303a207472616e7366657220746f20746865207a65726f206164647260008201527f6573730000000000000000000000000000000000000000000000000000000000602082015250565b7f45524332303a20617070726f766520746f20746865207a65726f20616464726560008201527f7373000000000000000000000000000000000000000000000000000000000000602082015250565b7f45524332303a20616c726561647920696e697469616c697a65643b0000000000600082015250565b7f45524332303a20696e73756666696369656e7420616c6c6f77616e6365000000600082015250565b7f45524332303a207472616e7366657220616d6f756e742065786365656473206260008201527f616c616e63650000000000000000000000000000000000000000000000000000602082015250565b7f45524332303a207472616e736665722066726f6d20746865207a65726f20616460008201527f6472657373000000000000000000000000000000000000000000000000000000602082015250565b7f45524332303a20617070726f76652066726f6d20746865207a65726f2061646460008201527f7265737300000000000000000000000000000000000000000000000000000000602082015250565b7f45524332303a2064656372656173656420616c6c6f77616e63652062656c6f7760008201527f207a65726f000000000000000000000000000000000000000000000000000000602082015250565b611a7881611697565b8114611a8357600080fd5b50565b611a8f816116d5565b8114611a9a57600080fd5b50565b611aa6816116df565b8114611ab157600080fd5b5056fea26469706673582212208317719b0237a60b4aa47cb94edd03e75918f21406a5d21a91f3519a754c73cb64736f6c63430008070033",
  "linkReferences": {},
  "deployedLinkReferences": {}
}