{
  "_format": "hh-sol-artifact-1",
  "contractName": "ModuleERC20",
  "sourceName": "contracts/MoudleERC20.sol",
  "abi": [
    {
      "anonymous": false,
      "inputs": [
        {
          "indexed": true,
          "internalType": "address",
          "name": "owner",
          "type": "address"
        },
        {
          "indexed": true,
          "internalType": "address",
          "name": "spender",
          "type": "address"
        },
        {
          "indexed": false,
          "internalType": "uint256",
          "name": "value",
          "type": "uint256"
        }
      ],
      "name": "Approval",
      "type": "event"
    },
    {
      "anonymous": false,
      "inputs": [
        {
          "indexed": true,
          "internalType": "address",
          "name": "from",
          "type": "address"
        },
        {
          "indexed": true,
          "internalType": "address",
          "name": "to",
          "type": "address"
        },
        {
          "indexed": false,
          "internalType": "uint256",
          "name": "value",
          "type": "uint256"
        }
      ],
      "name": "Transfer",
      "type": "event"
    },
    {
      "anonymous": false,
      "inputs": [
        {
          "indexed": false,
          "internalType": "address",
          "name": "sender",
          "type": "address"
        },
        {
          "indexed": false,
          "internalType": "string",
          "name": "recipient",
          "type": "string"
        },
        {
          "indexed": false,
          "internalType": "uint256",
          "name": "amount",
          "type": "uint256"
        }
      ],
      "name": "__OecSendToIbc",
      "type": "event"
    },
    {
      "anonymous": false,
      "inputs": [
        {
          "indexed": false,
          "internalType": "address",
          "name": "sender",
          "type": "address"
        },
        {
          "indexed": false,
          "internalType": "string",
          "name": "recipient",
          "type": "string"
        },
        {
          "indexed": false,
          "internalType": "uint256",
          "name": "amount",
          "type": "uint256"
        }
      ],
      "name": "__OecSendToWasm",
      "type": "event"
    },
    {
      "inputs": [
        {
          "internalType": "address",
          "name": "owner",
          "type": "address"
        },
        {
          "internalType": "address",
          "name": "spender",
          "type": "address"
        }
      ],
      "name": "allowance",
      "outputs": [
        {
          "internalType": "uint256",
          "name": "",
          "type": "uint256"
        }
      ],
      "stateMutability": "view",
      "type": "function"
    },
    {
      "inputs": [
        {
          "internalType": "address",
          "name": "spender",
          "type": "address"
        },
        {
          "internalType": "uint256",
          "name": "amount",
          "type": "uint256"
        }
      ],
      "name": "approve",
      "outputs": [
        {
          "internalType": "bool",
          "name": "",
          "type": "bool"
        }
      ],
      "stateMutability": "nonpayable",
      "type": "function"
    },
    {
      "inputs": [
        {
          "internalType": "address",
          "name": "account",
          "type": "address"
        }
      ],
      "name": "balanceOf",
      "outputs": [
        {
          "internalType": "uint256",
          "name": "",
          "type": "uint256"
        }
      ],
      "stateMutability": "view",
      "type": "function"
    },
    {
      "inputs": [
        {
          "internalType": "address",
          "name": "addr",
          "type": "address"
        },
        {
          "internalType": "uint256",
          "name": "amount",
          "type": "uint256"
        }
      ],
      "name": "burn_by_oec_module",
      "outputs": [],
      "stateMutability": "nonpayable",
      "type": "function"
    },
    {
      "inputs": [],
      "name": "decimals",
      "outputs": [
        {
          "internalType": "uint8",
          "name": "",
          "type": "uint8"
        }
      ],
      "stateMutability": "view",
      "type": "function"
    },
    {
      "inputs": [
        {
          "internalType": "address",
          "name": "spender",
          "type": "address"
        },
        {
          "internalType": "uint256",
          "name": "subtractedValue",
          "type": "uint256"
        }
      ],
      "name": "decreaseAllowance",
      "outputs": [
        {
          "internalType": "bool",
          "name": "",
          "type": "bool"
        }
      ],
      "stateMutability": "nonpayable",
      "type": "function"
    },
    {
      "inputs": [
        {
          "internalType": "address",
          "name": "spender",
          "type": "address"
        },
        {
          "internalType": "uint256",
          "name": "addedValue",
          "type": "uint256"
        }
      ],
      "name": "increaseAllowance",
      "outputs": [
        {
          "internalType": "bool",
          "name": "",
          "type": "bool"
        }
      ],
      "stateMutability": "nonpayable",
      "type": "function"
    },
    {
      "inputs": [
        {
          "internalType": "string",
          "name": "denom_",
          "type": "string"
        },
        {
          "internalType": "uint8",
          "name": "decimals_",
          "type": "uint8"
        }
      ],
      "name": "initialize",
      "outputs": [],
      "stateMutability": "nonpayable",
      "type": "function"
    },
    {
      "inputs": [
        {
          "internalType": "address",
          "name": "addr",
          "type": "address"
        },
        {
          "internalType": "uint256",
          "name": "amount",
          "type": "uint256"
        }
      ],
      "name": "mint_by_oec_module",
      "outputs": [],
      "stateMutability": "nonpayable",
      "type": "function"
    },
    {
      "inputs": [],
      "name": "moduleAddress",
      "outputs": [
        {
          "internalType": "address",
          "name": "",
          "type": "address"
        }
      ],
      "stateMutability": "view",
      "type": "function"
    },
    {
      "inputs": [],
      "name": "name",
      "outputs": [
        {
          "internalType": "string",
          "name": "",
          "type": "string"
        }
      ],
      "stateMutability": "view",
      "type": "function"
    },
    {
      "inputs": [],
      "name": "native_denom",
      "outputs": [
        {
          "internalType": "string",
          "name": "",
          "type": "string"
        }
      ],
      "stateMutability": "view",
      "type": "function"
    },
    {
      "inputs": [
        {
          "internalType": "string",
          "name": "recipient",
          "type": "string"
        },
        {
          "internalType": "uint256",
          "name": "amount",
          "type": "uint256"
        }
      ],
      "name": "send_to_ibc",
      "outputs": [],
      "stateMutability": "nonpayable",
      "type": "function"
    },
    {
      "inputs": [
        {
          "internalType": "string",
          "name": "recipient",
          "type": "string"
        },
        {
          "internalType": "uint256",
          "name": "amount",
          "type": "uint256"
        }
      ],
      "name": "send_to_wasm",
      "outputs": [],
      "stateMutability": "nonpayable",
      "type": "function"
    },
    {
      "inputs": [],
      "name": "symbol",
      "outputs": [
        {
          "internalType": "string",
          "name": "",
          "type": "string"
        }
      ],
      "stateMutability": "view",
      "type": "function"
    },
    {
      "inputs": [],
      "name": "totalSupply",
      "outputs": [
        {
          "internalType": "uint256",
          "name": "",
          "type": "uint256"
        }
      ],
      "stateMutability": "view",
      "type": "function"
    },
    {
      "inputs": [
        {
          "internalType": "address",
          "name": "to",
          "type": "address"
        },
        {
          "internalType": "uint256",
          "name": "amount",
          "type": "uint256"
        }
      ],
      "name": "transfer",
      "outputs": [
        {
          "internalType": "bool",
          "name": "",
          "type": "bool"
        }
      ],
      "stateMutability": "nonpayable",
      "type": "function"
    },
    {
      "inputs": [
        {
          "internalType": "address",
          "name": "from",
          "type": "address"
        },
        {
          "internalType": "address",
          "name": "to",
          "type": "address"
        },
        {
          "internalType": "uint256",
          "name": "amount",
          "type": "uint256"
        }
      ],
      "name": "transferFrom",
      "outputs": [
        {
          "internalType": "bool",
          "name": "",
          "type": "bool"
        }
      ],
      "stateMutability": "nonpayable",
      "type": "function"
    }
  ],
  "bytecode": "0x608060405234801561001057600080fd5b50611e8b806100206000396000f3fe608060405234801561001057600080fd5b50600436106101165760003560e01c806339509351116100a2578063a515cb4011610071578063a515cb40146102f5578063a9059cbb14610311578063cc1207c014610341578063dd62ed3e1461035d578063ee3666541461038d57610116565b8063395093511461024757806370a082311461027757806395d89b41146102a7578063a457c2d7146102c557610116565b8063202865e0116100e9578063202865e0146101a357806320ac86af146101bf57806323b872dd146101db578063313ce5671461020b57806335b2bd2d1461022957610116565b806306fdde031461011b578063095ea7b314610139578063141fba4c1461016957806318160ddd14610185575b600080fd5b6101236103ab565b60405161013091906116d1565b60405180910390f35b610153600480360381019061014e9190611383565b61043d565b60405161016091906116b6565b60405180910390f35b610183600480360381019061017e9190611383565b610459565b005b61018d6104b3565b60405161019a9190611853565b60405180910390f35b6101bd60048036038101906101b891906113bf565b6104bd565b005b6101d960048036038101906101d49190611383565b610506565b005b6101f560048036038101906101f09190611334565b610560565b60405161020291906116b6565b60405180910390f35b610213610588565b604051610220919061186e565b60405180910390f35b61023161059f565b60405161023e919061165d565b60405180910390f35b610261600480360381019061025c9190611383565b6105b7565b60405161026e91906116b6565b60405180910390f35b610291600480360381019061028c91906112cf565b61065a565b60405161029e9190611853565b60405180910390f35b6102af6106a3565b6040516102bc91906116d1565b60405180910390f35b6102df60048036038101906102da9190611383565b610735565b6040516102ec91906116b6565b60405180910390f35b61030f600480360381019061030a91906113bf565b610818565b005b61032b60048036038101906103269190611383565b610861565b60405161033891906116b6565b60405180910390f35b61035b60048036038101906103569190611413565b61087d565b005b610377600480360381019061037291906112f8565b61088c565b6040516103849190611853565b60405180910390f35b610395610913565b6040516103a291906116d1565b60405180910390f35b6060600080546103ba90611a1c565b80601f01602080910402602001604051908101604052809291908181526020018280546103e690611a1c565b80156104335780601f1061040857610100808354040283529160200191610433565b820191906000526020600020905b81548152906001019060200180831161041657829003601f168201915b5050505050905090565b60008033905061044e818585610922565b600191505092915050565b73c63cf6c8e1f3df41085e9d8af49584dae1432b4f73ffffffffffffffffffffffffffffffffffffffff163373ffffffffffffffffffffffffffffffffffffffff16146104a557600080fd5b6104af8282610aed565b5050565b6000600354905090565b6104c73382610c36565b7f165b3d8d9d365e35202a862156f9616fece19885cff97968fa2ebd4490d51a2b3383836040516104fa93929190611678565b60405180910390a15050565b73c63cf6c8e1f3df41085e9d8af49584dae1432b4f73ffffffffffffffffffffffffffffffffffffffff163373ffffffffffffffffffffffffffffffffffffffff161461055257600080fd5b61055c8282610c36565b5050565b600080339050610571858285610df7565b61057c858585610e83565b60019150509392505050565b6000600260009054906101000a900460ff16905090565b73c63cf6c8e1f3df41085e9d8af49584dae1432b4f81565b60008033905061064f818585600560008673ffffffffffffffffffffffffffffffffffffffff1673ffffffffffffffffffffffffffffffffffffffff16815260200190815260200160002060008973ffffffffffffffffffffffffffffffffffffffff1673ffffffffffffffffffffffffffffffffffffffff1681526020019081526020016000205461064a91906118fb565b610922565b600191505092915050565b6000600460008373ffffffffffffffffffffffffffffffffffffffff1673ffffffffffffffffffffffffffffffffffffffff168152602001908152602001600020549050919050565b6060600180546106b290611a1c565b80601f01602080910402602001604051908101604052809291908181526020018280546106de90611a1c565b801561072b5780601f106107005761010080835404028352916020019161072b565b820191906000526020600020905b81548152906001019060200180831161070e57829003601f168201915b5050505050905090565b6000803390506000600560008373ffffffffffffffffffffffffffffffffffffffff1673ffffffffffffffffffffffffffffffffffffffff16815260200190815260200160002060008673ffffffffffffffffffffffffffffffffffffffff1673ffffffffffffffffffffffffffffffffffffffff168152602001908152602001600020549050838110156107ff576040517f08c379a00000000000000000000000000000000000000000000000000000000081526004016107f690611813565b60405180910390fd5b61080c8286868403610922565b60019250505092915050565b6108223382610c36565b7f89d09f8672066de64561c44e0b82c3ead3aad885e9caf1b3135a52146d7a488a33838360405161085593929190611678565b60405180910390a15050565b600080339050610872818585610e83565b600191505092915050565b6108888283836110f1565b5050565b6000600560008473ffffffffffffffffffffffffffffffffffffffff1673ffffffffffffffffffffffffffffffffffffffff16815260200190815260200160002060008373ffffffffffffffffffffffffffffffffffffffff1673ffffffffffffffffffffffffffffffffffffffff16815260200190815260200160002054905092915050565b606061091d6106a3565b905090565b600073ffffffffffffffffffffffffffffffffffffffff168373ffffffffffffffffffffffffffffffffffffffff161415610992576040517f08c379a0000000000000000000000000000000000000000000000000000000008152600401610989906117f3565b60405180910390fd5b600073ffffffffffffffffffffffffffffffffffffffff168273ffffffffffffffffffffffffffffffffffffffff161415610a02576040517f08c379a00000000000000000000000000000000000000000000000000000000081526004016109f990611733565b60405180910390fd5b80600560008573ffffffffffffffffffffffffffffffffffffffff1673ffffffffffffffffffffffffffffffffffffffff16815260200190815260200160002060008473ffffffffffffffffffffffffffffffffffffffff1673ffffffffffffffffffffffffffffffffffffffff168152602001908152602001600020819055508173ffffffffffffffffffffffffffffffffffffffff168373ffffffffffffffffffffffffffffffffffffffff167f8c5be1e5ebec7d5bd14f71427d1e84f3dd0314c0f7b2291e5b200ac8c7c3b92583604051610ae09190611853565b60405180910390a3505050565b600073ffffffffffffffffffffffffffffffffffffffff168273ffffffffffffffffffffffffffffffffffffffff161415610b5d576040517f08c379a0000000000000000000000000000000000000000000000000000000008152600401610b5490611833565b60405180910390fd5b8060036000828254610b6f91906118fb565b9250508190555080600460008473ffffffffffffffffffffffffffffffffffffffff1673ffffffffffffffffffffffffffffffffffffffff1681526020019081526020016000206000828254610bc591906118fb565b925050819055508173ffffffffffffffffffffffffffffffffffffffff16600073ffffffffffffffffffffffffffffffffffffffff167fddf252ad1be2c89b69c2b068fc378daa952ba7f163c4a11628f55a4df523b3ef83604051610c2a9190611853565b60405180910390a35050565b600073ffffffffffffffffffffffffffffffffffffffff168273ffffffffffffffffffffffffffffffffffffffff161415610ca6576040517f08c379a0000000000000000000000000000000000000000000000000000000008152600401610c9d906117b3565b60405180910390fd5b6000600460008473ffffffffffffffffffffffffffffffffffffffff1673ffffffffffffffffffffffffffffffffffffffff16815260200190815260200160002054905081811015610d2d576040517f08c379a0000000000000000000000000000000000000000000000000000000008152600401610d2490611713565b60405180910390fd5b818103600460008573ffffffffffffffffffffffffffffffffffffffff1673ffffffffffffffffffffffffffffffffffffffff168152602001908152602001600020819055508160036000828254610d859190611951565b92505081905550600073ffffffffffffffffffffffffffffffffffffffff168373ffffffffffffffffffffffffffffffffffffffff167fddf252ad1be2c89b69c2b068fc378daa952ba7f163c4a11628f55a4df523b3ef84604051610dea9190611853565b60405180910390a3505050565b6000610e03848461088c565b90507fffffffffffffffffffffffffffffffffffffffffffffffffffffffffffffffff8114610e7d5781811015610e6f576040517f08c379a0000000000000000000000000000000000000000000000000000000008152600401610e6690611773565b60405180910390fd5b610e7c8484848403610922565b5b50505050565b600073ffffffffffffffffffffffffffffffffffffffff168373ffffffffffffffffffffffffffffffffffffffff161415610ef3576040517f08c379a0000000000000000000000000000000000000000000000000000000008152600401610eea906117d3565b60405180910390fd5b600073ffffffffffffffffffffffffffffffffffffffff168273ffffffffffffffffffffffffffffffffffffffff161415610f63576040517f08c379a0000000000000000000000000000000000000000000000000000000008152600401610f5a906116f3565b60405180910390fd5b6000600460008573ffffffffffffffffffffffffffffffffffffffff1673ffffffffffffffffffffffffffffffffffffffff16815260200190815260200160002054905081811015610fea576040517f08c379a0000000000000000000000000000000000000000000000000000000008152600401610fe190611793565b60405180910390fd5b818103600460008673ffffffffffffffffffffffffffffffffffffffff1673ffffffffffffffffffffffffffffffffffffffff1681526020019081526020016000208190555081600460008573ffffffffffffffffffffffffffffffffffffffff1673ffffffffffffffffffffffffffffffffffffffff168152602001908152602001600020600082825461107f91906118fb565b925050819055508273ffffffffffffffffffffffffffffffffffffffff168473ffffffffffffffffffffffffffffffffffffffff167fddf252ad1be2c89b69c2b068fc378daa952ba7f163c4a11628f55a4df523b3ef846040516110e39190611853565b60405180910390a350505050565b60008160ff1614611137576040517f08c379a000000000000000000000000000000000000000000000000000000000815260040161112e90611753565b60405180910390fd5b826000908051906020019061114d929190611185565b508160019080519060200190611164929190611185565b5080600260006101000a81548160ff021916908360ff160217905550505050565b82805461119190611a1c565b90600052602060002090601f0160209004810192826111b357600085556111fa565b82601f106111cc57805160ff19168380011785556111fa565b828001600101855582156111fa579182015b828111156111f95782518255916020019190600101906111de565b5b509050611207919061120b565b5090565b5b8082111561122457600081600090555060010161120c565b5090565b600061123b611236846118ae565b611889565b90508281526020810184848401111561125357600080fd5b61125e8482856119da565b509392505050565b60008135905061127581611e10565b92915050565b600082601f83011261128c57600080fd5b813561129c848260208601611228565b91505092915050565b6000813590506112b481611e27565b92915050565b6000813590506112c981611e3e565b92915050565b6000602082840312156112e157600080fd5b60006112ef84828501611266565b91505092915050565b6000806040838503121561130b57600080fd5b600061131985828601611266565b925050602061132a85828601611266565b9150509250929050565b60008060006060848603121561134957600080fd5b600061135786828701611266565b935050602061136886828701611266565b9250506040611379868287016112a5565b9150509250925092565b6000806040838503121561139657600080fd5b60006113a485828601611266565b92505060206113b5858286016112a5565b9150509250929050565b600080604083850312156113d257600080fd5b600083013567ffffffffffffffff8111156113ec57600080fd5b6113f88582860161127b565b9250506020611409858286016112a5565b9150509250929050565b6000806040838503121561142657600080fd5b600083013567ffffffffffffffff81111561144057600080fd5b61144c8582860161127b565b925050602061145d858286016112ba565b9150509250929050565b61147081611985565b82525050565b61147f81611997565b82525050565b6000611490826118df565b61149a81856118ea565b93506114aa8185602086016119e9565b6114b381611b0c565b840191505092915050565b60006114cb6023836118ea565b91506114d682611b1d565b604082019050919050565b60006114ee6022836118ea565b91506114f982611b6c565b604082019050919050565b60006115116022836118ea565b915061151c82611bbb565b604082019050919050565b6000611534601b836118ea565b915061153f82611c0a565b602082019050919050565b6000611557601d836118ea565b915061156282611c33565b602082019050919050565b600061157a6026836118ea565b915061158582611c5c565b604082019050919050565b600061159d6021836118ea565b91506115a882611cab565b604082019050919050565b60006115c06025836118ea565b91506115cb82611cfa565b604082019050919050565b60006115e36024836118ea565b91506115ee82611d49565b604082019050919050565b60006116066025836118ea565b915061161182611d98565b604082019050919050565b6000611629601f836118ea565b915061163482611de7565b602082019050919050565b611648816119c3565b82525050565b611657816119cd565b82525050565b60006020820190506116726000830184611467565b92915050565b600060608201905061168d6000830186611467565b818103602083015261169f8185611485565b90506116ae604083018461163f565b949350505050565b60006020820190506116cb6000830184611476565b92915050565b600060208201905081810360008301526116eb8184611485565b905092915050565b6000602082019050818103600083015261170c816114be565b9050919050565b6000602082019050818103600083015261172c816114e1565b9050919050565b6000602082019050818103600083015261174c81611504565b9050919050565b6000602082019050818103600083015261176c81611527565b9050919050565b6000602082019050818103600083015261178c8161154a565b9050919050565b600060208201905081810360008301526117ac8161156d565b9050919050565b600060208201905081810360008301526117cc81611590565b9050919050565b600060208201905081810360008301526117ec816115b3565b9050919050565b6000602082019050818103600083015261180c816115d6565b9050919050565b6000602082019050818103600083015261182c816115f9565b9050919050565b6000602082019050818103600083015261184c8161161c565b9050919050565b6000602082019050611868600083018461163f565b92915050565b6000602082019050611883600083018461164e565b92915050565b60006118936118a4565b905061189f8282611a4e565b919050565b6000604051905090565b600067ffffffffffffffff8211156118c9576118c8611add565b5b6118d282611b0c565b9050602081019050919050565b600081519050919050565b600082825260208201905092915050565b6000611906826119c3565b9150611911836119c3565b9250827fffffffffffffffffffffffffffffffffffffffffffffffffffffffffffffffff0382111561194657611945611a7f565b5b828201905092915050565b600061195c826119c3565b9150611967836119c3565b92508282101561197a57611979611a7f565b5b828203905092915050565b6000611990826119a3565b9050919050565b60008115159050919050565b600073ffffffffffffffffffffffffffffffffffffffff82169050919050565b6000819050919050565b600060ff82169050919050565b82818337600083830152505050565b60005b83811015611a075780820151818401526020810190506119ec565b83811115611a16576000848401525b50505050565b60006002820490506001821680611a3457607f821691505b60208210811415611a4857611a47611aae565b5b50919050565b611a5782611b0c565b810181811067ffffffffffffffff82111715611a7657611a75611add565b5b80604052505050565b7f4e487b7100000000000000000000000000000000000000000000000000000000600052601160045260246000fd5b7f4e487b7100000000000000000000000000000000000000000000000000000000600052602260045260246000fd5b7f4e487b7100000000000000000000000000000000000000000000000000000000600052604160045260246000fd5b6000601f19601f8301169050919050565b7f45524332303a207472616e7366657220746f20746865207a65726f206164647260008201527f6573730000000000000000000000000000000000000000000000000000000000602082015250565b7f45524332303a206275726e20616d6f756e7420657863656564732062616c616e60008201527f6365000000000000000000000000000000000000000000000000000000000000602082015250565b7f45524332303a20617070726f766520746f20746865207a65726f20616464726560008201527f7373000000000000000000000000000000000000000000000000000000000000602082015250565b7f45524332303a20616c726561647920696e697469616c697a65643b0000000000600082015250565b7f45524332303a20696e73756666696369656e7420616c6c6f77616e6365000000600082015250565b7f45524332303a207472616e7366657220616d6f756e742065786365656473206260008201527f616c616e63650000000000000000000000000000000000000000000000000000602082015250565b7f45524332303a206275726e2066726f6d20746865207a65726f2061646472657360008201527f7300000000000000000000000000000000000000000000000000000000000000602082015250565b7f45524332303a207472616e736665722066726f6d20746865207a65726f20616460008201527f6472657373000000000000000000000000000000000000000000000000000000602082015250565b7f45524332303a20617070726f76652066726f6d20746865207a65726f2061646460008201527f7265737300000000000000000000000000000000000000000000000000000000602082015250565b7f45524332303a2064656372656173656420616c6c6f77616e63652062656c6f7760008201527f207a65726f000000000000000000000000000000000000000000000000000000602082015250565b7f45524332303a206d696e7420746f20746865207a65726f206164647265737300600082015250565b611e1981611985565b8114611e2457600080fd5b50565b611e30816119c3565b8114611e3b57600080fd5b50565b611e47816119cd565b8114611e5257600080fd5b5056fea26469706673582212204acd7f5b6e445b4c7c934b21dcda9c525e1cf15a3f6ff74de14815b20689959c64736f6c63430008040033",
  "linkReferences": {},
  "deployedLinkReferences": {}
}