{
  "_format": "hh-sol-artifact-1",
  "contractName": "ModuleERC20",
  "sourceName": "contracts/ModuleERC20.sol",
  "abi": [
    {
      "anonymous": false,
      "inputs": [
        {
          "indexed": true,
          "internalType": "address",
          "name": "owner",
          "type": "address"
        },
        {
          "indexed": true,
          "internalType": "address",
          "name": "spender",
          "type": "address"
        },
        {
          "indexed": false,
          "internalType": "uint256",
          "name": "value",
          "type": "uint256"
        }
      ],
      "name": "Approval",
      "type": "event"
    },
    {
      "anonymous": false,
      "inputs": [
        {
          "indexed": true,
          "internalType": "address",
          "name": "from",
          "type": "address"
        },
        {
          "indexed": true,
          "internalType": "address",
          "name": "to",
          "type": "address"
        },
        {
          "indexed": false,
          "internalType": "uint256",
          "name": "value",
          "type": "uint256"
        }
      ],
      "name": "Transfer",
      "type": "event"
    },
    {
      "anonymous": false,
      "inputs": [
        {
          "indexed": false,
          "internalType": "address",
          "name": "sender",
          "type": "address"
        },
        {
          "indexed": false,
          "internalType": "string",
          "name": "recipient",
          "type": "string"
        },
        {
          "indexed": false,
          "internalType": "uint256",
          "name": "amount",
          "type": "uint256"
        }
      ],
      "name": "__OKCSendToIbc",
      "type": "event"
    },
    {
      "anonymous": false,
      "inputs": [
        {
          "indexed": false,
          "internalType": "address",
          "name": "sender",
          "type": "address"
        },
        {
          "indexed": false,
          "internalType": "string",
          "name": "recipient",
          "type": "string"
        },
        {
          "indexed": false,
          "internalType": "uint256",
          "name": "amount",
          "type": "uint256"
        }
      ],
      "name": "__OKCSendToWasm",
      "type": "event"
    },
    {
      "inputs": [
        {
          "internalType": "address",
          "name": "owner",
          "type": "address"
        },
        {
          "internalType": "address",
          "name": "spender",
          "type": "address"
        }
      ],
      "name": "allowance",
      "outputs": [
        {
          "internalType": "uint256",
          "name": "",
          "type": "uint256"
        }
      ],
      "stateMutability": "view",
      "type": "function"
    },
    {
      "inputs": [
        {
          "internalType": "address",
          "name": "spender",
          "type": "address"
        },
        {
          "internalType": "uint256",
          "name": "amount",
          "type": "uint256"
        }
      ],
      "name": "approve",
      "outputs": [
        {
          "internalType": "bool",
          "name": "",
          "type": "bool"
        }
      ],
      "stateMutability": "nonpayable",
      "type": "function"
    },
    {
      "inputs": [
        {
          "internalType": "address",
          "name": "account",
          "type": "address"
        }
      ],
      "name": "balanceOf",
      "outputs": [
        {
          "internalType": "uint256",
          "name": "",
          "type": "uint256"
        }
      ],
      "stateMutability": "view",
      "type": "function"
    },
    {
      "inputs": [
        {
          "internalType": "address",
          "name": "addr",
          "type": "address"
        },
        {
          "internalType": "uint256",
          "name": "amount",
          "type": "uint256"
        }
      ],
      "name": "burn_by_okc_module",
      "outputs": [],
      "stateMutability": "nonpayable",
      "type": "function"
    },
    {
      "inputs": [],
      "name": "decimals",
      "outputs": [
        {
          "internalType": "uint8",
          "name": "",
          "type": "uint8"
        }
      ],
      "stateMutability": "view",
      "type": "function"
    },
    {
      "inputs": [
        {
          "internalType": "address",
          "name": "spender",
          "type": "address"
        },
        {
          "internalType": "uint256",
          "name": "subtractedValue",
          "type": "uint256"
        }
      ],
      "name": "decreaseAllowance",
      "outputs": [
        {
          "internalType": "bool",
          "name": "",
          "type": "bool"
        }
      ],
      "stateMutability": "nonpayable",
      "type": "function"
    },
    {
      "inputs": [
        {
          "internalType": "address",
          "name": "spender",
          "type": "address"
        },
        {
          "internalType": "uint256",
          "name": "addedValue",
          "type": "uint256"
        }
      ],
      "name": "increaseAllowance",
      "outputs": [
        {
          "internalType": "bool",
          "name": "",
          "type": "bool"
        }
      ],
      "stateMutability": "nonpayable",
      "type": "function"
    },
    {
      "inputs": [
        {
          "internalType": "string",
          "name": "denom_",
          "type": "string"
        },
        {
          "internalType": "uint8",
          "name": "decimals_",
          "type": "uint8"
        }
      ],
      "name": "initialize",
      "outputs": [],
      "stateMutability": "nonpayable",
      "type": "function"
    },
    {
      "inputs": [
        {
          "internalType": "address",
          "name": "addr",
          "type": "address"
        },
        {
          "internalType": "uint256",
          "name": "amount",
          "type": "uint256"
        }
      ],
      "name": "mint_by_okc_module",
      "outputs": [],
      "stateMutability": "nonpayable",
      "type": "function"
    },
    {
      "inputs": [],
      "name": "moduleAddress",
      "outputs": [
        {
          "internalType": "address",
          "name": "",
          "type": "address"
        }
      ],
      "stateMutability": "view",
      "type": "function"
    },
    {
      "inputs": [],
      "name": "name",
      "outputs": [
        {
          "internalType": "string",
          "name": "",
          "type": "string"
        }
      ],
      "stateMutability": "view",
      "type": "function"
    },
    {
      "inputs": [],
      "name": "native_denom",
      "outputs": [
        {
          "internalType": "string",
          "name": "",
          "type": "string"
        }
      ],
      "stateMutability": "view",
      "type": "function"
    },
    {
      "inputs": [
        {
          "internalType": "string",
          "name": "recipient",
          "type": "string"
        },
        {
          "internalType": "uint256",
          "name": "amount",
          "type": "uint256"
        }
      ],
      "name": "send_to_ibc",
      "outputs": [],
      "stateMutability": "nonpayable",
      "type": "function"
    },
    {
      "inputs": [
        {
          "internalType": "string",
          "name": "recipient",
          "type": "string"
        },
        {
          "internalType": "uint256",
          "name": "amount",
          "type": "uint256"
        }
      ],
      "name": "send_to_wasm",
      "outputs": [],
      "stateMutability": "nonpayable",
      "type": "function"
    },
    {
      "inputs": [],
      "name": "symbol",
      "outputs": [
        {
          "internalType": "string",
          "name": "",
          "type": "string"
        }
      ],
      "stateMutability": "view",
      "type": "function"
    },
    {
      "inputs": [],
      "name": "totalSupply",
      "outputs": [
        {
          "internalType": "uint256",
          "name": "",
          "type": "uint256"
        }
      ],
      "stateMutability": "view",
      "type": "function"
    },
    {
      "inputs": [
        {
          "internalType": "address",
          "name": "to",
          "type": "address"
        },
        {
          "internalType": "uint256",
          "name": "amount",
          "type": "uint256"
        }
      ],
      "name": "transfer",
      "outputs": [
        {
          "internalType": "bool",
          "name": "",
          "type": "bool"
        }
      ],
      "stateMutability": "nonpayable",
      "type": "function"
    },
    {
      "inputs": [
        {
          "internalType": "address",
          "name": "from",
          "type": "address"
        },
        {
          "internalType": "address",
          "name": "to",
          "type": "address"
        },
        {
          "internalType": "uint256",
          "name": "amount",
          "type": "uint256"
        }
      ],
      "name": "transferFrom",
      "outputs": [
        {
          "internalType": "bool",
          "name": "",
          "type": "bool"
        }
      ],
      "stateMutability": "nonpayable",
      "type": "function"
    }
  ],
  "bytecode": "0x608060405234801561001057600080fd5b50611e8b806100206000396000f3fe608060405234801561001057600080fd5b50600436106101165760003560e01c806395d89b41116100a2578063a9059cbb11610071578063a9059cbb146102f5578063cc1207c014610325578063dd62ed3e14610341578063e99bccd314610371578063ee3666541461038d57610116565b806395d89b411461026f57806399550aa61461028d578063a457c2d7146102a9578063a515cb40146102d957610116565b806323b872dd116100e957806323b872dd146101a3578063313ce567146101d357806335b2bd2d146101f1578063395093511461020f57806370a082311461023f57610116565b806306fdde031461011b578063095ea7b31461013957806318160ddd14610169578063202865e014610187575b600080fd5b6101236103ab565b60405161013091906116d1565b60405180910390f35b610153600480360381019061014e9190611383565b61043d565b60405161016091906116b6565b60405180910390f35b610171610459565b60405161017e9190611853565b60405180910390f35b6101a1600480360381019061019c91906113bf565b610463565b005b6101bd60048036038101906101b89190611334565b6104ac565b6040516101ca91906116b6565b60405180910390f35b6101db6104d4565b6040516101e8919061186e565b60405180910390f35b6101f96104eb565b604051610206919061165d565b60405180910390f35b61022960048036038101906102249190611383565b610503565b60405161023691906116b6565b60405180910390f35b610259600480360381019061025491906112cf565b6105a6565b6040516102669190611853565b60405180910390f35b6102776105ef565b60405161028491906116d1565b60405180910390f35b6102a760048036038101906102a29190611383565b610681565b005b6102c360048036038101906102be9190611383565b6106db565b6040516102d091906116b6565b60405180910390f35b6102f360048036038101906102ee91906113bf565b6107be565b005b61030f600480360381019061030a9190611383565b610807565b60405161031c91906116b6565b60405180910390f35b61033f600480360381019061033a9190611413565b610823565b005b61035b600480360381019061035691906112f8565b610832565b6040516103689190611853565b60405180910390f35b61038b60048036038101906103869190611383565b6108b9565b005b610395610913565b6040516103a291906116d1565b60405180910390f35b6060600080546103ba90611a1c565b80601f01602080910402602001604051908101604052809291908181526020018280546103e690611a1c565b80156104335780601f1061040857610100808354040283529160200191610433565b820191906000526020600020905b81548152906001019060200180831161041657829003601f168201915b5050505050905090565b60008033905061044e818585610922565b600191505092915050565b6000600354905090565b61046d3382610aed565b7fbea1a90969532e8f201af81dabb4ba53f6ba923ce55cb10499def675ebc206333383836040516104a093929190611678565b60405180910390a15050565b6000803390506104bd858285610cae565b6104c8858585610d3a565b60019150509392505050565b6000600260009054906101000a900460ff16905090565b73c63cf6c8e1f3df41085e9d8af49584dae1432b4f81565b60008033905061059b818585600560008673ffffffffffffffffffffffffffffffffffffffff1673ffffffffffffffffffffffffffffffffffffffff16815260200190815260200160002060008973ffffffffffffffffffffffffffffffffffffffff1673ffffffffffffffffffffffffffffffffffffffff1681526020019081526020016000205461059691906118fb565b610922565b600191505092915050565b6000600460008373ffffffffffffffffffffffffffffffffffffffff1673ffffffffffffffffffffffffffffffffffffffff168152602001908152602001600020549050919050565b6060600180546105fe90611a1c565b80601f016020809104026020016040519081016040528092919081815260200182805461062a90611a1c565b80156106775780601f1061064c57610100808354040283529160200191610677565b820191906000526020600020905b81548152906001019060200180831161065a57829003601f168201915b5050505050905090565b73c63cf6c8e1f3df41085e9d8af49584dae1432b4f73ffffffffffffffffffffffffffffffffffffffff163373ffffffffffffffffffffffffffffffffffffffff16146106cd57600080fd5b6106d78282610aed565b5050565b6000803390506000600560008373ffffffffffffffffffffffffffffffffffffffff1673ffffffffffffffffffffffffffffffffffffffff16815260200190815260200160002060008673ffffffffffffffffffffffffffffffffffffffff1673ffffffffffffffffffffffffffffffffffffffff168152602001908152602001600020549050838110156107a5576040517f08c379a000000000000000000000000000000000000000000000000000000000815260040161079c90611813565b60405180910390fd5b6107b28286868403610922565b60019250505092915050565b6107c83382610aed565b7f0eced2157b12f700bfa649ab79e9a4c58676f1223f9d1cb6715afe087e7b206f3383836040516107fb93929190611678565b60405180910390a15050565b600080339050610818818585610d3a565b600191505092915050565b61082e828383610fa8565b5050565b6000600560008473ffffffffffffffffffffffffffffffffffffffff1673ffffffffffffffffffffffffffffffffffffffff16815260200190815260200160002060008373ffffffffffffffffffffffffffffffffffffffff1673ffffffffffffffffffffffffffffffffffffffff16815260200190815260200160002054905092915050565b73c63cf6c8e1f3df41085e9d8af49584dae1432b4f73ffffffffffffffffffffffffffffffffffffffff163373ffffffffffffffffffffffffffffffffffffffff161461090557600080fd5b61090f828261103c565b5050565b606061091d6105ef565b905090565b600073ffffffffffffffffffffffffffffffffffffffff168373ffffffffffffffffffffffffffffffffffffffff161415610992576040517f08c379a0000000000000000000000000000000000000000000000000000000008152600401610989906117f3565b60405180910390fd5b600073ffffffffffffffffffffffffffffffffffffffff168273ffffffffffffffffffffffffffffffffffffffff161415610a02576040517f08c379a00000000000000000000000000000000000000000000000000000000081526004016109f990611733565b60405180910390fd5b80600560008573ffffffffffffffffffffffffffffffffffffffff1673ffffffffffffffffffffffffffffffffffffffff16815260200190815260200160002060008473ffffffffffffffffffffffffffffffffffffffff1673ffffffffffffffffffffffffffffffffffffffff168152602001908152602001600020819055508173ffffffffffffffffffffffffffffffffffffffff168373ffffffffffffffffffffffffffffffffffffffff167f8c5be1e5ebec7d5bd14f71427d1e84f3dd0314c0f7b2291e5b200ac8c7c3b92583604051610ae09190611853565b60405180910390a3505050565b600073ffffffffffffffffffffffffffffffffffffffff168273ffffffffffffffffffffffffffffffffffffffff161415610b5d576040517f08c379a0000000000000000000000000000000000000000000000000000000008152600401610b54906117b3565b60405180910390fd5b6000600460008473ffffffffffffffffffffffffffffffffffffffff1673ffffffffffffffffffffffffffffffffffffffff16815260200190815260200160002054905081811015610be4576040517f08c379a0000000000000000000000000000000000000000000000000000000008152600401610bdb90611713565b60405180910390fd5b818103600460008573ffffffffffffffffffffffffffffffffffffffff1673ffffffffffffffffffffffffffffffffffffffff168152602001908152602001600020819055508160036000828254610c3c9190611951565b92505081905550600073ffffffffffffffffffffffffffffffffffffffff168373ffffffffffffffffffffffffffffffffffffffff167fddf252ad1be2c89b69c2b068fc378daa952ba7f163c4a11628f55a4df523b3ef84604051610ca19190611853565b60405180910390a3505050565b6000610cba8484610832565b90507fffffffffffffffffffffffffffffffffffffffffffffffffffffffffffffffff8114610d345781811015610d26576040517f08c379a0000000000000000000000000000000000000000000000000000000008152600401610d1d90611773565b60405180910390fd5b610d338484848403610922565b5b50505050565b600073ffffffffffffffffffffffffffffffffffffffff168373ffffffffffffffffffffffffffffffffffffffff161415610daa576040517f08c379a0000000000000000000000000000000000000000000000000000000008152600401610da1906117d3565b60405180910390fd5b600073ffffffffffffffffffffffffffffffffffffffff168273ffffffffffffffffffffffffffffffffffffffff161415610e1a576040517f08c379a0000000000000000000000000000000000000000000000000000000008152600401610e11906116f3565b60405180910390fd5b6000600460008573ffffffffffffffffffffffffffffffffffffffff1673ffffffffffffffffffffffffffffffffffffffff16815260200190815260200160002054905081811015610ea1576040517f08c379a0000000000000000000000000000000000000000000000000000000008152600401610e9890611793565b60405180910390fd5b818103600460008673ffffffffffffffffffffffffffffffffffffffff1673ffffffffffffffffffffffffffffffffffffffff1681526020019081526020016000208190555081600460008573ffffffffffffffffffffffffffffffffffffffff1673ffffffffffffffffffffffffffffffffffffffff1681526020019081526020016000206000828254610f3691906118fb565b925050819055508273ffffffffffffffffffffffffffffffffffffffff168473ffffffffffffffffffffffffffffffffffffffff167fddf252ad1be2c89b69c2b068fc378daa952ba7f163c4a11628f55a4df523b3ef84604051610f9a9190611853565b60405180910390a350505050565b60008160ff1614610fee576040517f08c379a0000000000000000000000000000000000000000000000000000000008152600401610fe590611753565b60405180910390fd5b8260009080519060200190611004929190611185565b50816001908051906020019061101b929190611185565b5080600260006101000a81548160ff021916908360ff160217905550505050565b600073ffffffffffffffffffffffffffffffffffffffff168273ffffffffffffffffffffffffffffffffffffffff1614156110ac576040517f08c379a00000000000000000000000000000000000000000000000000000000081526004016110a390611833565b60405180910390fd5b80600360008282546110be91906118fb565b9250508190555080600460008473ffffffffffffffffffffffffffffffffffffffff1673ffffffffffffffffffffffffffffffffffffffff168152602001908152602001600020600082825461111491906118fb565b925050819055508173ffffffffffffffffffffffffffffffffffffffff16600073ffffffffffffffffffffffffffffffffffffffff167fddf252ad1be2c89b69c2b068fc378daa952ba7f163c4a11628f55a4df523b3ef836040516111799190611853565b60405180910390a35050565b82805461119190611a1c565b90600052602060002090601f0160209004810192826111b357600085556111fa565b82601f106111cc57805160ff19168380011785556111fa565b828001600101855582156111fa579182015b828111156111f95782518255916020019190600101906111de565b5b509050611207919061120b565b5090565b5b8082111561122457600081600090555060010161120c565b5090565b600061123b611236846118ae565b611889565b90508281526020810184848401111561125357600080fd5b61125e8482856119da565b509392505050565b60008135905061127581611e10565b92915050565b600082601f83011261128c57600080fd5b813561129c848260208601611228565b91505092915050565b6000813590506112b481611e27565b92915050565b6000813590506112c981611e3e565b92915050565b6000602082840312156112e157600080fd5b60006112ef84828501611266565b91505092915050565b6000806040838503121561130b57600080fd5b600061131985828601611266565b925050602061132a85828601611266565b9150509250929050565b60008060006060848603121561134957600080fd5b600061135786828701611266565b935050602061136886828701611266565b9250506040611379868287016112a5565b9150509250925092565b6000806040838503121561139657600080fd5b60006113a485828601611266565b92505060206113b5858286016112a5565b9150509250929050565b600080604083850312156113d257600080fd5b600083013567ffffffffffffffff8111156113ec57600080fd5b6113f88582860161127b565b9250506020611409858286016112a5565b9150509250929050565b6000806040838503121561142657600080fd5b600083013567ffffffffffffffff81111561144057600080fd5b61144c8582860161127b565b925050602061145d858286016112ba565b9150509250929050565b61147081611985565b82525050565b61147f81611997565b82525050565b6000611490826118df565b61149a81856118ea565b93506114aa8185602086016119e9565b6114b381611b0c565b840191505092915050565b60006114cb6023836118ea565b91506114d682611b1d565b604082019050919050565b60006114ee6022836118ea565b91506114f982611b6c565b604082019050919050565b60006115116022836118ea565b915061151c82611bbb565b604082019050919050565b6000611534601b836118ea565b915061153f82611c0a565b602082019050919050565b6000611557601d836118ea565b915061156282611c33565b602082019050919050565b600061157a6026836118ea565b915061158582611c5c565b604082019050919050565b600061159d6021836118ea565b91506115a882611cab565b604082019050919050565b60006115c06025836118ea565b91506115cb82611cfa565b604082019050919050565b60006115e36024836118ea565b91506115ee82611d49565b604082019050919050565b60006116066025836118ea565b915061161182611d98565b604082019050919050565b6000611629601f836118ea565b915061163482611de7565b602082019050919050565b611648816119c3565b82525050565b611657816119cd565b82525050565b60006020820190506116726000830184611467565b92915050565b600060608201905061168d6000830186611467565b818103602083015261169f8185611485565b90506116ae604083018461163f565b949350505050565b60006020820190506116cb6000830184611476565b92915050565b600060208201905081810360008301526116eb8184611485565b905092915050565b6000602082019050818103600083015261170c816114be565b9050919050565b6000602082019050818103600083015261172c816114e1565b9050919050565b6000602082019050818103600083015261174c81611504565b9050919050565b6000602082019050818103600083015261176c81611527565b9050919050565b6000602082019050818103600083015261178c8161154a565b9050919050565b600060208201905081810360008301526117ac8161156d565b9050919050565b600060208201905081810360008301526117cc81611590565b9050919050565b600060208201905081810360008301526117ec816115b3565b9050919050565b6000602082019050818103600083015261180c816115d6565b9050919050565b6000602082019050818103600083015261182c816115f9565b9050919050565b6000602082019050818103600083015261184c8161161c565b9050919050565b6000602082019050611868600083018461163f565b92915050565b6000602082019050611883600083018461164e565b92915050565b60006118936118a4565b905061189f8282611a4e565b919050565b6000604051905090565b600067ffffffffffffffff8211156118c9576118c8611add565b5b6118d282611b0c565b9050602081019050919050565b600081519050919050565b600082825260208201905092915050565b6000611906826119c3565b9150611911836119c3565b9250827fffffffffffffffffffffffffffffffffffffffffffffffffffffffffffffffff0382111561194657611945611a7f565b5b828201905092915050565b600061195c826119c3565b9150611967836119c3565b92508282101561197a57611979611a7f565b5b828203905092915050565b6000611990826119a3565b9050919050565b60008115159050919050565b600073ffffffffffffffffffffffffffffffffffffffff82169050919050565b6000819050919050565b600060ff82169050919050565b82818337600083830152505050565b60005b83811015611a075780820151818401526020810190506119ec565b83811115611a16576000848401525b50505050565b60006002820490506001821680611a3457607f821691505b60208210811415611a4857611a47611aae565b5b50919050565b611a5782611b0c565b810181811067ffffffffffffffff82111715611a7657611a75611add565b5b80604052505050565b7f4e487b7100000000000000000000000000000000000000000000000000000000600052601160045260246000fd5b7f4e487b7100000000000000000000000000000000000000000000000000000000600052602260045260246000fd5b7f4e487b7100000000000000000000000000000000000000000000000000000000600052604160045260246000fd5b6000601f19601f8301169050919050565b7f45524332303a207472616e7366657220746f20746865207a65726f206164647260008201527f6573730000000000000000000000000000000000000000000000000000000000602082015250565b7f45524332303a206275726e20616d6f756e7420657863656564732062616c616e60008201527f6365000000000000000000000000000000000000000000000000000000000000602082015250565b7f45524332303a20617070726f766520746f20746865207a65726f20616464726560008201527f7373000000000000000000000000000000000000000000000000000000000000602082015250565b7f45524332303a20616c726561647920696e697469616c697a65643b0000000000600082015250565b7f45524332303a20696e73756666696369656e7420616c6c6f77616e6365000000600082015250565b7f45524332303a207472616e7366657220616d6f756e742065786365656473206260008201527f616c616e63650000000000000000000000000000000000000000000000000000602082015250565b7f45524332303a206275726e2066726f6d20746865207a65726f2061646472657360008201527f7300000000000000000000000000000000000000000000000000000000000000602082015250565b7f45524332303a207472616e736665722066726f6d20746865207a65726f20616460008201527f6472657373000000000000000000000000000000000000000000000000000000602082015250565b7f45524332303a20617070726f76652066726f6d20746865207a65726f2061646460008201527f7265737300000000000000000000000000000000000000000000000000000000602082015250565b7f45524332303a2064656372656173656420616c6c6f77616e63652062656c6f7760008201527f207a65726f000000000000000000000000000000000000000000000000000000602082015250565b7f45524332303a206d696e7420746f20746865207a65726f206164647265737300600082015250565b611e1981611985565b8114611e2457600080fd5b50565b611e30816119c3565b8114611e3b57600080fd5b50565b611e47816119cd565b8114611e5257600080fd5b5056fea264697066735822122019ff5a078a8bc71d2a0f1cf7477dbc198dca95919eadd7fd4d33ba08e0cff99764736f6c63430008040033",
  "linkReferences": {},
  "deployedLinkReferences": {}
}