{
  "_format": "hh-sol-artifact-1",
  "contractName": "MoudleERC20Proxy",
  "sourceName": "contracts/MoudleERC20Proxy.sol",
  "abi": [
    {
      "inputs": [
        {
          "internalType": "address",
          "name": "_implementation",
          "type": "address"
        },
        {
          "internalType": "bytes",
          "name": "_data",
          "type": "bytes"
        }
      ],
      "stateMutability": "payable",
      "type": "constructor"
    },
    {
      "stateMutability": "payable",
      "type": "fallback"
    },
    {
      "inputs": [
        {
          "internalType": "address",
          "name": "newProxyAdmin",
          "type": "address"
        }
      ],
      "name": "changeProxyAdmin",
      "outputs": [],
      "stateMutability": "nonpayable",
      "type": "function"
    },
    {
      "inputs": [],
      "name": "implementation",
      "outputs": [
        {
          "internalType": "address",
          "name": "",
          "type": "address"
        }
      ],
      "stateMutability": "view",
      "type": "function"
    },
    {
      "inputs": [],
      "name": "proxyAdmin",
      "outputs": [
        {
          "internalType": "address",
          "name": "",
          "type": "address"
        }
      ],
      "stateMutability": "view",
      "type": "function"
    },
    {
      "inputs": [
        {
          "internalType": "address",
          "name": "newImplementation",
          "type": "address"
        }
      ],
      "name": "upgradeTo",
      "outputs": [],
      "stateMutability": "nonpayable",
      "type": "function"
    },
    {
      "inputs": [
        {
          "internalType": "address",
          "name": "newImplementation",
          "type": "address"
        },
        {
          "internalType": "bytes",
          "name": "data",
          "type": "bytes"
        }
      ],
      "name": "upgradeToAndCall",
      "outputs": [],
      "stateMutability": "payable",
      "type": "function"
    },
    {
      "stateMutability": "payable",
      "type": "receive"
    }
  ],
  "bytecode": "0x608060405260405162001087380380620010878339818101604052810190620000299190620002fb565b73c63cf6c8e1f3df41085e9d8af49584dae1432b4f600160006101000a81548173ffffffffffffffffffffffffffffffffffffffff021916908373ffffffffffffffffffffffffffffffffffffffff160217905550816000806101000a81548173ffffffffffffffffffffffffffffffffffffffff021916908373ffffffffffffffffffffffffffffffffffffffff160217905550600081511115620000f757620000f582826040518060600160405280602681526020016200106160269139620000ff60201b60201c565b505b50506200062d565b60606200011284620001e360201b60201c565b62000154576040517f08c379a00000000000000000000000000000000000000000000000000000000081526004016200014b9062000431565b60405180910390fd5b6000808573ffffffffffffffffffffffffffffffffffffffff16856040516200017e9190620003f4565b600060405180830381855af49150503d8060008114620001bb576040519150601f19603f3d011682016040523d82523d6000602084013e620001c0565b606091505b5091509150620001d88282866200020660201b60201c565b925050509392505050565b6000808273ffffffffffffffffffffffffffffffffffffffff163b119050919050565b6060831562000218578290506200026b565b6000835111156200022c5782518084602001fd5b816040517f08c379a00000000000000000000000000000000000000000000000000000000081526004016200026291906200040d565b60405180910390fd5b9392505050565b60006200028962000283846200047c565b62000453565b905082815260208101848484011115620002a257600080fd5b620002af84828562000518565b509392505050565b600081519050620002c88162000613565b92915050565b600082601f830112620002e057600080fd5b8151620002f284826020860162000272565b91505092915050565b600080604083850312156200030f57600080fd5b60006200031f85828601620002b7565b925050602083015167ffffffffffffffff8111156200033d57600080fd5b6200034b85828601620002ce565b9150509250929050565b60006200036282620004b2565b6200036e8185620004c8565b93506200038081856020860162000518565b80840191505092915050565b60006200039982620004bd565b620003a58185620004d3565b9350620003b781856020860162000518565b620003c281620005b3565b840191505092915050565b6000620003dc602f83620004d3565b9150620003e982620005c4565b604082019050919050565b600062000402828462000355565b915081905092915050565b600060208201905081810360008301526200042981846200038c565b905092915050565b600060208201905081810360008301526200044c81620003cd565b9050919050565b60006200045f62000472565b90506200046d82826200054e565b919050565b6000604051905090565b600067ffffffffffffffff8211156200049a576200049962000584565b5b620004a582620005b3565b9050602081019050919050565b600081519050919050565b600081519050919050565b600081905092915050565b600082825260208201905092915050565b6000620004f182620004f8565b9050919050565b600073ffffffffffffffffffffffffffffffffffffffff82169050919050565b60005b83811015620005385780820151818401526020810190506200051b565b8381111562000548576000848401525b50505050565b6200055982620005b3565b810181811067ffffffffffffffff821117156200057b576200057a62000584565b5b80604052505050565b7f4e487b7100000000000000000000000000000000000000000000000000000000600052604160045260246000fd5b6000601f19601f8301169050919050565b7f4d6f75646c65455243323050726f78793a2064656c65676174652063616c6c2060008201527f746f206e6f6e2d636f6e74726163740000000000000000000000000000000000602082015250565b6200061e81620004e4565b81146200062a57600080fd5b50565b610a24806200063d6000396000f3fe60806040526004361061004e5760003560e01c80633659cfe6146100a95780633e47158c146100d25780634f1ef286146100fd5780635c60da1b146101195780639f712f2f146101445761007e565b3661007e5761007c60008054906101000a900473ffffffffffffffffffffffffffffffffffffffff1661016d565b005b6100a760008054906101000a900473ffffffffffffffffffffffffffffffffffffffff1661016d565b005b3480156100b557600080fd5b506100d060048036038101906100cb9190610697565b610193565b005b3480156100de57600080fd5b506100e7610266565b6040516100f491906107ee565b60405180910390f35b610117600480360381019061011291906106c0565b61028c565b005b34801561012557600080fd5b5061012e6103e9565b60405161013b91906107ee565b60405180910390f35b34801561015057600080fd5b5061016b60048036038101906101669190610697565b61040d565b005b3660008037600080366000845af43d6000803e806000811461018e573d6000f35b3d6000fd5b600160009054906101000a900473ffffffffffffffffffffffffffffffffffffffff1673ffffffffffffffffffffffffffffffffffffffff163373ffffffffffffffffffffffffffffffffffffffff1614610223576040517f08c379a000000000000000000000000000000000000000000000000000000000815260040161021a9061084b565b60405180910390fd5b806000806101000a81548173ffffffffffffffffffffffffffffffffffffffff021916908373ffffffffffffffffffffffffffffffffffffffff16021790555050565b600160009054906101000a900473ffffffffffffffffffffffffffffffffffffffff1681565b600160009054906101000a900473ffffffffffffffffffffffffffffffffffffffff1673ffffffffffffffffffffffffffffffffffffffff163373ffffffffffffffffffffffffffffffffffffffff161461031c576040517f08c379a00000000000000000000000000000000000000000000000000000000081526004016103139061084b565b60405180910390fd5b826000806101000a81548173ffffffffffffffffffffffffffffffffffffffff021916908373ffffffffffffffffffffffffffffffffffffffff1602179055506103e360008054906101000a900473ffffffffffffffffffffffffffffffffffffffff1683838080601f016020809104026020016040519081016040528093929190818152602001838380828437600081840152601f19601f820116905080830192505050505050506040518060600160405280602681526020016109c9602691396104e1565b50505050565b60008054906101000a900473ffffffffffffffffffffffffffffffffffffffff1681565b600160009054906101000a900473ffffffffffffffffffffffffffffffffffffffff1673ffffffffffffffffffffffffffffffffffffffff163373ffffffffffffffffffffffffffffffffffffffff161461049d576040517f08c379a00000000000000000000000000000000000000000000000000000000081526004016104949061084b565b60405180910390fd5b80600160006101000a81548173ffffffffffffffffffffffffffffffffffffffff021916908373ffffffffffffffffffffffffffffffffffffffff16021790555050565b60606104ec846105ae565b61052b576040517f08c379a00000000000000000000000000000000000000000000000000000000081526004016105229061082b565b60405180910390fd5b6000808573ffffffffffffffffffffffffffffffffffffffff168560405161055391906107d7565b600060405180830381855af49150503d806000811461058e576040519150601f19603f3d011682016040523d82523d6000602084013e610593565b606091505b50915091506105a38282866105d1565b925050509392505050565b6000808273ffffffffffffffffffffffffffffffffffffffff163b119050919050565b606083156105e157829050610631565b6000835111156105f45782518084602001fd5b816040517f08c379a00000000000000000000000000000000000000000000000000000000081526004016106289190610809565b60405180910390fd5b9392505050565b600081359050610647816109b1565b92915050565b60008083601f84011261065f57600080fd5b8235905067ffffffffffffffff81111561067857600080fd5b60208301915083600182028301111561069057600080fd5b9250929050565b6000602082840312156106a957600080fd5b60006106b784828501610638565b91505092915050565b6000806000604084860312156106d557600080fd5b60006106e386828701610638565b935050602084013567ffffffffffffffff81111561070057600080fd5b61070c8682870161064d565b92509250509250925092565b6107218161089d565b82525050565b60006107328261086b565b61073c8185610881565b935061074c8185602086016108cf565b80840191505092915050565b600061076382610876565b61076d818561088c565b935061077d8185602086016108cf565b61078681610902565b840191505092915050565b600061079e602f8361088c565b91506107a982610913565b604082019050919050565b60006107c1602b8361088c565b91506107cc82610962565b604082019050919050565b60006107e38284610727565b915081905092915050565b60006020820190506108036000830184610718565b92915050565b600060208201905081810360008301526108238184610758565b905092915050565b6000602082019050818103600083015261084481610791565b9050919050565b60006020820190508181036000830152610864816107b4565b9050919050565b600081519050919050565b600081519050919050565b600081905092915050565b600082825260208201905092915050565b60006108a8826108af565b9050919050565b600073ffffffffffffffffffffffffffffffffffffffff82169050919050565b60005b838110156108ed5780820151818401526020810190506108d2565b838111156108fc576000848401525b50505050565b6000601f19601f8301169050919050565b7f4d6f75646c65455243323050726f78793a2064656c65676174652063616c6c2060008201527f746f206e6f6e2d636f6e74726163740000000000000000000000000000000000602082015250565b7f4d6f75646c65455243323050726f78793a2063616c6c6572206973206e6f742060008201527f70726f78792061646d696e000000000000000000000000000000000000000000602082015250565b6109ba8161089d565b81146109c557600080fd5b5056fe4d6f75646c65455243323050726f78793a2064656c65676174652063616c6c206661696c6564a2646970667358221220d164da5c735ffc9dd3e384c8248d897298f789e3d5144c419348d77b1be04cd064736f6c634300080400334d6f75646c65455243323050726f78793a2064656c65676174652063616c6c206661696c6564",
  "linkReferences": {},
  "deployedLinkReferences": {}
}