{
  "_format": "hh-sol-artifact-1",
  "contractName": "NativeERC20Base",
  "sourceName": "contracts/nativaERC20/NativeERC20Base.sol",
  "abi": [
    {
      "anonymous": false,
      "inputs": [
        {
          "indexed": false,
          "internalType": "address",
          "name": "sender",
          "type": "address"
        },
        {
          "indexed": false,
          "internalType": "string",
          "name": "recipient",
          "type": "string"
        },
        {
          "indexed": false,
          "internalType": "uint256",
          "name": "amount",
          "type": "uint256"
        },
        {
          "indexed": false,
          "internalType": "string",
          "name": "portID",
          "type": "string"
        },
        {
          "indexed": false,
          "internalType": "string",
          "name": "channelID",
          "type": "string"
        }
      ],
      "name": "__OKCSendNative20ToIbc",
      "type": "event"
    },
    {
      "anonymous": false,
      "inputs": [
        {
          "indexed": false,
          "internalType": "address",
          "name": "sender",
          "type": "address"
        },
        {
          "indexed": false,
          "internalType": "string",
          "name": "recipient",
          "type": "string"
        },
        {
          "indexed": false,
          "internalType": "uint256",
          "name": "amount",
          "type": "uint256"
        }
      ],
      "name": "__OKCSendToWasm",
      "type": "event"
    },
    {
      "inputs": [
        {
          "internalType": "address",
          "name": "addr",
          "type": "address"
        },
        {
          "internalType": "uint256",
          "name": "amount",
          "type": "uint256"
        }
      ],
      "name": "burn_by_okc_module",
      "outputs": [],
      "stateMutability": "nonpayable",
      "type": "function"
    },
    {
      "inputs": [
        {
          "internalType": "address",
          "name": "addr",
          "type": "address"
        },
        {
          "internalType": "uint256",
          "name": "amount",
          "type": "uint256"
        }
      ],
      "name": "mint_by_okc_module",
      "outputs": [],
      "stateMutability": "nonpayable",
      "type": "function"
    },
    {
      "inputs": [],
      "name": "moduleAddress",
      "outputs": [
        {
          "internalType": "address",
          "name": "",
          "type": "address"
        }
      ],
      "stateMutability": "view",
      "type": "function"
    },
    {
      "inputs": [],
      "name": "native_denom",
      "outputs": [
        {
          "internalType": "string",
          "name": "",
          "type": "string"
        }
      ],
      "stateMutability": "view",
      "type": "function"
    },
    {
      "inputs": [
        {
          "internalType": "string",
          "name": "recipient",
          "type": "string"
        },
        {
          "internalType": "uint256",
          "name": "amount",
          "type": "uint256"
        },
        {
          "internalType": "string",
          "name": "portID",
          "type": "string"
        },
        {
          "internalType": "string",
          "name": "channelID",
          "type": "string"
        }
      ],
      "name": "send_native20_to_ibc",
      "outputs": [],
      "stateMutability": "nonpayable",
      "type": "function"
    },
    {
      "inputs": [
        {
          "internalType": "string",
          "name": "recipient",
          "type": "string"
        },
        {
          "internalType": "uint256",
          "name": "amount",
          "type": "uint256"
        }
      ],
      "name": "send_to_wasm",
      "outputs": [],
      "stateMutability": "nonpayable",
      "type": "function"
    },
    {
      "inputs": [],
      "name": "symbol",
      "outputs": [
        {
          "internalType": "string",
          "name": "",
          "type": "string"
        }
      ],
      "stateMutability": "view",
      "type": "function"
    }
  ],
  "bytecode": "0x608060405234801561001057600080fd5b50610798806100206000396000f3fe608060405234801561001057600080fd5b506004361061007d5760003560e01c806399550aa61161005b57806399550aa6146100da578063e99bccd3146100f6578063ec4994bf14610112578063ee3666541461012e5761007d565b8063202865e01461008257806335b2bd2d1461009e57806395d89b41146100bc575b600080fd5b61009c6004803603810190610097919061039a565b61014c565b005b6100a6610195565b6040516100b391906104f0565b60405180910390f35b6100c46101ad565b6040516100d191906105b1565b60405180910390f35b6100f460048036038101906100ef919061035e565b6101b2565b005b610110600480360381019061010b919061035e565b61020c565b005b61012c600480360381019061012791906103ee565b610266565b005b6101366102b5565b60405161014391906105b1565b60405180910390f35b61015633826102c4565b7fbea1a90969532e8f201af81dabb4ba53f6ba923ce55cb10499def675ebc206333383836040516101899392919061050b565b60405180910390a15050565b73c63cf6c8e1f3df41085e9d8af49584dae1432b4f81565b606090565b73c63cf6c8e1f3df41085e9d8af49584dae1432b4f73ffffffffffffffffffffffffffffffffffffffff163373ffffffffffffffffffffffffffffffffffffffff16146101fe57600080fd5b61020882826102c4565b5050565b73c63cf6c8e1f3df41085e9d8af49584dae1432b4f73ffffffffffffffffffffffffffffffffffffffff163373ffffffffffffffffffffffffffffffffffffffff161461025857600080fd5b61026282826102c8565b5050565b61027033846102c4565b7f68c3a09ef5bb7687398dbf45b16c3a14f5b92bd79e07e4503109e149e05c4b7533858585856040516102a7959493929190610549565b60405180910390a150505050565b60606102bf6101ad565b905090565b5050565b5050565b60006102df6102da846105f8565b6105d3565b9050828152602081018484840111156102f757600080fd5b610302848285610681565b509392505050565b60008135905061031981610734565b92915050565b600082601f83011261033057600080fd5b81356103408482602086016102cc565b91505092915050565b6000813590506103588161074b565b92915050565b6000806040838503121561037157600080fd5b600061037f8582860161030a565b925050602061039085828601610349565b9150509250929050565b600080604083850312156103ad57600080fd5b600083013567ffffffffffffffff8111156103c757600080fd5b6103d38582860161031f565b92505060206103e485828601610349565b9150509250929050565b6000806000806080858703121561040457600080fd5b600085013567ffffffffffffffff81111561041e57600080fd5b61042a8782880161031f565b945050602061043b87828801610349565b935050604085013567ffffffffffffffff81111561045857600080fd5b6104648782880161031f565b925050606085013567ffffffffffffffff81111561048157600080fd5b61048d8782880161031f565b91505092959194509250565b6104a281610645565b82525050565b60006104b382610629565b6104bd8185610634565b93506104cd818560208601610690565b6104d681610723565b840191505092915050565b6104ea81610677565b82525050565b60006020820190506105056000830184610499565b92915050565b60006060820190506105206000830186610499565b818103602083015261053281856104a8565b905061054160408301846104e1565b949350505050565b600060a08201905061055e6000830188610499565b818103602083015261057081876104a8565b905061057f60408301866104e1565b818103606083015261059181856104a8565b905081810360808301526105a581846104a8565b90509695505050505050565b600060208201905081810360008301526105cb81846104a8565b905092915050565b60006105dd6105ee565b90506105e982826106c3565b919050565b6000604051905090565b600067ffffffffffffffff821115610613576106126106f4565b5b61061c82610723565b9050602081019050919050565b600081519050919050565b600082825260208201905092915050565b600061065082610657565b9050919050565b600073ffffffffffffffffffffffffffffffffffffffff82169050919050565b6000819050919050565b82818337600083830152505050565b60005b838110156106ae578082015181840152602081019050610693565b838111156106bd576000848401525b50505050565b6106cc82610723565b810181811067ffffffffffffffff821117156106eb576106ea6106f4565b5b80604052505050565b7f4e487b7100000000000000000000000000000000000000000000000000000000600052604160045260246000fd5b6000601f19601f8301169050919050565b61073d81610645565b811461074857600080fd5b50565b61075481610677565b811461075f57600080fd5b5056fea26469706673582212209d802ed10b7080fc35a1c15bdfb837f9d4a45ad0eb752b44bc5f38406fed948964736f6c63430008040033",
  "linkReferences": {},
  "deployedLinkReferences": {}
}