{
  "_format": "hh-sol-artifact-1",
  "contractName": "NativeERC20Base",
  "sourceName": "contracts/nativeERC20/NativeERC20Base.sol",
  "abi": [
    {
      "anonymous": false,
      "inputs": [
        {
          "indexed": false,
          "internalType": "address",
          "name": "sender",
          "type": "address"
        },
        {
          "indexed": false,
          "internalType": "string",
          "name": "recipient",
          "type": "string"
        },
        {
          "indexed": false,
          "internalType": "uint256",
          "name": "amount",
          "type": "uint256"
        },
        {
          "indexed": false,
          "internalType": "string",
          "name": "portID",
          "type": "string"
        },
        {
          "indexed": false,
          "internalType": "string",
          "name": "channelID",
          "type": "string"
        }
      ],
      "name": "__OKCSendNative20ToIbc",
      "type": "event"
    },
    {
      "anonymous": false,
      "inputs": [
        {
          "indexed": false,
          "internalType": "address",
          "name": "sender",
          "type": "address"
        },
        {
          "indexed": false,
          "internalType": "string",
          "name": "recipient",
          "type": "string"
        },
        {
          "indexed": false,
          "internalType": "uint256",
          "name": "amount",
          "type": "uint256"
        }
      ],
      "name": "__OKCSendToWasm",
      "type": "event"
    },
    {
      "inputs": [
        {
          "internalType": "address",
          "name": "addr",
          "type": "address"
        },
        {
          "internalType": "uint256",
          "name": "amount",
          "type": "uint256"
        }
      ],
      "name": "burn_by_okc_module",
      "outputs": [],
      "stateMutability": "nonpayable",
      "type": "function"
    },
    {
      "inputs": [
        {
          "internalType": "address",
          "name": "addr",
          "type": "address"
        },
        {
          "internalType": "uint256",
          "name": "amount",
          "type": "uint256"
        }
      ],
      "name": "mint_by_okc_module",
      "outputs": [],
      "stateMutability": "nonpayable",
      "type": "function"
    },
    {
      "inputs": [],
      "name": "moduleAddress",
      "outputs": [
        {
          "internalType": "address",
          "name": "",
          "type": "address"
        }
      ],
      "stateMutability": "view",
      "type": "function"
    },
    {
      "inputs": [],
      "name": "native_denom",
      "outputs": [
        {
          "internalType": "string",
          "name": "",
          "type": "string"
        }
      ],
      "stateMutability": "view",
      "type": "function"
    },
    {
      "inputs": [
        {
          "internalType": "string",
          "name": "recipient",
          "type": "string"
        },
        {
          "internalType": "uint256",
          "name": "amount",
          "type": "uint256"
        },
        {
          "internalType": "string",
          "name": "portID",
          "type": "string"
        },
        {
          "internalType": "string",
          "name": "channelID",
          "type": "string"
        }
      ],
      "name": "send_native20_to_ibc",
      "outputs": [],
      "stateMutability": "nonpayable",
      "type": "function"
    },
    {
      "inputs": [
        {
          "internalType": "string",
          "name": "recipient",
          "type": "string"
        },
        {
          "internalType": "uint256",
          "name": "amount",
          "type": "uint256"
        }
      ],
      "name": "send_to_wasm",
      "outputs": [],
      "stateMutability": "nonpayable",
      "type": "function"
    },
    {
      "inputs": [],
      "name": "symbol",
      "outputs": [
        {
          "internalType": "string",
          "name": "",
          "type": "string"
        }
      ],
      "stateMutability": "view",
      "type": "function"
    }
  ],
  "bytecode": "0x608060405234801561001057600080fd5b506107d0806100206000396000f3fe608060405234801561001057600080fd5b506004361061007d5760003560e01c806399550aa61161005b57806399550aa6146100da578063e99bccd3146100f6578063ec4994bf14610112578063ee3666541461012e5761007d565b8063202865e01461008257806335b2bd2d1461009e57806395d89b41146100bc575b600080fd5b61009c600480360381019061009791906103a6565b61014c565b005b6100a6610195565b6040516100b39190610514565b60405180910390f35b6100c46101ad565b6040516100d191906105d5565b60405180910390f35b6100f460048036038101906100ef9190610366565b6101b2565b005b610110600480360381019061010b9190610366565b61020c565b005b61012c60048036038101906101279190610402565b610266565b005b6101366102b5565b60405161014391906105d5565b60405180910390f35b61015633826102c4565b7fbea1a90969532e8f201af81dabb4ba53f6ba923ce55cb10499def675ebc206333383836040516101899392919061052f565b60405180910390a15050565b73c63cf6c8e1f3df41085e9d8af49584dae1432b4f81565b606090565b73c63cf6c8e1f3df41085e9d8af49584dae1432b4f73ffffffffffffffffffffffffffffffffffffffff163373ffffffffffffffffffffffffffffffffffffffff16146101fe57600080fd5b61020882826102c4565b5050565b73c63cf6c8e1f3df41085e9d8af49584dae1432b4f73ffffffffffffffffffffffffffffffffffffffff163373ffffffffffffffffffffffffffffffffffffffff161461025857600080fd5b61026282826102c8565b5050565b61027033846102c4565b7f68c3a09ef5bb7687398dbf45b16c3a14f5b92bd79e07e4503109e149e05c4b7533858585856040516102a795949392919061056d565b60405180910390a150505050565b60606102bf6101ad565b905090565b5050565b5050565b60006102df6102da8461061c565b6105f7565b9050828152602081018484840111156102fb576102fa61074c565b5b6103068482856106a5565b509392505050565b60008135905061031d8161076c565b92915050565b600082601f83011261033857610337610747565b5b81356103488482602086016102cc565b91505092915050565b60008135905061036081610783565b92915050565b6000806040838503121561037d5761037c610756565b5b600061038b8582860161030e565b925050602061039c85828601610351565b9150509250929050565b600080604083850312156103bd576103bc610756565b5b600083013567ffffffffffffffff8111156103db576103da610751565b5b6103e785828601610323565b92505060206103f885828601610351565b9150509250929050565b6000806000806080858703121561041c5761041b610756565b5b600085013567ffffffffffffffff81111561043a57610439610751565b5b61044687828801610323565b945050602061045787828801610351565b935050604085013567ffffffffffffffff81111561047857610477610751565b5b61048487828801610323565b925050606085013567ffffffffffffffff8111156104a5576104a4610751565b5b6104b187828801610323565b91505092959194509250565b6104c681610669565b82525050565b60006104d78261064d565b6104e18185610658565b93506104f18185602086016106b4565b6104fa8161075b565b840191505092915050565b61050e8161069b565b82525050565b600060208201905061052960008301846104bd565b92915050565b600060608201905061054460008301866104bd565b818103602083015261055681856104cc565b90506105656040830184610505565b949350505050565b600060a08201905061058260008301886104bd565b818103602083015261059481876104cc565b90506105a36040830186610505565b81810360608301526105b581856104cc565b905081810360808301526105c981846104cc565b90509695505050505050565b600060208201905081810360008301526105ef81846104cc565b905092915050565b6000610601610612565b905061060d82826106e7565b919050565b6000604051905090565b600067ffffffffffffffff82111561063757610636610718565b5b6106408261075b565b9050602081019050919050565b600081519050919050565b600082825260208201905092915050565b60006106748261067b565b9050919050565b600073ffffffffffffffffffffffffffffffffffffffff82169050919050565b6000819050919050565b82818337600083830152505050565b60005b838110156106d25780820151818401526020810190506106b7565b838111156106e1576000848401525b50505050565b6106f08261075b565b810181811067ffffffffffffffff8211171561070f5761070e610718565b5b80604052505050565b7f4e487b7100000000000000000000000000000000000000000000000000000000600052604160045260246000fd5b600080fd5b600080fd5b600080fd5b600080fd5b6000601f19601f8301169050919050565b61077581610669565b811461078057600080fd5b50565b61078c8161069b565b811461079757600080fd5b5056fea264697066735822122032d25d6dbdef3ae85ec26ac10bd0d1bf297471fba6a63a9528f1a0c2ae5a320d64736f6c63430008070033",
  "linkReferences": {},
  "deployedLinkReferences": {}
}