{
  "_format": "hh-sol-artifact-1",
  "contractName": "ModuleERC20",
  "sourceName": "contracts/MoudleERC20.sol",
  "abi": [
    {
      "inputs": [
        {
          "internalType": "string",
          "name": "denom_",
          "type": "string"
        },
        {
          "internalType": "uint8",
          "name": "decimals_",
          "type": "uint8"
        }
      ],
      "stateMutability": "nonpayable",
      "type": "constructor"
    },
    {
      "anonymous": false,
      "inputs": [
        {
          "indexed": true,
          "internalType": "address",
          "name": "owner",
          "type": "address"
        },
        {
          "indexed": true,
          "internalType": "address",
          "name": "spender",
          "type": "address"
        },
        {
          "indexed": false,
          "internalType": "uint256",
          "name": "value",
          "type": "uint256"
        }
      ],
      "name": "Approval",
      "type": "event"
    },
    {
      "anonymous": false,
      "inputs": [
        {
          "indexed": true,
          "internalType": "address",
          "name": "from",
          "type": "address"
        },
        {
          "indexed": true,
          "internalType": "address",
          "name": "to",
          "type": "address"
        },
        {
          "indexed": false,
          "internalType": "uint256",
          "name": "value",
          "type": "uint256"
        }
      ],
      "name": "Transfer",
      "type": "event"
    },
    {
      "anonymous": false,
      "inputs": [
        {
          "indexed": false,
          "internalType": "address",
          "name": "sender",
          "type": "address"
        },
        {
          "indexed": false,
          "internalType": "string",
          "name": "recipient",
          "type": "string"
        },
        {
          "indexed": false,
          "internalType": "uint256",
          "name": "amount",
          "type": "uint256"
        }
      ],
      "name": "__OecSendToIbc",
      "type": "event"
    },
    {
      "inputs": [
        {
          "internalType": "address",
          "name": "owner",
          "type": "address"
        },
        {
          "internalType": "address",
          "name": "spender",
          "type": "address"
        }
      ],
      "name": "allowance",
      "outputs": [
        {
          "internalType": "uint256",
          "name": "",
          "type": "uint256"
        }
      ],
      "stateMutability": "view",
      "type": "function"
    },
    {
      "inputs": [
        {
          "internalType": "address",
          "name": "spender",
          "type": "address"
        },
        {
          "internalType": "uint256",
          "name": "amount",
          "type": "uint256"
        }
      ],
      "name": "approve",
      "outputs": [
        {
          "internalType": "bool",
          "name": "",
          "type": "bool"
        }
      ],
      "stateMutability": "nonpayable",
      "type": "function"
    },
    {
      "inputs": [
        {
          "internalType": "address",
          "name": "account",
          "type": "address"
        }
      ],
      "name": "balanceOf",
      "outputs": [
        {
          "internalType": "uint256",
          "name": "",
          "type": "uint256"
        }
      ],
      "stateMutability": "view",
      "type": "function"
    },
    {
      "inputs": [
        {
          "internalType": "address",
          "name": "addr",
          "type": "address"
        },
        {
          "internalType": "uint256",
          "name": "amount",
          "type": "uint256"
        }
      ],
      "name": "burn_by_oec_module",
      "outputs": [],
      "stateMutability": "nonpayable",
      "type": "function"
    },
    {
      "inputs": [],
      "name": "decimals",
      "outputs": [
        {
          "internalType": "uint8",
          "name": "",
          "type": "uint8"
        }
      ],
      "stateMutability": "view",
      "type": "function"
    },
    {
      "inputs": [
        {
          "internalType": "address",
          "name": "spender",
          "type": "address"
        },
        {
          "internalType": "uint256",
          "name": "subtractedValue",
          "type": "uint256"
        }
      ],
      "name": "decreaseAllowance",
      "outputs": [
        {
          "internalType": "bool",
          "name": "",
          "type": "bool"
        }
      ],
      "stateMutability": "nonpayable",
      "type": "function"
    },
    {
      "inputs": [
        {
          "internalType": "address",
          "name": "spender",
          "type": "address"
        },
        {
          "internalType": "uint256",
          "name": "addedValue",
          "type": "uint256"
        }
      ],
      "name": "increaseAllowance",
      "outputs": [
        {
          "internalType": "bool",
          "name": "",
          "type": "bool"
        }
      ],
      "stateMutability": "nonpayable",
      "type": "function"
    },
    {
      "inputs": [
        {
          "internalType": "address",
          "name": "addr",
          "type": "address"
        },
        {
          "internalType": "uint256",
          "name": "amount",
          "type": "uint256"
        }
      ],
      "name": "mint_by_oec_module",
      "outputs": [],
      "stateMutability": "nonpayable",
      "type": "function"
    },
    {
      "inputs": [],
      "name": "name",
      "outputs": [
        {
          "internalType": "string",
          "name": "",
          "type": "string"
        }
      ],
      "stateMutability": "view",
      "type": "function"
    },
    {
      "inputs": [],
      "name": "native_denom",
      "outputs": [
        {
          "internalType": "string",
          "name": "",
          "type": "string"
        }
      ],
      "stateMutability": "view",
      "type": "function"
    },
    {
      "inputs": [
        {
          "internalType": "string",
          "name": "recipient",
          "type": "string"
        },
        {
          "internalType": "uint256",
          "name": "amount",
          "type": "uint256"
        }
      ],
      "name": "send_to_ibc",
      "outputs": [],
      "stateMutability": "nonpayable",
      "type": "function"
    },
    {
      "inputs": [],
      "name": "symbol",
      "outputs": [
        {
          "internalType": "string",
          "name": "",
          "type": "string"
        }
      ],
      "stateMutability": "view",
      "type": "function"
    },
    {
      "inputs": [],
      "name": "totalSupply",
      "outputs": [
        {
          "internalType": "uint256",
          "name": "",
          "type": "uint256"
        }
      ],
      "stateMutability": "view",
      "type": "function"
    },
    {
      "inputs": [
        {
          "internalType": "address",
          "name": "to",
          "type": "address"
        },
        {
          "internalType": "uint256",
          "name": "amount",
          "type": "uint256"
        }
      ],
      "name": "transfer",
      "outputs": [
        {
          "internalType": "bool",
          "name": "",
          "type": "bool"
        }
      ],
      "stateMutability": "nonpayable",
      "type": "function"
    },
    {
      "inputs": [
        {
          "internalType": "address",
          "name": "from",
          "type": "address"
        },
        {
          "internalType": "address",
          "name": "to",
          "type": "address"
        },
        {
          "internalType": "uint256",
          "name": "amount",
          "type": "uint256"
        }
      ],
      "name": "transferFrom",
      "outputs": [
        {
          "internalType": "bool",
          "name": "",
          "type": "bool"
        }
      ],
      "stateMutability": "nonpayable",
      "type": "function"
    }
  ],
  "bytecode": "0x60806040523480156200001157600080fd5b5060405162001f5d38038062001f5d8339818101604052810190620000379190620001cb565b81828282600090805190602001906200005292919062000092565b5081600190805190602001906200006b92919062000092565b5080600260006101000a81548160ff021916908360ff1602179055505050505050620003bc565b828054620000a090620002c7565b90600052602060002090601f016020900481019282620000c4576000855562000110565b82601f10620000df57805160ff191683800117855562000110565b8280016001018555821562000110579182015b828111156200010f578251825591602001919060010190620000f2565b5b5090506200011f919062000123565b5090565b5b808211156200013e57600081600090555060010162000124565b5090565b60006200015962000153846200024e565b62000225565b9050828152602081018484840111156200017257600080fd5b6200017f84828562000291565b509392505050565b600082601f8301126200019957600080fd5b8151620001ab84826020860162000142565b91505092915050565b600081519050620001c581620003a2565b92915050565b60008060408385031215620001df57600080fd5b600083015167ffffffffffffffff811115620001fa57600080fd5b620002088582860162000187565b92505060206200021b85828601620001b4565b9150509250929050565b60006200023162000244565b90506200023f8282620002fd565b919050565b6000604051905090565b600067ffffffffffffffff8211156200026c576200026b62000362565b5b620002778262000391565b9050602081019050919050565b600060ff82169050919050565b60005b83811015620002b157808201518184015260208101905062000294565b83811115620002c1576000848401525b50505050565b60006002820490506001821680620002e057607f821691505b60208210811415620002f757620002f662000333565b5b50919050565b620003088262000391565b810181811067ffffffffffffffff821117156200032a576200032962000362565b5b80604052505050565b7f4e487b7100000000000000000000000000000000000000000000000000000000600052602260045260246000fd5b7f4e487b7100000000000000000000000000000000000000000000000000000000600052604160045260246000fd5b6000601f19601f8301169050919050565b620003ad8162000284565b8114620003b957600080fd5b50565b611b9180620003cc6000396000f3fe608060405234801561001057600080fd5b50600436106100f55760003560e01c80633950935111610097578063a515cb4011610066578063a515cb401461029a578063a9059cbb146102b6578063dd62ed3e146102e6578063ee36665414610316576100f5565b806339509351146101ec57806370a082311461021c57806395d89b411461024c578063a457c2d71461026a576100f5565b806318160ddd116100d357806318160ddd1461016457806320ac86af1461018257806323b872dd1461019e578063313ce567146101ce576100f5565b806306fdde03146100fa578063095ea7b314610118578063141fba4c14610148575b600080fd5b610102610334565b60405161010f9190611437565b60405180910390f35b610132600480360381019061012d919061117b565b6103c6565b60405161013f919061141c565b60405180910390f35b610162600480360381019061015d919061117b565b6103e9565b005b61016c610443565b6040516101799190611599565b60405180910390f35b61019c6004803603810190610197919061117b565b61044d565b005b6101b860048036038101906101b3919061112c565b6104a7565b6040516101c5919061141c565b60405180910390f35b6101d66104d6565b6040516101e391906115b4565b60405180910390f35b6102066004803603810190610201919061117b565b6104ed565b604051610213919061141c565b60405180910390f35b610236600480360381019061023191906110c7565b610597565b6040516102439190611599565b60405180910390f35b6102546105e0565b6040516102619190611437565b60405180910390f35b610284600480360381019061027f919061117b565b610672565b604051610291919061141c565b60405180910390f35b6102b460048036038101906102af91906111b7565b61075c565b005b6102d060048036038101906102cb919061117b565b6107a5565b6040516102dd919061141c565b60405180910390f35b61030060048036038101906102fb91906110f0565b6107c8565b60405161030d9190611599565b60405180910390f35b61031e61084f565b60405161032b9190611437565b60405180910390f35b60606000805461034390611762565b80601f016020809104026020016040519081016040528092919081815260200182805461036f90611762565b80156103bc5780601f10610391576101008083540402835291602001916103bc565b820191906000526020600020905b81548152906001019060200180831161039f57829003601f168201915b5050505050905090565b6000806103d161085e565b90506103de818585610866565b600191505092915050565b73c63cf6c8e1f3df41085e9d8af49584dae1432b4f73ffffffffffffffffffffffffffffffffffffffff163373ffffffffffffffffffffffffffffffffffffffff161461043557600080fd5b61043f8282610a31565b5050565b6000600354905090565b73c63cf6c8e1f3df41085e9d8af49584dae1432b4f73ffffffffffffffffffffffffffffffffffffffff163373ffffffffffffffffffffffffffffffffffffffff161461049957600080fd5b6104a38282610b7a565b5050565b6000806104b261085e565b90506104bf858285610d3b565b6104ca858585610dc7565b60019150509392505050565b6000600260009054906101000a900460ff16905090565b6000806104f861085e565b905061058c818585600560008673ffffffffffffffffffffffffffffffffffffffff1673ffffffffffffffffffffffffffffffffffffffff16815260200190815260200160002060008973ffffffffffffffffffffffffffffffffffffffff1673ffffffffffffffffffffffffffffffffffffffff168152602001908152602001600020546105879190611641565b610866565b600191505092915050565b6000600460008373ffffffffffffffffffffffffffffffffffffffff1673ffffffffffffffffffffffffffffffffffffffff168152602001908152602001600020549050919050565b6060600180546105ef90611762565b80601f016020809104026020016040519081016040528092919081815260200182805461061b90611762565b80156106685780601f1061063d57610100808354040283529160200191610668565b820191906000526020600020905b81548152906001019060200180831161064b57829003601f168201915b5050505050905090565b60008061067d61085e565b90506000600560008373ffffffffffffffffffffffffffffffffffffffff1673ffffffffffffffffffffffffffffffffffffffff16815260200190815260200160002060008673ffffffffffffffffffffffffffffffffffffffff1673ffffffffffffffffffffffffffffffffffffffff16815260200190815260200160002054905083811015610743576040517f08c379a000000000000000000000000000000000000000000000000000000000815260040161073a90611559565b60405180910390fd5b6107508286868403610866565b60019250505092915050565b6107663382610b7a565b7f89d09f8672066de64561c44e0b82c3ead3aad885e9caf1b3135a52146d7a488a338383604051610799939291906113de565b60405180910390a15050565b6000806107b061085e565b90506107bd818585610dc7565b600191505092915050565b6000600560008473ffffffffffffffffffffffffffffffffffffffff1673ffffffffffffffffffffffffffffffffffffffff16815260200190815260200160002060008373ffffffffffffffffffffffffffffffffffffffff1673ffffffffffffffffffffffffffffffffffffffff16815260200190815260200160002054905092915050565b60606108596105e0565b905090565b600033905090565b600073ffffffffffffffffffffffffffffffffffffffff168373ffffffffffffffffffffffffffffffffffffffff1614156108d6576040517f08c379a00000000000000000000000000000000000000000000000000000000081526004016108cd90611539565b60405180910390fd5b600073ffffffffffffffffffffffffffffffffffffffff168273ffffffffffffffffffffffffffffffffffffffff161415610946576040517f08c379a000000000000000000000000000000000000000000000000000000000815260040161093d90611499565b60405180910390fd5b80600560008573ffffffffffffffffffffffffffffffffffffffff1673ffffffffffffffffffffffffffffffffffffffff16815260200190815260200160002060008473ffffffffffffffffffffffffffffffffffffffff1673ffffffffffffffffffffffffffffffffffffffff168152602001908152602001600020819055508173ffffffffffffffffffffffffffffffffffffffff168373ffffffffffffffffffffffffffffffffffffffff167f8c5be1e5ebec7d5bd14f71427d1e84f3dd0314c0f7b2291e5b200ac8c7c3b92583604051610a249190611599565b60405180910390a3505050565b600073ffffffffffffffffffffffffffffffffffffffff168273ffffffffffffffffffffffffffffffffffffffff161415610aa1576040517f08c379a0000000000000000000000000000000000000000000000000000000008152600401610a9890611579565b60405180910390fd5b8060036000828254610ab39190611641565b9250508190555080600460008473ffffffffffffffffffffffffffffffffffffffff1673ffffffffffffffffffffffffffffffffffffffff1681526020019081526020016000206000828254610b099190611641565b925050819055508173ffffffffffffffffffffffffffffffffffffffff16600073ffffffffffffffffffffffffffffffffffffffff167fddf252ad1be2c89b69c2b068fc378daa952ba7f163c4a11628f55a4df523b3ef83604051610b6e9190611599565b60405180910390a35050565b600073ffffffffffffffffffffffffffffffffffffffff168273ffffffffffffffffffffffffffffffffffffffff161415610bea576040517f08c379a0000000000000000000000000000000000000000000000000000000008152600401610be1906114f9565b60405180910390fd5b6000600460008473ffffffffffffffffffffffffffffffffffffffff1673ffffffffffffffffffffffffffffffffffffffff16815260200190815260200160002054905081811015610c71576040517f08c379a0000000000000000000000000000000000000000000000000000000008152600401610c6890611479565b60405180910390fd5b818103600460008573ffffffffffffffffffffffffffffffffffffffff1673ffffffffffffffffffffffffffffffffffffffff168152602001908152602001600020819055508160036000828254610cc99190611697565b92505081905550600073ffffffffffffffffffffffffffffffffffffffff168373ffffffffffffffffffffffffffffffffffffffff167fddf252ad1be2c89b69c2b068fc378daa952ba7f163c4a11628f55a4df523b3ef84604051610d2e9190611599565b60405180910390a3505050565b6000610d4784846107c8565b90507fffffffffffffffffffffffffffffffffffffffffffffffffffffffffffffffff8114610dc15781811015610db3576040517f08c379a0000000000000000000000000000000000000000000000000000000008152600401610daa906114b9565b60405180910390fd5b610dc08484848403610866565b5b50505050565b600073ffffffffffffffffffffffffffffffffffffffff168373ffffffffffffffffffffffffffffffffffffffff161415610e37576040517f08c379a0000000000000000000000000000000000000000000000000000000008152600401610e2e90611519565b60405180910390fd5b600073ffffffffffffffffffffffffffffffffffffffff168273ffffffffffffffffffffffffffffffffffffffff161415610ea7576040517f08c379a0000000000000000000000000000000000000000000000000000000008152600401610e9e90611459565b60405180910390fd5b6000600460008573ffffffffffffffffffffffffffffffffffffffff1673ffffffffffffffffffffffffffffffffffffffff16815260200190815260200160002054905081811015610f2e576040517f08c379a0000000000000000000000000000000000000000000000000000000008152600401610f25906114d9565b60405180910390fd5b818103600460008673ffffffffffffffffffffffffffffffffffffffff1673ffffffffffffffffffffffffffffffffffffffff1681526020019081526020016000208190555081600460008573ffffffffffffffffffffffffffffffffffffffff1673ffffffffffffffffffffffffffffffffffffffff1681526020019081526020016000206000828254610fc39190611641565b925050819055508273ffffffffffffffffffffffffffffffffffffffff168473ffffffffffffffffffffffffffffffffffffffff167fddf252ad1be2c89b69c2b068fc378daa952ba7f163c4a11628f55a4df523b3ef846040516110279190611599565b60405180910390a350505050565b6000611048611043846115f4565b6115cf565b90508281526020810184848401111561106057600080fd5b61106b848285611720565b509392505050565b60008135905061108281611b2d565b92915050565b600082601f83011261109957600080fd5b81356110a9848260208601611035565b91505092915050565b6000813590506110c181611b44565b92915050565b6000602082840312156110d957600080fd5b60006110e784828501611073565b91505092915050565b6000806040838503121561110357600080fd5b600061111185828601611073565b925050602061112285828601611073565b9150509250929050565b60008060006060848603121561114157600080fd5b600061114f86828701611073565b935050602061116086828701611073565b9250506040611171868287016110b2565b9150509250925092565b6000806040838503121561118e57600080fd5b600061119c85828601611073565b92505060206111ad858286016110b2565b9150509250929050565b600080604083850312156111ca57600080fd5b600083013567ffffffffffffffff8111156111e457600080fd5b6111f085828601611088565b9250506020611201858286016110b2565b9150509250929050565b611214816116cb565b82525050565b611223816116dd565b82525050565b600061123482611625565b61123e8185611630565b935061124e81856020860161172f565b61125781611852565b840191505092915050565b600061126f602383611630565b915061127a82611863565b604082019050919050565b6000611292602283611630565b915061129d826118b2565b604082019050919050565b60006112b5602283611630565b91506112c082611901565b604082019050919050565b60006112d8601d83611630565b91506112e382611950565b602082019050919050565b60006112fb602683611630565b915061130682611979565b604082019050919050565b600061131e602183611630565b9150611329826119c8565b604082019050919050565b6000611341602583611630565b915061134c82611a17565b604082019050919050565b6000611364602483611630565b915061136f82611a66565b604082019050919050565b6000611387602583611630565b915061139282611ab5565b604082019050919050565b60006113aa601f83611630565b91506113b582611b04565b602082019050919050565b6113c981611709565b82525050565b6113d881611713565b82525050565b60006060820190506113f3600083018661120b565b81810360208301526114058185611229565b905061141460408301846113c0565b949350505050565b6000602082019050611431600083018461121a565b92915050565b600060208201905081810360008301526114518184611229565b905092915050565b6000602082019050818103600083015261147281611262565b9050919050565b6000602082019050818103600083015261149281611285565b9050919050565b600060208201905081810360008301526114b2816112a8565b9050919050565b600060208201905081810360008301526114d2816112cb565b9050919050565b600060208201905081810360008301526114f2816112ee565b9050919050565b6000602082019050818103600083015261151281611311565b9050919050565b6000602082019050818103600083015261153281611334565b9050919050565b6000602082019050818103600083015261155281611357565b9050919050565b600060208201905081810360008301526115728161137a565b9050919050565b600060208201905081810360008301526115928161139d565b9050919050565b60006020820190506115ae60008301846113c0565b92915050565b60006020820190506115c960008301846113cf565b92915050565b60006115d96115ea565b90506115e58282611794565b919050565b6000604051905090565b600067ffffffffffffffff82111561160f5761160e611823565b5b61161882611852565b9050602081019050919050565b600081519050919050565b600082825260208201905092915050565b600061164c82611709565b915061165783611709565b9250827fffffffffffffffffffffffffffffffffffffffffffffffffffffffffffffffff0382111561168c5761168b6117c5565b5b828201905092915050565b60006116a282611709565b91506116ad83611709565b9250828210156116c0576116bf6117c5565b5b828203905092915050565b60006116d6826116e9565b9050919050565b60008115159050919050565b600073ffffffffffffffffffffffffffffffffffffffff82169050919050565b6000819050919050565b600060ff82169050919050565b82818337600083830152505050565b60005b8381101561174d578082015181840152602081019050611732565b8381111561175c576000848401525b50505050565b6000600282049050600182168061177a57607f821691505b6020821081141561178e5761178d6117f4565b5b50919050565b61179d82611852565b810181811067ffffffffffffffff821117156117bc576117bb611823565b5b80604052505050565b7f4e487b7100000000000000000000000000000000000000000000000000000000600052601160045260246000fd5b7f4e487b7100000000000000000000000000000000000000000000000000000000600052602260045260246000fd5b7f4e487b7100000000000000000000000000000000000000000000000000000000600052604160045260246000fd5b6000601f19601f8301169050919050565b7f45524332303a207472616e7366657220746f20746865207a65726f206164647260008201527f6573730000000000000000000000000000000000000000000000000000000000602082015250565b7f45524332303a206275726e20616d6f756e7420657863656564732062616c616e60008201527f6365000000000000000000000000000000000000000000000000000000000000602082015250565b7f45524332303a20617070726f766520746f20746865207a65726f20616464726560008201527f7373000000000000000000000000000000000000000000000000000000000000602082015250565b7f45524332303a20696e73756666696369656e7420616c6c6f77616e6365000000600082015250565b7f45524332303a207472616e7366657220616d6f756e742065786365656473206260008201527f616c616e63650000000000000000000000000000000000000000000000000000602082015250565b7f45524332303a206275726e2066726f6d20746865207a65726f2061646472657360008201527f7300000000000000000000000000000000000000000000000000000000000000602082015250565b7f45524332303a207472616e736665722066726f6d20746865207a65726f20616460008201527f6472657373000000000000000000000000000000000000000000000000000000602082015250565b7f45524332303a20617070726f76652066726f6d20746865207a65726f2061646460008201527f7265737300000000000000000000000000000000000000000000000000000000602082015250565b7f45524332303a2064656372656173656420616c6c6f77616e63652062656c6f7760008201527f207a65726f000000000000000000000000000000000000000000000000000000602082015250565b7f45524332303a206d696e7420746f20746865207a65726f206164647265737300600082015250565b611b36816116cb565b8114611b4157600080fd5b50565b611b4d81611709565b8114611b5857600080fd5b5056fea2646970667358221220d373b1ee1297a4621c00d0a81c91e5b3c3522a4b5275ab03cee60684cb5a93c464736f6c63430008040033",
  "linkReferences": {},
  "deployedLinkReferences": {}
}